:020000022000DC
:10600000305E032001610200158F0300CB1F0400E6
:10601000158F0300158F0300158F0300000000008B
:10602000000000000000000000000000158F0300C9
:10603000158F030000000000158F0300158F03006B
:10604000E97A0300158F0300158F0300158F0300F5
:10605000158F0300158F0300659603009D7A0300DA
:10606000158F0300158F0300158F0300158F030094
:10607000158F0300158F0300158F0300158F030084
:10608000158F03003D970300158F0300158F030044
:10609000158F0300158F030065B00300158F0300F3
:1060A000158F0300158F0300158F0300158F030054
:1060B000158F0300158F0300000000000000000092
:1060C000158F0300158F0300158F0300158F030034
:1060D000158F0300158F0300158F0300BD79030092
:1060E000158F0300158F0300158F030000000000BB
:1060F00000000000158F030000000000158F030052
:1061000012F009FF0E480F490022814201D004C05D
:10611000FBE70D480D490E4A814202D008CA08C06B
:10612000FAE70C484FF47001026842EA010202608B
:10613000BFF34F8FBFF36F8F11F032FC00DE000012
:1061400074000220D09D0220000002207400022072
:10615000E064040088ED00E00146806840B1013849
:106160008860D1E9000290421EBF821C0A6070471D
:10617000002070470020704701207047016999B1E5
:10618000B0B502AFD0E9022401390161551C856028
:106190004569D0E900312C440134C460184606F04A
:1061A00047FA01460120B0BD00207047F0B503AFAB
:1061B0002DE9000FE1B0D0F800B0884603907F4D84
:1061C0009BF808000B91CDF820B090B1032813D1B3
:1061D000594611F8140F049108390291DFE810F0C4
:1061E00006007D00E50BD600280019000298006823
:1061F0008FE01BF0B6F884E05D4615F8140FDFE879
:1062000010F09C006900D40BA9000500D8F80040EC
:106210006FE05E4616F8360FDFE810F0050062000A
:10622000C70B1F000D00DBE906A0DBF8202022E1F0
:10623000D8F80040B9E05C4614F8680FDFE810F0C9
:1062400008005600B50B3105270033006403310503
:10625000DBF850A0CDE9094698E1DA461AF84A0F72
:10626000DFE810F005004100A30B0A008506CDE928
:1062700009A6DBF838A031E10A965E4616F8810FD0
:10628000E0B1032800F09A874D4812F0C4FDCDE933
:1062900009465E4616F89C0FB0B1032800F07182E3
:1062A000484812F0B8FD9BF879100BF16C0071B101
:1062B000032900F0F182444812F0ADFD9BF8830001
:1062C000DBE91D4900F067BFDBE924494FE2DBF859
:1062D0007410DEE23D4812F09EFD3D4812F09BFD39
:1062E0003C4812F098FD3C4812F095FD3B4812F0F6
:1062F00092FD1AF0CBFF10B9DBF8100021E004206A
:10630000C9E35A46002142F80C0F029202F8081F16
:106310000492CBF8100090F8C01059B301205D46EC
:1063200005F8140F00202B22287055F8100C45F8A2
:10633000080C681C1AA91BF0ADF8DBF80C00CBF8B0
:10634000100090F8C01071B100217C308BF8201043
:10635000CBF818001AF0E1FDC0B2052800F09A83CE
:106360001AF089FDC5E70120144D8BF81400DBF805
:106370000400C6E700218BF82C108BF8201000F1E8
:10638000C4017C30CBF82410CBF818001AF0C5FDFE
:10639000C0B2052807D19BF82C0028B303282ED0C3
:1063A0000F4812F038FD1AF066FD1AF06FFF002852
:1063B00000F03187042000F0FEBC00BF00700240F6
:1063C0004C3C04005C3C04000C3C04001C25040014
:1063D0006C2504002C2504005C2504009C25040089
:1063E0001C3C0400949C02200020CBF82850C5F8E7
:1063F00000024FF40001DBF82800C0F804135FF836
:106400001C001AF015FDD5F85C01002800F09D83F2
:10641000DBF8280000215E46C0F85C11DBF828207C
:10642000D2F88004D2F88434D2F88844C0B2D2F8CA
:106430008C54DBB22D0664F3174545EA0323184458
:10644000D2F89034D2F89444D2F89854D2F89C24DC
:1064500006F8361FD9B2E3B2120656F826AC41EA66
:106460000321EBB246F81EAC42EA034246F81A0C8E
:106470000A4446F8162C030C594621F82C3FC0F369
:106480004114C0F3C0130A960C7200F01F04042CD0
:1064900041E902024B7228BF0424000ACC718871C2
:1064A000100C002B88804A8056D01AA818C9021DEB
:1064B00018C20988118011A938C80A4638C2008854
:1064C00010800BF13C00CBF838A01CC91CC0098817
:1064D00001800020594601F84A0F09910BF1400054
:1064E000CBF83CA00CA90CC80CC1008808809AF815
:1064F000BE00DAE900CE0690F346BAF8C400079071
:10650000E1469DF838109DF83700BDF83420022987
:10651000059200F0A580002940F0B180002800F02D
:106520001E82012800F0F581022840F0A8809DF825
:106530003600002840F00F859DF9321001F00F0061
:10654000002900F1B583E64A40F244410828C0F032
:10655000B583E44A00F0BEBD0DF168080A2208F1D7
:106560000A001AF097FF0CA898E87C0001467CC14D
:106570000BF15401CBF850A090E87C0000207CC1C6
:10658000594601F8680F0991DDF82C800BF1540091
:106590000BF15E010A22CBF840A01AF07BFFBBF89A
:1065A00058000025CBF84400BAF8C410CBF84810C6
:1065B000CBF84C50DAF80440844212D212F0D4FDE9
:1065C000C94812F031FDDBF8440012F001FD1AF069
:1065D000ACFE12F0EFFDDBF84000C430CBE91B0548
:1065E0005CE3DAF800102246C04B18F061FD024669
:1065F000DBF84830BE480DF168090C46009009F1FF
:106600000800114622460DF039FD11A899E87C00DA
:1066100001467CC10BF1700190E87C0001207CC137
:106620008BF884000020DBE91C4900210BF178067F
:10663000CBF86C1020B930460EF020FA044689469B
:106640005CB100209BF884508BF88400DBF86C0070
:10665000012873D1DBF8700078E0DBF84CA0D3E0C0
:1066600068B9DAF8746056B19AF878009DF8361077
:10667000814204BFBDF83200072800F00F82DAF82B
:106680006C000AF12C050DF1680A0DF13008C60006
:10669000002E00F06084D5E900104246C46A5046DE
:1066A0006346CDF800E0A0471A9820B9083E0835A7
:1066B000CC46DE46ECE7DDE91BC6BCF1000F00F07E
:1066C0004A84059A4FF00009079B00251046934223
:1066D00038BF18460699002918BF1046122B28BF4C
:1066E00010460246864238BF3246DDF82C80DDF87F
:1066F00020B0B04209D9002B00F0D584B2FBF3F0F2
:1067000000FB1320B0FA80F045097A4861460090FA
:106710001AAC20460DF0C2FC01200BF14C0181E8BF
:1067200021020BF1580194E82C002CC16C4DDDF8CE
:1067300024A08BF87000002000F0F9BC30460EF069
:106740009DF90122CBF87410CBE91B2000215E4695
:1067500006F89C1FB0FA80F04009B07056F85C0C47
:106760007570C43046E9034946F8040C5C4D0020BE
:10677000CBE92249C5F828010120E8645E48C5F844
:106780000403D8F800405FF8A4031AF051FBD5F8D1
:10679000280130B1DBE922231AA8002102F048F8D1
:1067A0000BE0D5F8000120B9D5F85C01002800F015
:1067B000FA8240F20110ADF86800DDE91A100122FA
:1067C0003270CAB2022A00F0F082CA0710D0090A59
:1067D00041EA006412F0C8FC484812F025FC04F0BD
:1067E00001000DF07FFC12F0E5FCDDE909465CE2FA
:1067F000DBE9121202EB000ACBF84CA0814203D86D
:10680000DBF84400824567D1DBF84090D9F80410EA
:106810008A4500F243840BF15400D9F80080CBE99B
:106820000E8A11A90CC80CC1008808809DF84C0084
:10683000E8B3D9F86C0009F12C060DF14409C40045
:10684000002C00F02382F6E80201424653468D6A8E
:106850004946A847C1B2083C0229F1D0DDF82C8096
:10686000C00740F01582DBF84000DDE9094600F181
:10687000C40190F8C320002A42D090F8BE00002244
:106880008BF878000BF16C008BF87920CBF8741042
:10689000134D0022C0E900120DF0C8FF01200021B5
:1068A0008BF87900DBF8400080F8C310FDE19DF81B
:1068B0004B00002800F0CB80012866D00228B8D118
:1068C0009DF84A00BDF84410012800F0EA80032832
:1068D00040F0DC810120E5E0DBF86C00A3E600BFBE
:1068E000007002408C3A0400350000007C25040052
:1068F0008C2504004C2504000104800036000000B3
:10690000D84D0020CBE91B100BF16C000DF08EFF71
:10691000CBE1DAF82810BDF83200814240F21B8347
:106920009DF836100A2900F0148100297FF4A7AEE3
:10693000CD4B022061467246022618F0B9FB0022B8
:106940000223ADF86820C94A00921AAA1AF08AF9FF
:10695000CC46BBF1010F3FF6B4AEC54ACDE19DF880
:106960003600002800F0C080062800F0AB80082820
:1069700040F0F182BEF1000F00F0A3839AF8BF004F
:106980000438B0FA80F04009EBE09DF846A04FF0E3
:106990000008D9F82810514509EB4A0088BF00F1DA
:1069A000180840F273819DF84A000B2840F06E8170
:1069B000BDF8446098F80110F0B2814240F2B08016
:1069C000D9E902010025002488F80060CDE916010C
:1069D0001AA816A913F0F2F91A98012840F0A88015
:1069E0001C9991B31AF0F7F920D0042811D005288A
:1069F000EED118A813F0A6F9C00726D1E0B2504591
:106A0000E6D198F80020E8B2101A1AF078FA544645
:106A1000DEE718A813F096F9C00716D118A80C469F
:106A200013F090F9C00710D10D46D1E718A813F064
:106A3000AFF9000409D118A813F084F9C00704D1F4
:106A400018A813F07FF9C007C2D08A4898E19DF8D2
:106A50004A00411E082900F21981BDF84400DFE810
:106A600011F009001501A20015018400150115019E
:106A70001501B100012840F0098100201AF02EFA1A
:106A8000002D3FF4F0AEF4E802010A6A00219047BD
:106A9000083DF5E70320287004208FE1DAF870C084
:106AA0000FE60020002940F0F1809DF846100A070B
:106AB00000F0278101F0870160F308216948C0F8E0
:106AC000181520E1BDF83060300A012800F0188266
:106AD000022800F0E881032800F0E9810F2840F047
:106AE0003A82DAE904C6ECE5634B0220614672465D
:106AF0009AF8C14002269AF8C25018F0D9FA5F4AB3
:106B000064F34105ADF86850022300921AAA1AF006
:106B1000A9F8CC46BBF1010F3FF6D3AD584AECE0E3
:106B200012F022FB574812F07FFA12F043FBADE05F
:106B30001AF0F9FA002D3FF496AEF4E8020132465D
:106B40004B6A51469847083DF4E703208BF82C0028
:106B500031E1BEF1000F00F0B7820AF1180111F81F
:106B600010008CF800000126ABE5411E7F2980F063
:106B70008D8089F8BE00032089F8BF0009F12C043C
:106B8000D9F86C000121DDF82C80C50089F8C3100C
:106B9000002D3FF468AEF4E8020299F8BE10526985
:106BA0009047083DF4E7012870D101201AF096F9CA
:106BB000002D3FF458AEF4E802010A6A0121904723
:106BC000083DF5E7002800F0A18001285ED10420EF
:106BD000D9F8288089F8BF0009F11806D9E902011F
:106BE0004FF0000ACDE9160118AC00251AA816A925
:106BF00013F0E4F81A98012840F0C9801C9979B381
:106C00001AF0E9F81FD0042811D00528EED11AF0A7
:106C1000BEF9C00724D1E8B2804540F24D8216F893
:106C200010005FFA8AF2801A1AF069F9DEE71AF0AA
:106C3000AEF9C00714D120460D4613F083F8C00703
:106C40000ED18A46D2E7204613F0A2F8000407D1FD
:106C50001AF09DF9C00703D11AF099F9C007C5D001
:106C600009488DE0007002400C2404001C2404003C
:106C70002C2404009C240400CC230400DC23040006
:106C8000EC230400370000007C240400DDF82C8095
:106C9000DBF840100020C431CBE91B10CA4DDDE900
:106CA00009460BF16C000DF0D1FD01202070B1E21E
:106CB000C54A4FF48461082880F00A821144C34B0E
:106CC0007246022651F820400220614618F0F0F981
:106CD0004FF0FF32022312FA84F2B2FA82F2520922
:106CE000ADF86820BA4A00921AAA19F0BBFFCC4648
:106CF000BBF1010F3FF6E5ACB64A0220594611F050
:106D0000E5F8B1494865DDF82C80ACE599F8BF009D
:106D1000DDF82C8002283FF4A6AD03200DF1680AAF
:106D200089F8BF00D9E90201CDE9160116AD18AC0A
:106D30005046294613F042F81A98012840F0EC809A
:106D40001C99E1B11AF047F80CD004280FD005289F
:106D5000EED11AF01CF9C00711D1084600210DF040
:106D600099FAE5E7204613F013F8000407D11AF06A
:106D70000EF9C00703D11AF00AF9C007D8D0964817
:106D800000901AAA95482B21954B11F097FE1AF006
:106D9000CAF9002D3FF467ADF4E802018A690121C8
:106DA0009047083DF5E703203070099904200870EA
:106DB0000A9908700520049908700320039D214654
:106DC0008BF8080068680CF0EBFCA86821460AF014
:106DD000C7FAEE68307CDFE810F00600E805E80549
:106DE0000B00CB03F103D6E90040C6E9024025E2DF
:106DF000354615F8640FDFE810F006006F01D8057E
:106E0000360034000900D6E905041DE2B1460995B3
:106E100019F8F40F00283FD0032840F06181B246F2
:106E20001AF8F00F002800F07080032840F060810D
:106E3000B3461BF8EC0F002800F07D80032840F0DB
:106E4000AE85314611F8B10F0A91DFE810F0050068
:106E5000AB05AE0542035F03D6E92842D6F8AC8005
:106E6000ECE20995AAE2B14619F8E40FB8B103289B
:106E700040F03A81B2461AF8E00F002848D00328C3
:106E8000099540F03981B3461BF8DC0F002855D036
:106E9000032800F03882CDE1D6E91A049FE2D6E952
:106EA0001A41306FE2E1DAE902C6FFF70ABCF3B239
:106EB000032B62D80AF1080080217C22DFE803F06E
:106EC00002484346BEF1000F00F01F810420BEF1CE
:106ED000010F8CF8000000F01B810320BEF1020FAF
:106EE0008CF8010040F218810920BEF1030F8CF8E4
:106EF000020000F0178104268CF80360FFF7E1BB65
:106F00000AF1AC0C1226FFF7DCBBD6E91C046CE2DC
:106F1000D6E91D41F06FB1E1D9F86C0009F12C04FC
:106F2000C500002D3FF49FACF4E802018A690021FE
:106F30009047083DF5E7D6E91E845EE2D6E9204198
:106F4000D6F88800A3E18821842201E090218C22D8
:106F50004158805828BBDDF820B00020DDF82C8097
:106F6000DDE909A6DBF83C10C431CBE913100BF1C5
:106F70004C000DF06BFC144D49E1DAF86C000AF19D
:106F80002C05BDF832A0C400002CE4D0F5E80201C5
:106F900052460B6B31469847083C0028F4D0DE4639
:106FA000CC46BEF1010F40F2AB80032202264FF027
:106FB000000A01448CF801200191BAF1000F11D0B0
:106FC000002580465B4642E0007002404C240400ED
:106FD0005C2404006C2404008C2404001852040077
:106FE000283A04000199884254D080465B4618F93B
:106FF000011BCDB2B1F1FF3F26DC427805F01F0145
:10700000E02D02F03F0212D38478F02D04F03F040B
:1070100044EA821210D3C47801F0070100F1040899
:1070200004F03F0444EA821242EA814508E042EA61
:10703000811500F1020807E042EA013500F103087A
:107040000020B0EB154F1BD11FFA85FA0025B41CA8
:107050009C422CD2DFF8B00B2146009030466246AD
:1070600018F031F8DFF8A42B0223ADF868A00092E5
:107070001AAA19F0F7FDCC464046AA4626469CE7D8
:1070800005F57F00372161F39F254FF4584141EA10
:10709000902ADCE78CF80060FFF713BBDFF8402B89
:1070A000504610F013FFDFF86C0B11F0A1FE12F048
:1070B0005BF8DFF8500BB7E0DFF8202B414610F00B
:1070C0005AFDDFF8282B01E0DFF81C2B1AF00FF82F
:1070D000DFF8102B19F0C3FFDFF8580B11F09BFEFF
:1070E000DFF8400B11F097FEDFF8440B11F093FE30
:1070F000DFF82C0B11F08FFEDFF8300B11F08BFE58
:1071000012F032F8DFF8F80A8EE0DFF8F02ADDE757
:10711000DFF8E42A19F0E7FFDFF8D42A0220022181
:1071200010F029FDDFF8CC2A03201AF0D5F8002151
:107130000BF14C06CBF8641020B9304600F052FE3B
:1071400004468946002C61D000209BF870508BF8D3
:107150007000DBF86400012802D1DBF8680007E06A
:10716000304600F03FFE0122CBF86C10CBE919202D
:1071700000215E4606F8811FB0FA80F0400956F8FB
:10718000451C7570C431B07046F80D4C46F8099C2A
:1071900046F8051CE94D8BF880000020C5F8280151
:1071A00021469BF880004A468000C0B2C5F8000224
:1071B000002001F08BFBE248C5F80403D8F800403A
:1071C000D4E9001089688847DFF80C0A19F030FE0E
:1071D000D5F8280138B10BF1640901208BF8810042
:1071E00099E81102A3E7D5F8000110B9D5F85C01C0
:1071F000A8B10120307011F0B7FFDFF8140A11F0C8
:1072000013FF01200CF06EFF11F0D4FF0A9E012045
:107210008AF800003070DBF81000FFF77CB803201C
:1072200030708AF80000C3E511F0FEFE11F0C2FFD5
:1072300011F00AFFDFF8F00911F0EDFD00213546ED
:1072400005F8641F45E91404C6E9070406F12400A3
:1072500040211AF0D0FBB146202049F8684F0022A7
:10726000A9F12401C9E9011009F87C2F0022B246D6
:107270000AF8E02F4AE91B414AF8640C0022B346A1
:107280000BF8DC2F09954BE917414BF8540C1F28DC
:10729000C6E92341C6F8940040F22282A088C6F8CD
:1072A000980020680068BFF35F8FC6E92700D6E921
:1072B0002423DFF888190091202117F004FF0246EB
:1072C000DFF87C09D6F898300C4600901AAD1146CC
:1072D000224628460CF0D2FE95E80E0006F1A400E6
:1072E0000EC006F1A4000DF0C9FB002846D0002214
:1072F000C6F8B81086F8D820D6F88C20D8F8004008
:107300000432C6E92C2006F1B00111A8224600F093
:1073100005FE9DF84400022800F0C980C00719D07E
:10732000D6F88C1000229DF84500DFF8185909683E
:10733000BFF35F8F0A60012186F8E41086F8E01041
:1073400086F8DC10022111EA400080F0020400F00F
:107350001D8124E11299D6F8A000D6F8982008449F
:10736000C6F8A000914202D3202840F09580D6F8BC
:107370008C0000210068BFF35F8F0160D6E9270110
:10738000002994D001248BF800408AF8004089F845
:10739000004010B1DFF8AC58F8E0F0690022016855
:1073A00086F8742006F124023167C6E91A0206F154
:1073B00075001AA940F21B121AF06CF806F1680069
:1073C000414605F005FC00286DD10020B14609F8C2
:1073D000F40FA9F1D00459F8D40C49E92304002191
:1073E000B2460AF8F01F4AE920040021B3460BF820
:1073F000EC1F00F10C084BE91D8406F180052021EB
:1074000019F05DFF1AA8294622460EF0DBFA1A98F9
:10741000072821D11B9A2846DFF82C3800210CF0D0
:10742000F4FD04460A463046002100F8B11F0A90D8
:1074300040F8058C40F8114C40F80D2C212AC6F874
:10744000A88080F08382B8F80030202A0DD1DDF8C2
:107450002C80002020220FE0DDF82C800120022467
:107460008BF800008AF800008BE0DDF82C80002B00
:1074700000F0118219F09CFD86F8B000DFF8D40707
:10748000214600901AAD28460CF008FE95E80E0043
:1074900006F1B4000EC00CE0D6F88C100968BFF3FA
:1074A0005F8F08601DE70420DDF82C8041E0032099
:1074B00038E006F1B4000DF0BBFAB8B1D8F80040DE
:1074C000002286F8E820D6F8A820C6E93020C6F8C1
:1074D000C81006F1C000214600F09CFCC0B2022892
:1074E000E7D003282ED103200A9A19E096F8B010AD
:1074F000022039B3D8F8004000200121D6F8A82096
:1075000086F8DC00C6E92D21C6F8BC0006F1B400FF
:10751000214600F07FFC0A9AC0B2032813D1042050
:107520001070052003218BF800108AF8001089F8EC
:10753000001009990870032047E000BF0070024066
:10754000010480000A9A0121022811708BF80010B2
:107550008AF8001011D186F86410212086F8F41002
:1075600019F0A8FB86F82040D8F80040C6E90601CB
:1075700019F028FE28B3042027E00224C00718BF12
:1075800000240120DFF8D05689F8000011F0ECFD4E
:10759000284611F049FD19F0F2FD11F00BFE012013
:1075A000002186F864004FF48040002412F0C6F9F0
:1075B00086F82040C6E90601D8F8004019F002FE1E
:1075C00010B9D6E9024039E6052030740398D0F8A6
:1075D00010A09AF80800DFE810F005005400E80158
:1075E0006C011E00DAF804000178002900F05781D0
:1075F000CAF814000AF13008DAF8000000215246F7
:107600008AF8191002F8391F0AF11001CAF834007B
:107610000A92099111E0514611F8390FA1F10908B8
:107620000A9129390991DFE810F00600C001C00174
:1076300017000B00E000DAF83400C8F800002DE075
:107640009AF8440000219AF84550C0078AF844107F
:107650001BD0DAF8406048E0544614F8A80F40B157
:10766000032817D1D3461BF8A40F30B1032865D0E7
:10767000E0E50AF13C0207CA1DE00AF1480207CA28
:1076800020E0DFF8E00511F0C6FB11F06DFDDFF83A
:10769000CC05C9E5DFF8C80511F0BDFB0023514654
:1076A00001F8383F01220C46C1E9021204F8703F8C
:1076B0000B4643F8040F0023D3460BF8A43FABF16D
:1076C0005C0307C30AF1540307C34AB18188CAF8AF
:1076D000601000680068BFF35F8FCAE9190096E088
:1076E00011F042FDDFF850059EE512F0C1FB814626
:1076F00030680B9AB0B919F02CFC13F069FD044600
:1077000030680D460130306019F0CFFDE00712D02F
:1077100001208AF845508AF844000B98D0F8009070
:1077200004206CE011F020FDDFF8440511F07CFC32
:1077300013F03CFD7AE5D8F80000AFE70B980AF1AA
:107740007801D0F8009011A84A4600F0E7FB9DF8B8
:10775000440002282ED0C00711D0DAF854100022BD
:107760009DF845000968BFF35F8F0A6001218AF820
:10777000A8108AF8A410022121EA40011FE0129902
:10778000DAF86800DAF860200844CAF86800914224
:1077900001D3012807D1DAF8540000210068BFF3B3
:1077A0005F8F01605DE0DAF854100968BFF35F8F06
:1077B000086046E003208BF8000020701FE08AF884
:1077C0003C1011F0D1FCDFF8A00411F02DFC9AF868
:1077D0003C000CF095FC11F0EDFC4FF4004019F06A
:1077E00069FACAE910018AF848400B98D0F800906D
:1077F0000AF1400019F04FFC00289CD005200A999E
:1078000008704946099806F08FF804205AE0DAE932
:107810001623DFF828140091012117F054FC0246CA
:10782000DFF81C04DAF860300D4600901AAE1146FD
:107830002A4630460CF022FC96E80E000AF16C0055
:107840000EC00AF16C000DF019F950B10022CAF80F
:1078500080108AF8A020DAF854200432CAE91E20E9
:107860006CE7DAE919010029D1D0012100288BF851
:1078700000102170A3D19AF83850DFF8F0132802D5
:107880008AF83C50013001F12006CAE9106000205E
:107890008AF8440029E7DFF8B80311F0A9FACD48C7
:1078A00047F6FF7112F04AF8CAE9040100208AF88D
:1078B0001800D8F800900AF1100019F0ECFB00282D
:1078C000EDD00320039C49468AF80800606900F067
:1078D000B9FBA669307EDFE800F0046868123E1A42
:1078E000400096E8070006F10C03002407C34FF49C
:1078F000803019F0ECFBC6E9080186F8284006F153
:10790000200019F0C8FB002850D003205EE1B046EB
:1079100018F8900F00282FD003283AD1B2461AF851
:107920008C0F002832D0032839D1B3461BF8510FF1
:10793000DFE810F0050038003B0008012001D6E91F
:107940001042092AF56CB564C0F0C58011F00CFC3A
:10795000BE48FFF769BCF1692BE0B04618F8390F53
:10796000DFE800F0031A236C0D00D6E90702D6F811
:107970002CA096F83A303BE0D6E90A5186E019F09F
:1079800017FCC4B2072C5ED10420C4E0D6E90C5128
:1079900082E0B94811F03FFAB64811F03CFA9F482E
:1079A00011F039FA9C4811F036FAFEDEF0680168F1
:1079B000F1611AA84A4600F06BF99DF86810022997
:1079C00000F0AD80DDF86900C907DDF86D209DF895
:1079D00071304DD00021B04608F8391F58F825AC59
:1079E00048F81D0C48F8192C88F8013048F80DACFF
:1079F00031464FF0000B41F8240F0C464A6044F822
:107A00000CBF01F10D02C1F810B081F814B0237061
:107A10001AA818F0E7FF1A9807281ED11B98002112
:107A2000984B19F038FC984B204600212A460CF060
:107A3000FBFA86F894B0C6E90FA0716419F0B8FBA0
:107A4000C4B2072C66D0062C0ED011F08DFB8F48E7
:107A500011F0EAFA19F093FB04E011F085FB884875
:107A600011F0E2FA11F0A6FB012088F800009DE772
:107A70000024B04608F8904F06F11C0158F8805CCD
:107A800048E91D0208F86C3C48E91A510020B2464A
:107A90000AF88C0F4AE917510020344644F8380F91
:107AA000139060600820CDE911401AA811AA0CF0CB
:107AB000FAFC1A98072828D1139A092A31D20020F3
:107AC000B3460BF8510F4BF8114C4BF80D2C4BF8FB
:107AD000095C4BF8055C2B88082A02D1002008229B
:107AE00004E0002B3FF4D7AE19F062FA86F850009C
:107AF0005848214600901AAD28460CF0CFFA95E878
:107B00000E0006F154000EC010E0012002248AF895
:107B1000000045E0032088F80000062056E004201D
:107B200054E0494B1046082119F02FFB06F1540090
:107B30000CF07EFF90B10022B16686F88820B26C0E
:107B4000C6E9182006F16000494600F063F9C0B2AA
:107B50000228EBD0032815D103202FE096F850100F
:107B6000022079B100200121B26C86F87C00C6E9C0
:107B70001521F06506F15400494600F04BF9C0B2FA
:107B800003281AD001210224C2078BF800108AF8BA
:107B9000001018BF0024022802D188F8001005E761
:107BA000012088F8000011F0DFFA344811F03CFAA7
:107BB00019F0E5FA11F0FEFAF8E604208BF800005F
:107BC00003208AF8000088F800000520307661B0B4
:107BD00019F00BB90080FFFF949C0220AC24040034
:107BE000AC2504009C3A04003C240400FC2304005F
:107BF000DC240400EC240400CC240400BC24040095
:107C00003800000039000000FC2404000C250400AA
:107C1000340000003C2504002C260400FC25040050
:107C20003C260400C43D0400BC2504005C2604007E
:107C3000B43D0400343304002D000000CC250400C2
:107C4000DC2504004A010000EC2504002C000000A3
:107C50000C2604001C26040049010000210000003D
:107C6000583B04009433040019010000109D0220C9
:107C7000C5000000E4390400683B04000601000070
:107C800008010000B4390400C439040007010000F1
:107C9000F0B503AF2DE9000B15460C46814612F0F6
:107CA000E7F88046206800283FD14FF0FF30206081
:107CB00094F85C01012804D119F042F894F85C11A1
:107CC00000E00021D4E95502904201D1C90711D04A
:107CD000421C04F11401B2F1200300EB800018BF34
:107CE0001346C4F8543111F81060002284F85C2166
:107CF000022E06D1D5E90012201D11F08DFD0226BD
:107D000007E001EB400109F101000131092219F0FE
:107D1000C1FB206889F80060013020604046BDE862
:107D2000000BBDE8F04012F0C7B811F01DFA04488E
:107D300011F07AF913F03AFA11F03CFA11F084F9E3
:107D4000C5000000F0B503AF2DE9000B89460446DD
:107D500012F08EF880462068B0BB4FF0FF302060F4
:107D600094F87C00012804D118F0EAFF94F87C1004
:107D700000E00021D4E91D02904201D1C90715D0CD
:107D8000421C04F11401B2F1200300EB400018BFC3
:107D900013460022636784F87C200A5A08448078DE
:107DA00042EA0046350AF0B2022805D1D9E90012AC
:107DB000201D11F031FD022618F0B2FFF0B240EAAA
:107DC0000520BDE8000BF0BD11F0CEF9044811F01C
:107DD0002BF913F0EBF911F0EDF911F035F900BFC3
:107DE000C5000000B0B502AF0546044655F80C0FBB
:107DF00030B128460CF01CFE00B1B0BD0020286058
:107E00002168002021B1D4E9012160601046B0BD95
:107E1000B0BDD4D4F0B503AF4DF8048D064690F84C
:107E20002800884650B103285DD1354615F8240F47
:107E3000A0B1032863D1346A206818E096E80700EF
:107E4000C6E90312817811F07F0171614ED00021E3
:107E5000354605F8241F45F80C0C00E0B069807821
:107E6000344610F07F0044F81C0F38D034620CF018
:107E7000E9F9D8E9001211F0F8FC2448012341691E
:107E8000BFF35F8F226802F01F029340204A1268FE
:107E90001A4004D0194002D1032403201AE0BAB1D9
:107EA000F1690122BFF35F8F01F01F0102FA01F1B6
:107EB000C94319F04FFAFCD1BFF35F8F0124D6E913
:107EC0000312706986F8244000F000FD022002E0F1
:107ED000012401202C7086F8284019F0F1B811F027
:107EE00043F90C4805E0084810F095FF11F03CF903
:107EF000094811F099F811F05DF911F0A5F8014861
:107F000010F089FF7C22040028210400949C0220A8
:107F1000107502401B0000001E000000F0B503AF0A
:107F20002DE9C00B804691F8280091460D4650B1CE
:107F300003286BD12E4616F8240FA0B1032871D167
:107F40002C6A206818E095E80700C5E903128178DB
:107F500011F07F0169615CD000212E4606F8241FD4
:107F600046F80C0C00E0A86980782C4610F07F00E1
:107F700044F81C0F46D02C620CF074F9D9E90012B9
:107F800011F073FC2B482C4B4169BFF35F8F2268C3
:107F90001B6802F01F02D340DB071ED082F01002E4
:107FA000D140C90725D0E9690122BFF35F8F01F0F5
:107FB0001F0181F0100102FA01F1C94319F0CAF959
:107FC000FCD1BFF35F8F0120D5E90323696985F8F0
:107FD0002400684600F02CFC05E00120307040F2DF
:107FE0000110ADF80000DDE90001C8E90001012041
:107FF00004E003200221307088F8001085F8280082
:1080000019F0A5B911F0B0F80C4805E0084810F0D7
:1080100002FF11F0A9F80A4811F006F811F0CAF8A9
:1080200011F012F8014810F0F6FE00BF7C220400A7
:1080300038210400949C0220147502401B000000AB
:108040001D000000F0B503AF2DE9000FB3B083466B
:10805000007A0591CDF818B0DFE810F0060027008F
:1080600027001100A101590219F07BF911F07CF8E9
:10807000DFF8D00410F0D8FF11F09CF816E0D946D4
:1080800019F8180FA9F10808DFE800F0030B0F46F4
:108090000600D8F8000012E0CDE90189DBE92C6088
:1080A0006EE0DFF89C0410F0B6FEFEDEDBF80400A4
:1080B000D84648F8100F0021C14609F8081FCBF830
:1080C00014000168C9070ED018F0F6FFB0F50040A3
:1080D00071F10000C0F01781DBF814000021C0E945
:1080E0000011DBF8140086300021012206290CD093
:1080F000435CE44C202B03F01F0328BF04F54074BD
:10810000013102FA03F32360F0E7012018F0D2FDF9
:10811000CBE908018BF8284019F09AF80028CDE93E
:10812000018940F0008111F01FF8DFF81C0410F005
:108130007BFF11F03FF8DBF8141000202C900BF1BE
:108140001C06803108AA00230024062B0FD0CD186E
:10815000062C80F0EA8004EB4404013342F83450EA
:1081600002EBC40420752C9C01342C94EDE708A983
:108170003046942219F091FCDBF8AC00CBE92C607E
:1081800000EB40000022C0004FF0000AB04607900C
:1081900004960798504573D006EB0A05287DC0B1B8
:1081A000032840F0D080A94619F8100FA9F10C015E
:1081B000C8B1032840F0CA80AB461BF80D0FABF1E5
:1081C0000506002854D0032840F0C3802C7B03917F
:1081D00028E056F80A00A94649F8040FCDF80C909B
:1081E00009F80C2F05E008F104000390086808F175
:1081F00010092E4646F8080F06F1050B726001784B
:10820000CE4B202901F01F0103F59F6238BF03F513
:10821000FC7252F82130022464F3114342F82130F9
:1082200004782C73302C80F089800599CB48D1E9F3
:10823000001200EBC40011F018FBC049202C01F51E
:108240009F6038BF01F5FC7004F01F0150F8210059
:1082500010F4403F21D0032008F118088BF80000EB
:108260000AF1180A89F8000000222875049E90E798
:1082700008F10802306808F10D0B03911646BEE7BD
:108280000420DDF818B0DDF8089089F8000003201C
:108290008BF8080033B018F0A8BD05F10C0011F000
:1082A000E5F8012430468BF800400BF03AFB0398C8
:1082B00089F800400BF03CFBDDF818B000212C756C
:1082C000DDF80480DBF814009C4D863006290CD0C4
:1082D000425C4FF44173202A02F01F0238BF04238E
:1082E000013104FA02F2EA50F0E711F0ADF8DBF8E0
:1082F000142000230124C2E902010BF11C00C2E991
:1083000000430BF062FC01208BF8180040460BF094
:10831000BAFCDBF804000BF10C03002200F18C0125
:10832000863007C318E00320AFE700202D958DF8B5
:10833000C8002DA80BF0F6FB10F00EFC864A204674
:1083400030210FF018FC834810F065FD804810F0D4
:1083500062FD7E4810F05FFD884200F0D180411C34
:10836000CBF80C10DBF81410CBF818100131CBF857
:108370001410CBF81C0000787049202800F01F0072
:1083800028BF01F54071012202FA00F000240860C4
:10839000012018F09CFECBE908018BF8284018F06A
:1083A00057FF002840F0BD80DBF804004FF00008C4
:1083B00080300790B8F1060F00F0908007985F4971
:1083C00010F808904FF44270B9F1200F38BF082020
:1083D000DBF81840DBF8045051F800A0062C80F0C0
:1083E000A28011F031F87D23A0FB030201FB0321E1
:1083F000000B40EA0151E86F0A1A10042CD009F072
:108400001F00012304EB440403FA00F010EA0A06FB
:1084100005EB840005EB4404444400EB4800838EE4
:10842000247C18BF0126A6420ED0DDF818B00A2B16
:108430002AD24FF6FF7192B2594091424FF0FF316C
:1084400088BF591C818607E091B25A1E8B4238BF03
:108450000022DDF818B08286DBF81800062865D205
:1084600018F071FE007C48B110F0EEFFDBF804203C
:10847000012313600023C2E90130D16008F1010833
:1084800098E700BF08050050E96700218186DBF806
:10849000180006284DD218F056FE017C81F001012B
:1084A0000174DBF81800062845D200EB4001DBF828
:1084B000042002EB41014144097C41EA082141EAE0
:1084C000004000F0B5FDC0B20228C5D010F04CFE4F
:1084D000264810F0A9FD10F06DFEBDE7DBF81C008A
:1084E0004FF441710078202800F01F0038BF0421AC
:1084F000012202FA00F0114A5050DBE903012BE798
:10850000042018F0D7FBCBE904018BF8184005993B
:108510000BF1100011F01CFA00283FF4C7AD052044
:10852000B6E60420B4E60E4A204600E0104A18F0F1
:10853000E1FE0C4AFBE70C4AF9E700BF08050050D2
:108540001C2204001B0100001D0100002C2304005C
:108550003C2304004C230400C0470400B800022060
:108560002C2204003C2204004C2204001C010000C8
:108570005C220400F0B503AF2DE90007D2E9004A00
:1085800091460D468046264654450BD006F17804A8
:1085900040462946C9F80040C5E9006400F00AF8E1
:1085A0000028F0D0B6EB0A0018BF0120BDE8000794
:1085B000F0BDD4D4F0B503AF2DE9000FADF5137DB8
:1085C000D0E902B30DF1380AD0E9008202930369C1
:1085D000079343698469CDE9050352A804300190EB
:1085E0000991D1E90010CDE903B80A9002F1200009
:1085F00008900A980E4681427AD0099806F10A0539
:10860000444B0560D8F800000138C8F80000DBF8DA
:10861000001008988A1C0BF0F8FC012973D9018816
:1086200050460C9617F060FBA5F10A0051460A224D
:108630000D9518F02FFFDBF8000006990230CBF8FB
:10864000000007980E68006806FB00F5002D5ED05C
:10865000002E55D0DDF808900B94B9F8000004EB1B
:10866000000810F081FD2C4810F0DEFCB9F8000085
:1086700011F0EEFDB8FBF5FB0BFB1584274DB4FBA9
:10868000F6F84046A84708FB16494846A84758460A
:10869000A84710F08FFD8DF84B8151468DF84A9117
:1086A0008DF849B101980CC90CC0098801800720D8
:1086B0008DF8480111A852A912F0ECFD9DF8440074
:1086C000092806D010F050FD154810F0ADFC10F050
:1086D00071FD0598DDF810800B9CDDF80CB00134BD
:1086E0008461D8F80000DDE90C6100287FF481AFD7
:1086F0000A98301A18BF01200DF5137D18F01ABC26
:10870000084810F03AF8094A02200FF0DFFB06484B
:1087100010F033F8143304005E010000D18F030021
:108720005F0100002C5C04001C5C0400483A04005B
:10873000F0B503AF2DE90007DFF84C909A461446D8
:108740000E468046DAE90001884218D000F10A019D
:10875000CAF8001017F042FA3168054640464B4609
:108760008A1C18F0F5F92A460BF010FD3068013C20
:1087700002303060601CE5D10024002000E00120C0
:108780002146BDE80007F0BD24330400F0B503AF77
:108790002DE9000B0646D2E9000990460C464845F3
:1087A0000DD000F178053146C8F80050C6E9000543
:1087B00020460BF059F820B928460C46EFE7002078
:1087C00000E001202146BDE8000BF0BDF0B503AF8D
:1087D0002DE900078046D3E9000A99460E46144663
:1087E000504511D000F1780522463346C9F80050B3
:1087F000C6E90005D8E90001FFF79AFF01280A46FB
:108800002846ECD0002000E001202146BDE800070A
:10881000F0BDD4D4016820293CBF0430704780B536
:108820006F46024A08461F210FF050FB6C220400DD
:10883000F0B503AF4DF804BD88B007293BD8214EF1
:1088400006F58F6454F821509D4202D90121018020
:108850002EE006F5DB6300931B4BB446019303F156
:108860007806079603F16406069603F1500605960E
:1088700003F13C06049603F12806143302936B4679
:10888000039653F821301A600CF584725D60002362
:1088900042F8213001234CF8213052F82130DB0717
:1088A000FBD0002342F8213044F8213045600370AA
:1088B00008B018F0C7BA024A084618F0D0FB00BF4B
:1088C0008C2204002870024014770240F0B503AFF8
:1088D0004DF804BD98B0412A3DD21546044632B148
:1088E000B1F1005F05D34819B0F1405F01D20E46E7
:1088F00004E06E462A46304618F0CCFD1D48109024
:1089000000F18C01179100F17801169100F16401DA
:10891000159100F15001149100F13C01139100F107
:1089200028011430072C129111901DD810A813495A
:10893000002250F824000660456001F5827040F87E
:108940002420012241F8242050F824100029FBD0D3
:1089500018B018F077BA10F007FC054810F064FB67
:1089600010F028FC10F070FB034A204618F077FB4B
:108970001C000000007602409C22040004700240AB
:10898000F0B503AF2DE9800F8146407A0D46DFE850
:1089900010F0050036013F0147002B0099F8081040
:1089A000D9F80400C9F80000DFE801F003BF5665FC
:1089B0005100022180F8B7100021D9F8000080F89A
:1089C000B810D9F8000080F8B910D9F8000080F884
:1089D000B61018F063F9002D00F0B580F4E802013C
:1089E00009698847083DF6E799F81000002840F02B
:1089F00009818C480021C0F80015012089F8100079
:108A0000D9F8000080F8B71018F048F9002D00F0F0
:108A1000E280F4E80201CA6800219047083DF5E7CA
:108A2000C84618F8180FDFE800F003F0F34D060011
:108A3000D9F80C0026E04E4616F8240F002800F066
:108A4000A380032800F0A480734810F0E4F900210B
:108A50007430C9E90301CCE7002180F8B81018F0A0
:108A60001DF9002D00F0B780F4E80201CA69002169
:108A70009047083DF5E70021C84608F8181F7430F4
:108A800048F80C0C67490322C9E9040149F2753121
:108A900065480160C0F814210160026802B90160F4
:108AA000C022426101600121D9F81400C0F800150C
:108AB0004FF48001D9F81400C0F80413D9F8140059
:108AC000C9F81C005948D5E90012383010F0CDFE25
:108AD000D9F81C00D0F80004000501D4032082E07E
:108AE000D9F814004FF40061C0F800144E48016832
:108AF00011B949F275310160002149F275324161C5
:108B00004E4602600260C0F814110260802248489C
:108B10000260D9F81400474AC0F8042306F8241F5D
:108B200056F8140C46F8080C30E0012180F8B81013
:108B300018F0B4F8002D4ED0F4E80201CA69012102
:108B40009047083DF6E7D9F800004FF000080025EF
:108B500000F1100B016A0BEB410AD3453BD08BF8B7
:108B60000080D9F8000000F12404406EC6003EB138
:108B7000F4E8020100224B6A29469847083EF6E7CE
:108B800001350BF1020BE8E7D9F81C00C9F8200009
:108B90002648D5E90012303010F067FED9F82000E1
:108BA00000684178D1B1D9F81410012089F8240067
:108BB000C1F8040589F818000221D9F8000080F8EE
:108BC000B71018F06BF835B1F4E80201CA6801215A
:108BD0009047083DF7E70020012108E0007858B1F0
:108BE00003203070042088F800000120032189F858
:108BF0000910BDE8080FF0BD01203070DAE7084821
:108C000010F009F9034810F006F9044810F003F9D0
:108C1000FEDE00BFDC3A0400B4210400CC3A0400BC
:108C2000BC2304000070024000EC0640949C02202B
:108C300004E100E00100400100207047002070477F
:108C40007047D4D4F0B503AF2DE9000F89B080464A
:108C500091F88500D3E900B99A4615460E460128D9
:108C60001AD10021D6F8EC008DF821104FF4407194
:108C7000CDF81D100B218DF81C0007AA30460623E5
:108C800010F08AFFD6E905100538884280F0E280AE
:108C900031690A5C01320A54D6F8EC40082C80F0A5
:108CA000B98006F1DC00002120F81410D6F8EC1091
:108CB0000131C6F8EC10A14240F2B58000EB44004F
:108CC0004178013141703068002800F0B080706850
:108CD0007169CDF810B0884280F0B2803169B26914
:108CE000CDF80C800B5C8DF81C4001330B54111D2A
:108CF00001200723C6E902010020ADF821004FF44E
:108D00004030CDF81D0007AA3046042110F044FF82
:108D100022204FEA192B8DF82000212158480723E3
:108D2000079030468DF82190CDF804908DF822B050
:108D300007AA10F031FF06F194009AF81290CDF8CE
:108D400008A0BAF8108010F0B9FB00287BD10320EE
:108D5000D7F808A007F8260C41F08000A7F12A01F7
:108D600007F8280C304607F8279C27F82A8C10F0C3
:108D700057FFBAF1000F16D006F1960010F09EFBD7
:108D800000286AD14FF0030A8DF81F908DF820A0BB
:108D90003046ADF81C808DF81E1007A910F040FF7A
:108DA000DDF81C8001E04FF0040A06F1500206F1E4
:108DB000480307CA11F036F82220019AE8764FF4EA
:108DC0008070A5F819003448C5F815000298049B76
:108DD000D0E902012A77C5E90032304A2C7505F145
:108DE0002004C5E9024030462961294685F81DB0B6
:108DF00000F064F8039957F82A0C086037F8260C3D
:108E000081F80AA0C1F80680CC60888009B0BDE86E
:108E1000000FF0BD10F0A8F9154810F005F9082072
:108E200010F0D6F808E0134A20460EF0A4FE10F029
:108E30009BF9114810F0F8F810F0BCF910F004F9A3
:108E40000E4A0EF098FE0F48A7F11D02009018215F
:108E50000D4808E0054A0EF08EFE0D48A7F11D02F0
:108E6000009019210B48094B0FF028FE042704003D
:108E70002900000014270400300000003C490400D1
:108E8000100100013C27040024270400183A0400C4
:108E9000682704004C270400092110016C260400F7
:108EA0007047002101607047002070470020704724
:108EB000022070477047704770477047D0F8D8302D
:108EC000082B3FBF00EBC303C3E92612D0F8D8102C
:108ED00001313CBFC0F8D810704780B56F4610F024
:108EE00043F9054810F0A0F8082010F071F810F0D0
:108EF00061F910F0A9F800BF28000000D0B502AF5A
:108F000086B0044680300122D0E84F3F53B9C0E814
:108F1000432F002BF8D12046802218F08AF82046F3
:108F200006B0D0BD17F01EFF03490091034917F0AA
:108F3000D5FE68460EF0B5FEB42704001C280400D8
:108F4000FEB506AF0121D0E84F2F42B9C0E8421F5D
:108F5000002AF8D10130BFF35F8F06B080BD17F053
:108F600001FF04490091044917F0B8FE68460EF06D
:108F700098FE00BFB42704001C280400D0B502AF3F
:108F800086B0044624300122D0E84F3F53B9C0E8F0
:108F9000432F002BF8D12046242218F04AF820460F
:108FA00006B0D0BD17F0DEFE03490091034917F06B
:108FB00095FE68460EF075FEB42704001C280400D8
:108FC000D0B502AF86B0044600F580700122D0E82B
:108FD0004F3F5BB9C0E8432F002BF8D120464FF438
:108FE000807218F026F8204606B0D0BD17F0BAFE01
:108FF00003490091034917F071FE68460EF051FED7
:10900000B42704001C280400B0B502AF18F0BAF869
:109010000446D5E90021A8680223012A2B6004BF79
:10902000496888472046BDE8B04010F045BFD4D419
:10903000F0B503AF4DF804BD18F0A4F80C4E04468B
:10904000306850B917F085FF002200F015F817F0CE
:109050005DFF28465DF804BBF0BD10F085F80548BB
:109060000FF0E2FF12F0A2F810F0A4F80FF0ECFFFE
:1090700080930220C5000000B0B502AF0C4690F806
:10908000781041B1E1B2C4F30F25022917D0CAB15B
:1090900017F0B9FF16E0416F220C01EB41010144CA
:1090A0008A740C82D0E91C120132B2F1200318BF7D
:1090B00013469942436702D1012180F8781010F0DD
:1090C000CBFB0224E0B240EA0520B0BD80B56F467C
:1090D00009037D2241EA105100037C30002318F07F
:1090E000D1FDBDE8804010F029BCD4D400F01F02AF
:1090F0000123C0B203FA02F2074B29B1202828BF8E
:1091000003F540731A6070474FF44171202838BF4F
:1091100004215A50704700BF08050050F0B503AF56
:109120002DE9000F99B0824691F88C008846D0B1A5
:10913000032840F07881C3461BF8890FABF1650125
:10914000079150B3032840F07181454615F8600F30
:10915000A5F13409002800F01381032840F069814B
:10916000D8F85C4033E108F1140E0392CDF818A052
:1091700043469EE80454C8E91B2A08F17402C8E972
:1091800019CE93E8730073C20020414601F8890F9D
:10919000A1F165000591079006E0CDE905BAD8E98F
:1091A00019CED8F870A003920120444604F8880F25
:1091B00044E919CEA4F1100C14F8145C9CE80910D1
:1091C00054F8046C34F8121C14F813BCDFE805F0F2
:1091D000032C202310000D960AA981E80910012113
:1091E0000120049000268DF839104FF0000B2CE080
:1091F00007250722CDF82300002004928DF839506E
:109200008DF82730ADF821100C90CDE90AC61BE08F
:10921000022302220AE00AA9002649C106200621EB
:1092200004908DF8391010E0032303228DF821B04B
:109230004FF0000B04928DF839300990ADF82210F0
:10924000CDF830B0CDF828B001264FF000098DF8E8
:109250003AB08DF8389018218DF820600FAD17F0D6
:109260008DFE049800218DF83C00681C0122CDE998
:109270000099012503F050FA08A8002E18BF461CDB
:109280009AF80A008DF851009AF80B0010968DF8A4
:109290005200DAF8040011909AF80C008DF8500092
:1092A000BAF80200012898BF2846BAF80010002931
:1092B00008BF0846ADF848009AF80900012888BFA1
:1092C00005469AF80800002808BF05468DF84A5060
:1092D0000021CDE900B90FA81730042203F01CFAD1
:1092E000DDE90A0111F02AFC05460E46DDE90C0114
:1092F00011F024FCDFF84CB11790ADF86010ADF818
:1093000058605846159515A90FAA72DF11F0EAF8B2
:10931000C00702D04C4D0E460BE09AF90D200120FB
:109320009BF8001077DF11F0DDF8C0071BD00E4668
:10933000464DDDF818A0DDF814B00FF015FF2846F3
:109340000FF072FE17F020FE0FF034FF20460AF0F7
:1093500075FC0225079801248BF800400AF042FCB6
:10936000CAE9005650E09BF80000012173DF11F0BC
:10937000B9F8DDF818A0C00706D0354D0E46DAE77B
:10938000D8E90B0103920EE03248C146079A00214A
:10939000703049F82C0FDDF814B04D46C9F80420A0
:1093A00005F8341F1146464646F8341F002106F1E1
:1093B00010023446706244F8041F314641F8182FF9
:1093C000254AC6E9076400F077FA039AB46220469A
:1093D00011460BF08CF910B1032028700EE008F153
:1093E0005800D8E911560AF0AFFC08F138000AF02D
:1093F00021FD0120042D88F860000AD103240420F7
:109400008BF80040CAF8000088F88C4019B017F0BB
:10941000ECBC48460AF04FFC00208DF8200008A85C
:109420000AF00CFC96E706480FF0F5FC03480FF035
:10943000F2FC01480FF0EFFCD02A04009C28040045
:10944000AC280400700002208E0000008F00000095
:1094500090000000949C0220082B0400F0B503AF9C
:109460002DE9000F9FB08B4691F8D0100390D1B139
:10947000032940F0A0815C4614F8B81FA4F15C08F1
:10948000002979D0032940F09C815E4616F8B01F70
:10949000A6F1500A002900F0A380032940F094812E
:1094A000DBF8AC50BDE0DBF80C000BF1BC01009028
:1094B0000BF1C60002920A22DBE90464CBF81860C3
:1094C00017F0E8FF9BF8C8004FF001099BF8CB307C
:1094D0000025BBF8CCA0BBF8C680E188BBF8CEC0A5
:1094E000BBF800E0BBF80820019200225FEAC974D3
:1094F00009D001244FF0000904FA02F21A4218BF01
:1095000015430122F2E700239BF8CA208BF827209D
:1095100000280246ABF824C0ABF822A08BF820004C
:10952000ABF81E80CBF8583018BF0122002DABF8E5
:109530001C2018BF01255FEACE72019A8BF82650D5
:1095400018BF511E0CF101028CB295B2A54207D989
:109550004FF0000A002800F0FD800BF1280CDFE03E
:10956000D846009848F85C0F4446A8F85A10A8F866
:10957000582004F85C3F06E00292BBF8B610BBF836
:10958000B420DBF85C000078142880F01781742385
:109590005843934B1858C3071BD0060CADF8321034
:1095A000ADF830200CA930469EDF10F09BFFC007BD
:1095B0001AD089460FF0D8FD8B480FF035FD48468C
:1095C00010F038FD0FF0F6FD002604254FF0000ADC
:1095D00058E0002600254FF0000A4FF0000951E046
:1095E000DAF80000029209E0304611F03FF9DA465D
:1095F00000214AF8600F564606F8501F00215D46CC
:1096000045F8641F05F14D0105F10C02C5E90F1580
:10961000294641F8382F734A686400F04DF9029AE0
:10962000AD64284611460BF062F810B1032030708B
:1096300015E0DBE91C650BF17C01DBF878900CA8E8
:1096400017F099FC0BF1A8000AF07EFB0BF1640007
:109650000AF0F0FB0120022E8BF8B00005D1039A2E
:1096600003200621207011807CE017A80CA917F0B8
:1096700082FC50460AF08EFBB6FA86F04FEA154A95
:10968000ADB246090120207040460AF028F936B1F3
:1096900004A817A917F06FFC45EA0A4806E0032D55
:1096A00008BFBAF5857F56D14FF00008CDE90C8987
:1096B0000CAC04F1080004A917F05DFC0BF1280CB8
:1096C000221D002100261691884521D014790131F0
:1096D000DBF85800538815880528169162D8002CAD
:1096E00018BF9E46234618BF0123002C43EA0E43B1
:1096F0004CF830300CEBC00018BF2646C6EA0543D4
:1097000006324360DBF858000130CBF85800DBE745
:10971000BBF81C00C0071BD0DBF81860DBF858A0B2
:109720009BF82020B078BBF81E10824204BF30881E
:1097300081421CD0B07905254FF0000A82420AD13F
:10974000B0888142039907D1BBF82400B08103E0BF
:109750004FF0000A05250399C1F804900120A1F8F3
:1097600002A00D808BF8D0001FB017F03EBBBBF8F5
:1097700024004FEACA0330810CF1040042F60215BE
:10978000002BD7D030F8044C012C04BF30F8024C29
:10979000AC4204D10478012C04BF44887481083B96
:1097A0000830EDE70FF0E0FC10480FF03DFC0FF043
:1097B00001FD0FF049FC08480FF02DFB074A17F098
:1097C00011FB04480FF027FB01480FF024FB00BFFA
:1097D000D02A0400EC280400BC280400404E0400F9
:1097E000C4020220F42A04009A0000009D00000038
:1097F00080B56F460FF0B8FC03480FF015FC0FF072
:10980000D9FC0FF021FC00BF84000000F0B503AFCD
:109810002DE9F00BA7F11D058046284610F0FEFF4C
:109820001A4C0026284607210122CDE900664FF098
:109830000109A04703200421CDE9000628460322A0
:10984000A047284601210122CDE90066A04728460D
:1098500000210122CDE90096A047EE1C304602F01F
:1098600051FF304602F044FF0435284602F04AFF1B
:10987000284602F03DFF17F8190C88F8040057F845
:109880001D0CC8F80000BDE80F0BF0BD19C70200A1
:1098900080B56F460FF068FC03480FF0C5FB0FF072
:1098A00089FC0FF0D1FB00BF850000000021018082
:1098B000704700207047D4D4B0B502AF86B00D46D3
:1098C0000F490968C9050BD11049144615F00EFD62
:1098D00002685AB9C0E9005417F061FD06B0B0BD86
:1098E00017F0C8FB07490091074904E017F0C2FBD5
:1098F00007490091074917F0F1F968460EF0D1F9D0
:1099000004ED00E0404B0400B84B0400D8290400EB
:10991000102A0400182A0400F0B503AF4DF804BD66
:10992000144612682AB30A880025112A10D03B2A4F
:109930000CD0382A1BD1C9880A04002918BF511C31
:10994000CA0707D0090C0023022204E0012202E02A
:10995000002200E00422D0E9016042EA01421B0437
:1099600043EA1141C6E90021FFF74EFB256017F0DD
:1099700069BA02482821024A0EF0C7FA742A040084
:109980009C2A0400F0B503AF2DE9FF0B0D461168CA
:10999000002900F023812988112906D18068144606
:1099A000FFF732FB0020206038E00468A88810F040
:1099B0005DFEC00700F017812888884639282AD123
:1099C000287B03281DD22268698912898A4222D104
:1099D000C00720D005F11006ED89082D21D2002006
:1099E000914BCDE9060006A92846082215F060FB38
:1099F0008E4A2B460092324617F034F9DDE9060113
:109A000013E00FF0B1FB86480FF00EFB287B10F03F
:109A100083FC0FF0CFFB404610F0B0FD08B017F00C
:109A20002DBB40F0EB803068716865680022CDE99D
:109A3000020102A901F10800059000260020052E70
:109A400010D08C57334604F07F06964007323043DF
:109A50005E1C002CF3D4042B3144049156D1E1B2A6
:109A60000F2953D940F2025606F47F40861CF4B207
:109A7000022C0DD10FF078FB72480FF0D5FA724826
:109A80000FF0B4FA714946F3072017F0CCF9C0E79C
:109A90002868056810F0ECF981462868002840F035
:109AA000B5804FF0FF30286095F83C0008B10020E9
:109AB00017E0A96B281D05EB81014E61D5E90D1258
:109AC0000132B2F1080318BF1346AB63994204BFD9
:109AD000012185F83C100FF0BFFE28680226022401
:109AE0000130286017F0E1FB022C94D00FF03CFB12
:109AF00050480FF099FA50480FF078FA4F480FF09D
:109B000075FA350AE00712D0012019E001281DD0AE
:109B100060BB0320079004A8069006A80AF020FB6B
:109B2000C1B2C0F30726022923D1022036E017F084
:109B30002BFC43480FF05AFA300C0FF06CFA300E41
:109B40000FF069FA28460FF064FA62E704A80AF0F9
:109B5000D8FC10F0010008BF01F00101C8B24FF0BD
:109B6000010118BF022141EA002625E040F6026605
:109B70007AE7C00710D006A80AF0F2FAC1B2C0F323
:109B80000724022903D102200022264607E0C0074D
:109B90001CBF0798002814D102200E260022F1B223
:109BA0000346022808BF0B464FEA012141EA024161
:109BB00018BF080240EA0326F0B202283FF454AF6F
:109BC00055E706980AF09DFCC00703D0022000224A
:109BD0000E46E4E701F001002246E0E71C48282198
:109BE0001C4A0EF092F90FF0BFFA0C480FF01CFA65
:109BF0000FF084FE0FF0DEFA0FF026FA0FF0B4FA41
:109C000008480FF011FA12F027FCF3E70FF0ACFA56
:109C100007480FF009FA11F0C9FAEBE7A5000000B8
:109C2000A6000000CE000000A0560400B0560400BC
:109C3000C500000025010000CD0000002801000043
:109C40000501000026010000C4000000306404008B
:109C5000742A04009C2A0400F0B503AF2DE9000F1C
:109C600095B00C461168002900F0A48121881129C3
:109C700006D180681546FFF7C7F9002028604DE13E
:109C8000A688D0F80080304610F0F0FCC00700F045
:109C9000968120880D4607F8591C502831D051284C
:109CA00016D0522840F03681304610F0DFFCC00755
:109CB00000F0308108460C468DF8381010F06CFD2D
:109CC000002843D0CA6B0EA990479DF838404FE05A
:109CD000A079022840F08381A07B11F0D5F8C0B2B2
:109CE000002840F089810FF03FFACD480FF09CF931
:109CF000A07B10F011FB0FF05DFA28460AF0A2F8E5
:109D00000CE1207B11F0C0F8C0B270B1D8F800901F
:109D100004F112000490B4F806A0B4F810B0B9F839
:109D2000140050450CD1002432E00FF01DFACE484B
:109D30000FF07AF9207B10F0EFFA0FF03BFAE9E030
:109D4000B9F81E00504517D1012421E0204600211A
:109D500011F004F902280BD0054617F0E5F8C348C6
:109D60000FF062F92846314612F0D8FB0FF022FAC4
:109D7000204610F003FCCDE0B9F82400504501D195
:109D8000022405E0B9F82A00504540F0CA800324B7
:109D90000FF0EAF9AB480FF047F9AB480FF026F99E
:109DA000AA4850F8240000780FF035F9504610F01A
:109DB0004FFA049859460FF019FB0FF0FBF916F013
:109DC000B9FFB9F80A0050451CD1BBF1000F19D0FA
:109DD000049C94F800800FF0C7F99D480FF024F917
:109DE000504610F035FA204659460FF0FFFA9948D0
:109DF0000FF0FCF808F001000FF00BF90FF0DAF9A2
:109E000016F098FFB9F83010514510D10FF0ACF9A9
:109E100094480FF009F9504610F01AFA0498594680
:109E20000FF0E4FA0FF0C6F916F084FF72E0B9F80B
:109E3000340050456ED1CDF80C90DFF81C92884C60
:109E40008DE8020C0EAD13AE4FF0000A4FF0000B80
:109E5000BBF1030F57D006A8049917F08CF810F047
:109E600007F88046D9F80000002840F0B0804FF095
:109E7000FF30C9F8000099F89C0018B34046C9F8B3
:109E800000A010F019F84FF4247017F020F9CDE974
:109E90000E0172488DF840A0CDF850A013902846CE
:109EA00031460FF055FD0028F9D1DDE91310C968DE
:109EB00088470FF059F917F0F9F80BF1010B0FF083
:109EC00079F9C5E7D9F8980006A9202209EB4010D6
:109ED000143017F0DFFAD9E9250101310A1F18BF44
:109EE0000A46C9F89820904204BF012089F89C00D6
:109EF00009F104000FF0B0FCD9F800000130C9F8F6
:109F0000000016F0E5FFDDE9000A5045DDE902B981
:109F10003FF47CAF17F8590C10F030FB15B016F079
:109F200064BFB9F8180050457FF44BAFBBF1000F88
:109F30006ED0049804780FF017F93C480FF074F8CD
:109F4000DFF8EC8003260294204615F08DF80FF020
:109F500031F9002E3FF435AF5D460396CB460FF046
:109F600087FF0646D8F8200088BB4FF0FF300299E3
:109F7000C8F8200008F12400002211F029F98146D8
:109F8000D8F820000C460130C8F8200030460FF009
:109F900093FF039E5FEAC970D946AB463FF411AF09
:109FA0000FF0E2F824480FF03FF824480FF01EF8B5
:109FB000013EC9E72E4828212E4A0DF0A6FF0FF0DA
:109FC000D3F815480FF030F80FF098FC1CE00FF0B4
:109FD000CBF818480FF028F811F0E8F814E0012841
:109FE00006D1284609F08CFF0FF0BEF80D4809E0B5
:109FF0000FF0BAF80C4805E0284609F00EFD0FF006
:10A00000B3F806480FF010F80FF0D4F80FF01CF872
:10A010000B4A17F06CF800BFAC000000AA0000006B
:10A02000AF000000A9000000B0000000E300000045
:10A03000109D0220C5000000E4000000CD000000DB
:10A0400098590400EB000000E50000007064040073
:10A05000EC0000000B000000D48E022078510400B8
:10A06000EF000000ED000000AE000000AD000000B9
:10A07000742A04009C2A0400F0B503AF2DE9F00B0C
:10A080000D88904606688146112D12D0302D3FD1A3
:10A09000C8880C460104002818BF481CC1070DD011
:10A0A000002140F00300CDF802000120CDF8061099
:10A0B0001DE00020ADF80200012018E034F80A0F7E
:10A0C00090B1A51C012809D00FF04EF816480EF0EB
:10A0D000ABFF208810F0BCF80FF06CF869682868B6
:10A0E000CDE90001002002E00120ADF8020026F8D1
:10A0F000020B69460A22304617F0CCF9D9F808005D
:10A10000FEF782FF0020C8F80000BDE80F0BF0BD8D
:10A110000FF02AF805480EF087FF28460FF05EFF83
:10A120000FF048F80EF090FF950000009600000038
:10A13000F0B503AF4DF804BD14460D880268002643
:10A14000112D0CD03A2D28D1CB881D04002B18BF1F
:10A150006B1CDD0705D0190C002301250FE000253D
:10A160000DE043681B681B78142B22D2DFF850C027
:10A170007425498913FB05C30325A3F8641080687F
:10A1800045EA01451B0443EA1141C2E90051FEF7CB
:10A190003BFF26605DF804BBF0BD0EF0E5FF09480B
:10A1A0000EF042FF28460FF019FF0FF003F80EF0F3
:10A1B0004BFF024A184616F015FE00BF404E040041
:10A1C000C4020220A4000000F0B503AF2DE9FF0B8C
:10A1D00017F09BF803D01B2E37D1032024E0C87B57
:10A1E0000C468E8810F0A6FBD4F80B20014607F829
:10A1F000280CA06847F8242C47F8270CA7F12A0060
:10A20000D4E90434C21C304627F82A6C47F81C4CA9
:10A2100047F8203CCDE9003410F062FAC00704D0C2
:10A220001421304676DF052000E00820C9B2002462
:10A2300040EA0140C9E90004A868FEF7E5FEC8F855
:10A24000004008B0BDE8000BF0BD0EF08DFF0548E2
:10A250000EF0EAFE30460FF0C1FE0EF0ABFF0EF03E
:10A26000F3FE00BF89000000F0B503AF2DE9000741
:10A2700092B00E889146046882464FF00008112E75
:10A280000DD0332E51D1C8880204002818BF501CAD
:10A29000C20707D0000C0022012103262EE0012175
:10A2A00000262BE031F80A6F00200890062E45D8D2
:10A2B0000DF1200C06EB46030CF1040202315B00A9
:10A2C000002673B106EB46060868063B42F8160006
:10A2D00002EB46008E88063186800898461C089658
:10A2E000EFE70CF1080168462022DDE9086517F068
:10A2F000D1F8300C2A0C40EA05400021C6EA0043A0
:10A30000120442EA1040A06004F10C00C4E90013FA
:10A31000694616F030FEDAF80800FEF775FEC9F857
:10A32000008012B0BDE80007F0BD0EF01DFF0A4826
:10A330000EF07AFE30460FF051FE07E00EF014FFEB
:10A3400004480EF071FE30460EF042FE0EF032FF71
:10A350000EF07AFE9B0000009C000000F0B503AFF9
:10A360002DE9000F9FB00C889046056882464FF09B
:10A370000009112C0DD0322C4FD1C88802040028BE
:10A3800018BF501CC20707D0000C00220121032473
:10A390002CE00121002429E031F80A4F00200E9022
:10A3A000062C42D80EA88E1C00F1040B04EB84008E
:10A3B000440000206CB100EB800031460A220BEB18
:10A3C000400017F067F80E980A3C0A3601300E90EC
:10A3D000F0E7DDE90E460EA800F10801684616F028
:10A3E000C8FE200C320C40EA06400021C4EA0043BB
:10A3F000120442EA1040A86005F10C00C5E9001300
:10A40000694616F0B6FEDAF80800FEF7FDFDC8F85A
:10A4100000901FB0BDE8000FF0BD0EF0A5FE09488A
:10A420000EF002FE16F07EFF06E00EF09DFE0448E0
:10A430000EF0FAFD16F079FF0EF0BCFE0EF004FEF1
:10A440009800000099000000F0B503AF2DE9FE0F61
:10A4500016F05BFF10D000201B2E38D0262E41D0E6
:10A460000EF082FE29480EF0DFFD30460FF0B6FDFB
:10A470000EF0A0FE0EF0E8FDC87B0C46D5F804A057
:10A480008E8810F057FAD4F80B20014607F82C0CF0
:10A49000A06847F8282C47F82B0CDAF80000D4E91C
:10A4A0000434D0E900BAA7F12E00C21C304627F8C8
:10A4B0002E6C47F8204C47F8243CCDE9003410F0CE
:10A4C0000FF9C00704D03046142176DF012009E0DF
:10A4D000C8B2142813D20C4A742310FB0320C0E91D
:10A4E00003BA0320C9B2C9E90001A868FEF78CFDD0
:10A4F0000020C8F8000007B0BDE8000FF0BD014A19
:10A5000016F070FC404E0400C402022092000000CD
:10A5100080B56F460EF028FE03480EF085FD0EF064
:10A5200049FE0EF091FD00BFCB000000FEB506AF66
:10A530000649CDE90010002104916946CDE90211D8
:10A54000203002A90BF04CFA06B080BD2C47040065
:10A550000022416102777047F8B504AF83460FF0DF
:10A5600087FC7C4C06462568F5B97B494FF4004CC6
:10A5700042F6382501F5004051F80C20002A08BFAA
:10A580000A4612F0070318BFC3F108031D44801ADE
:10A59000854200F2D8805019D51841F80C0042F6D7
:10A5A000382116F08CFE256030460FF085FC002324
:10A5B00042F6382040F20111834200F0B980EE18D3
:10A5C0001A1806F1080353E8004F24B943E80014B1
:10A5D000002CF8D103E0BFF32F8F1346ECE75F4860
:10A5E000706106F120005946FFF7B2FF5846314628
:10A5F0000EF0B9FE4FF0FF384FF000094FF0010A9E
:10A600000BF108000190CDF800B09BF80C005A4601
:10A6100053490EF0BDFF0EF017FFDDF804B00646FB
:10A620000D46DBF800402CB3D4E90001301A75EB7D
:10A6300001001CD304F1080050E8001FCA050ED425
:10A64000CA070CD041F4807140E80012002AF3D10F
:10A650002069791E029402AA0EF066FE01E0BFF3A3
:10A660002F8FA069CBF8000084F80A90D9E704F195
:10A67000180BD6E7BFF35F8FDDF800B05BE8006F23
:10A680004BE800900028F9D1BFF35F8F16B3354631
:10A69000C6E90088F668287A85F809900028F5D080
:10A6A000696928468847D5E9000181EA080180EAFE
:10A6B00008000843EAD005F10A00D0E84F1FC0E8BF
:10A6C00042AF002AF9D10029E0D101990868A861B8
:10A6D0000D60DBE74FF0FF324FF0FF33DDF804C0D1
:10A6E000DCF80010D9B1D1E9004585EA080684EA12
:10A6F00008003043161B73EB05064FF0000638BF09
:10A700000126002E04BF2B46224628B98869CCF8C2
:10A71000000081F80A90E3E701F1180CE0E79BF8EC
:10A720000C000EF04BFF00283FF475AF20BF6CE724
:10A730000EF01AFD0B480EF077FC09F0CDFC0EF080
:10A7400039FD0EF081FC0EF00FFD07480EF06CFC99
:10A75000F5E700BF74000220D00E02202DA50200F4
:10A760008993030019000000CC000000F0B503AF8E
:10A770002DE90007804691F844000D46DFE800F01F
:10A7800003787B1F4E002A6905F12406A968D5E9E4
:10A79000009001EB0234C5E9059030462021C5E95F
:10A7A000072417F028F9354A3046012109F05FFCEB
:10A7B0000022C5E9129085F85820C5E9141405F166
:10A7C00048000AF069F92E46552116F8240F4FF07B
:10A7D00000092B4A01EA5001401A332101EA900195
:10A7E00000F03300084400EB101000F00F000528C3
:10A7F0004FF0000038BF012085F8480030460121A5
:10A8000056F810AC56F8044C09F031FC04F6FF720F
:10A8100086F83890C6E90AA0C6E90C1205F14C008A
:10A820000AF03AF995F82400552195F8482001EAF4
:10A830005001401A332101EA900100F0330008442E
:10A8400000EB101000F00F0122B10020042988BF96
:10A85000012002E0042902D902200B2100E0062198
:10A86000C0B2012285F84420C8E9001016F07EBC71
:10A8700001480EF0D0FAFEDE2C2C04001C2C040043
:10A880003C2C0400F0B503AF2DE9C007814691F8D8
:10A89000A9000C4620B103283DD033480EF0BBFA86
:10A8A000D4E918364FF0010E94F8AA504FF0000882
:10A8B00084F8A850F51A84F894E040F6FF7CD4F8A8
:10A8C00070A0D4E92802C4E91A3638BF45462E0BD9
:10A8D0002905C4F8806004F1740181E8050418BFFB
:10A8E0000EEB1536C4E92183C4E9236C04F17C0026
:10A8F000FBF744FC002220B304F1A800D4E91D3585
:10A9000084F84420C4E92610D4E91A02C4E90035C9
:10A91000C4E90202216168462146FFF727FF00983B
:10A920000C2811D0DDE900100B2912D1D4F89C10AD
:10A93000C0B209788142D9D1D4F89800012100220F
:10A9400008E00021002005E00220C9F800000320F3
:10A9500005E00122C9F808000120C9E9002184F8B6
:10A96000A900BDE80C07F0BD4C2C0400F0B503AF06
:10A970002DE9C00B804691F828000C469146DFE88F
:10A9800000F0035E61103A00002004F12C0684F808
:10A99000700094E82F00C4E908152FC604F11406CE
:10A9A0000DC604F12C0568462946FFF7DFFE009826
:10A9B0000C2803D116F056FB03203CE0DDE900062D
:10A9C0000B282ED1F0B22E70022828D104F14805B0
:10A9D000012084F82D00202116F0D0FA636A0020AF
:10A9E000D4E9051284F84400042002EB0332C4E9E0
:10A9F0000C15C4E90E0204F13000494609F0D6FFF7
:10AA0000C6B2042E03D116F02DFB042013E094F8F7
:10AA1000440008F0D3FF032E05D194F82D600B20DD
:10AA200003E0310A01E000210420F2B242EA0121F0
:10AA3000C8E90001012084F8280016F088BC02480B
:10AA40000EF0E9F9FEDE00BF5C2C0400F0B503AFA8
:10AA50002DE9000FCFB0814691F851008B4690460A
:10AA6000DFE810F006007201A00127005A00810003
:10AA7000DBE9001C0020DBF84860DBE90C35DBF883
:10AA80004C208BF850008BF8BC00DBF84400CBF86E
:10AA90003800CBF83C60CBE9021CCBE90435CBE9AC
:10AAA0001506CBE91735CBE91921CBF86CC0CBF8EB
:10AAB00040200DF1080A0BF15401504601F0EEF868
:10AAC0000698042804D10A2089F80000032098E0A1
:10AAD00001200BF1180C8BF850009AE87D006146BC
:10AAE0007DC1DBF82820032A04BFDCF8000006281B
:10AAF00004D0DBE906A3DBF82C0044E00BF10803EB
:10AB00000020DBE90E548BF898000FCBCBE91554ED
:10AB1000CBE91723CBE919010BF1540508A84246EC
:10AB2000294600F003FA08980C2804D10A2089F875
:10AB30000000042065E02846DDE908A608F0A0FF33
:10AB40000020BAF10B0F41D10BF138060BF10803CD
:10AB50008BF8BC0070CE0FCBCBE915450BF15C0434
:10AB60004CC4CBE91A010BF1540108A801F096F886
:10AB70000C9A042A04D10A2089F80000052040E03C
:10AB8000DDE908A30D980021022A8BF8501005D0AA
:10AB9000032A05D1180CC3EA004619E0082018E082
:10ABA000DBF814109BB21AB99942C0F0D780042088
:10ABB0008142C0F0CC801E1A091A8E4200F2CA806F
:10ABC000834223D14FF0020A002601E08BF85000A7
:10ABD000092089F8000009F11000A9F8028089F81D
:10ABE0000150C9E901A6C9F80C404CA90CC90CC018
:10ABF000EA220988018009F11A000EA916F04AFC20
:10AC000001208BF851004FB016F0EFB8DBF81010B0
:10AC10000D182878062808D8DFE800F03104043A37
:10AC2000224465004FF0030ACEE7EF2861D1782E69
:10AC300040F298802E46D5F801A0D5F8055006F1CF
:10AC40000D01D6F8094049A816F077FB06F1170167
:10AC50000EA8622216F01EFCAE46290A06200DE060
:10AC6000012E00F08280052E40F28980D5F8020086
:10AC7000002195F801E090FA80FA012057E0012EBA
:10AC800075D06878451E18BF0125002100204EE0D0
:10AC9000022E6FD9B5F80100002100BA4FEA104822
:10ACA000022044E0022E67D9B5F801000DF120081A
:10ACB00000BA010C404615F017F8032E64D0042E9C
:10ACC00066D0052E69D9EC784FF0000C95F804E0B9
:10ACD00095F805A049A8B8E8060006C0B8F8001025
:10ACE0000180032025E0B6F5807F06D84FF0010AE9
:10ACF0006AE74FF0030A01266AE72E46D5F804A05A
:10AD0000B06806F11001EC680A22B5F802806D788F
:10AD1000019049A816F0BEFB06F11A010EA8E72221
:10AD200016F0B8FBDDF804E004204FEA1E214FEADC
:10AD3000012C49AA4CAB42CA42C3118819805FFA60
:10AD40008EF14CEA010644E717480EF064F8214AF8
:10AD50000CF0F2FE1E4A30460DF0B8F81E4A1846B6
:10AD60000DF0B4F8114A79200BE0164A00E0174ABA
:10AD700016F0B9F9144A00E0104A032001E0104A25
:10AD8000062031460DF0A2F80B4A032016F0A4FA73
:10AD9000084A042004210CF0EEFE054A0520052196
:10ADA0000CF0E9FEFEDE00BF7C2C04005C5B0400BE
:10ADB0004C5B04003C5B04002C5B04001C5B040047
:10ADC0000C5B0400FC5A0400EC5A0400DC5A04003A
:10ADD000AC2C04009C2C04008C2C0400F0B503AFB8
:10ADE0002DE9C007804691F849000C469146DFE8FE
:10ADF00000F0039598234C740020E66B84F848001B
:10AE000084F8B5004848A067A06BD4E900C2D4E933
:10AE10000835216CA062C4E92A06606CE662C4E9C8
:10AE200002C2C4E904352163C4F8B0106067C4E904
:10AE30001B35C4E913C2606304F14C0568464A46F9
:10AE4000294600F04DFB00980C2803D116F00AF9B2
:10AE500003205EE0DDE90001C4E90601012084F879
:10AE60004800284608F040FEA069062849D104F1B0
:10AE700008030020D4E90A6584F890000FCBC4E9E8
:10AE80001365C4E91523C4E9170104F14C056846AC
:10AE90004A46294600F04AF800980C2803D116F0DB
:10AEA000E1F8042035E02846DDE9006A08F0E8FD15
:10AEB0000B2E28D104F1280504F1A80600202ECD80
:10AEC00084F8B5000EC604F1080617484ECEC4E952
:10AED0001B36C4E91D50C4E9131204F14C05684641
:10AEE0004A46294600F0FCFA00980C2803D116F0D7
:10AEF000B9F805200DE02846DDE9006A08F0F4FD08
:10AF000001E0D4E9066A0020C8E9006A84F8480034
:10AF1000012084F84900BDE80C07F0BD01480DF0A0
:10AF20007AFFFEDECC2C0400BC2C0400F0B503AF8D
:10AF30002DE9F80F824691F844000C469146DFE86F
:10AF400010F009004D0053002300B700E90006018E
:10AF500025014D01CDF804A0A246D4F800E04AF83E
:10AF600048EFAAF144065AE90E23D3460AF1040039
:10AF700062CE4AE9085600250BF8405F0EC04AE948
:10AF80000CE24AE90A310FE0A346CDF804A01BF811
:10AF9000880FABF1400ADFE800F00324273C56009D
:10AFA000D4E912E1D4E9142340F6FF764FF0010C06
:10AFB000E66700269D1A84F880C038BF3546280B06
:10AFC000C4E918312905C4E916E2C4E91A60C4E9E4
:10AFD0001C6218BF0CEB1530A06706E090480DF01E
:10AFE0001AFF8E480DF017FFFEDE04F16800FBF734
:10AFF000C5F8002840D004F15805002084F8D0009E
:10B000002DCDC4F88410C4E92305C4E92523C4F870
:10B010009C1004F18C0102A8FFF7A8FB02980628F7
:10B0200003D00C28E1D1032058E004F1580500209A
:10B0300084F8CC002ECDD4F88400C4E92315C4E9EB
:10B040002523C4F89C0004F18C0502A84A46294631
:10B0500001F00EFB02980C283FD02846DDE902865D
:10B0600008F0BCFCB8F10B0FBFD00120B8F10C0FF9
:10B070008BF8000005D133E001204FF00B088BF86E
:10B080000000504608F0DCFCDDF804A0B8F10B0F1E
:10B0900040F0BC804FF4807004F11803A4F8F10074
:10B0A0000020C4F8B8000FCBC4E93A03C4E92A125F
:10B0B00004F1480102A8FFF7E5FB0298022803D13A
:10B0C00016F065F90420A4E0DDE90386C0070BD083
:10B0D0000120A663C4E90C0898E004208BF8000066
:10B0E00016F059F9032094E00025A6635FEAC870C2
:10B0F000C4E90C5800F08880D4E907013246E663C1
:10B1000001F0A4FA84F88C5004F1180520642ECDC7
:10B1100015F025FF04F1480102A8FFF727FB02986C
:10B120000C2803D116F033F9052072E0DDE9028620
:10B13000B8F10B0F6AD1F0B2022865D004F11805FE
:10B14000002084F888002ECDE06B15F008FF04F194
:10B15000480502A84A46294601F08AFA02980C28B6
:10B1600003D116F014F9062053E02846DDE90286E3
:10B1700008F034FCB8F10B0F48D104F11805002099
:10B1800084F870002ECDE06B15F0E9FE04F148055F
:10B1900002A84A462946FFF7E9FB02980C2803D18A
:10B1A00016F0F5F8072034E02846DDE9028608F0BD
:10B1B0003EFCB8F10B0F29D104F11806002084F8E9
:10B1C000C8006CCED4E90A01D4E90FCEC4E9122636
:10B1D00004F15002A2E82B40C4F864C004F1480511
:10B1E00002A84A46294600F01DF802980C2803D10F
:10B1F00016F0CDF808200CE02846DDE9028608F0BC
:10B2000056FCB8F10B0F01D14FF00B08CAE90086CC
:10B21000012084F8440005B015F0E7BD6C2C040053
:10B22000DC2C0400F0B503AF2DE9000F8FB00190C6
:10B230000C4691F8800093460292DFE810F0070078
:10B2400038003B004900980022002601D4E903851C
:10B25000E269D4E905A1281D05EB013300EB0136B5
:10B2600000EB023003F6FC7394E8005204F128026C
:10B27000C4E91063C4E9089582E80054C4E90D816B
:10B2800019E094F82C0104F1840A04F5967528B1AC
:10B29000032800F0B7808F480DF0BDFDCDE9035ABB
:10B2A000D4E9216BD4E923A5D4E9259894E08A4810
:10B2B0000DF0B1FDFEDEE0630020D4E90C1284F84D
:10B2C000A40004F14003206AC4E92312C4E9213038
:10B2D00008AD04F18401284601F092F8DDF820C0A1
:10B2E000BCF1020F00F0B58005F10C02DDE9099810
:10B2F00005A992E861000B4661C35FEACC70C4E91E
:10B30000139840F0B08091E82C0004F154002CC058
:10B310000020B9F1000FA06400F0AB80204640F897
:10B32000609FA0F11002031D50F804CC92E8620067
:10B3300062C3C0F810C015F037FC4FF000090429B3
:10B34000C0F0BC800068214641F8740F51E9052027
:10B3500051E9153C51E9136581F87890C1E9012064
:10B36000C1E90435C1E90620C1E9081C8E6204F177
:10B37000840608A8314600F091FC0C98042864D09B
:10B38000022873D0DDE90898032800F09980DDE9F0
:10B390000A05D4E91E12514B0FF0B8FB04F5987260
:10B3A000A4F83C8182E80302206F854284D1D4F85E
:10B3B0003C800020D4E908B5D4E90A9A049604F543
:10B3C000987684F82C0104F59670C4E9216BC4E9E1
:10B3D00023A5C4E925980390304615F0E5FB00222B
:10B3E000C4E927BA84F8E02006F10802C4E929205C
:10B3F00004F1AC0080E82202DDF810A0DDE902B51E
:10B40000C4F8B88004F19C0608A85A46314600F0FA
:10B4100013FF08980C2820D03046DDE9089808F082
:10B420001FFB0120B9F10C0F287018D0504608F00E
:10B43000F6FAB9F10B0F43D1B4F83C11E06B0331CC
:10B4400021F003010844083035E715F0A4FF04207B
:10B450003AE015F0A0FF032036E00320287015F035
:10B460009AFF052030E00120A06429E04FF0060992
:10B4700023E004F1200584F8C400A06B2ECDC4E9BC
:10B480002115C4E92323C4F8940004F1840608A814
:10B490005A46314601F0ECF808980C2803D115F013
:10B4A0007AFF062010E03046DDE9089808F096FAA9
:10B4B000B9F10B0F04D14FF00B0901E04FF0040874
:10B4C0000198C0E90098012084F880000FB015F0C1
:10B4D0008CBC00BF902E0400EC2C0400946304008C
:10B4E000F0B503AF2DE9000FB9B00490884691F88C
:10B4F000690093460592DFE810F00E00D100EB00E2
:10B5000015013D0148003B005D00E60202032103F6
:10B510004503B701D30108F15C04D8E9000108F143
:10B52000200E08F130091CCC9EE86050A9E81C00F0
:10B5300008F1080282E8635002466FF31F32002AC6
:10B54000069240F0AF800A466FF31F320792002A3E
:10B5500040F0AE800A1A4FF00009B9EB523F40F0BC
:10B56000B880DFF824075121DFF820270CF0CDFC4C
:10B5700098F8200108F16C0A08F5907458B3032874
:10B5800053D0DFF8EC060DF046FC444614F8F80FF3
:10B59000002869D0032840F09380C2461AF8F40FBF
:10B5A000002800F07880032800F0B481DFF8C4069A
:10B5B0000DF031FC444614F8940FA4F1280ADFE89A
:10B5C00010F005008300870002022F02D8E91CB5A5
:10B5D000D8E91E69E6E1D8F87000A146D8E91DB6A1
:10B5E000D8F884500190D8F87C000390D8F88000F7
:10B5F000029058463146D8F86C4015F003FB41469E
:10B6000041F8880F002001F10C0281F84C000198EC
:10B610008C604C4682E80308DDF814B00398C861DA
:10B6200002988E808E61C1E9080508F190052EA868
:10B630005A46294600F000FE2E980C2806D104999F
:10B64000032020700C2008600620B8E22846DDE9BF
:10B650002EB908F005FABBF10B0F0CD1B8F88C909D
:10B660000025D8F8886009E0D8F86C00D8E91FC335
:10B67000D8F88410DBE04FEA19455E4601202070BF
:10B68000504608F0E5F9BBF10B0F01D10B2692E211
:10B69000C9EA05458FE2D8E92620D4E0DFF8DC05C9
:10B6A0000DF0B9FB0020DFF8D825089006A804E0CB
:10B6B0000020DFF8D025089007A808A908F0FEFCB4
:10B6C000DFF8B4050DF0A7FBDFF8A0050DF0A3FB34
:10B6D000FEDE081AC8F83C904FF0000538BF284637
:10B6E000040B01212646020518BF01EB1036AE42BD
:10B6F00006D0002021462A4600F09AFF0135F6E7E1
:10B70000B14500F0DC804FF48070D8E90C23A8F834
:10B7100015010020C8F8DC00D8E90201C8E943237C
:10B72000C8E9330108F16C0108A8FFF7ABF80898E5
:10B73000022800F0CA80DDE90965C00740F0D0802A
:10B740000024C8F84850F007C8E910467ED0D8E970
:10B75000026A2A465146C8F84C50D8E90C9B30463C
:10B7600000F074FF88F8B040C8E91B9BC8E91D6A67
:10B77000C8F87C0008F16C0108A8FEF7F7FF0898EC
:10B780000C2800F09E80DDE908650B2E40F0138246
:10B79000E8B2022840F00E82D8F81420042AC0F043
:10B7A000A580D8F810100420DFF8E434D8F84C4015
:10B7B000D8F808A0D8F838500FF0A8F9042940F0BC
:10B7C000988029680160D8F81410032940F2968007
:10B7D000D8E906520B1FD8F81000D668021D08A839
:10B7E0002946B047DDE90865042E40F0E481291DB3
:10B7F0000020C8F85010B0EB114F5ED1B1F57F6F4B
:10B800005BD80AEB0430444600F6FC7300F1040CEC
:10B81000002004F8F80F54E9320554E93C2644E9C5
:10B820002305A4F1840585E8441044E91E3142460D
:10B8300042F890CF42E9023100219246C2E901323A
:10B84000D0600AF8641FC8E928205BE04FF400705C
:10B85000D8E90C23A8F81501D8E90201C8F8DC40A2
:10B86000C8E94323C8E9330108F16C0108A8FFF7D0
:10B8700009F8089802282CD0DDE90965C00740F0D6
:10B880009A81F00700F096810020D8E90C2388F80F
:10B890009400D8E90201C8E91B2308F1740223C20D
:10B8A00008F16C0A08A85A465146FFF75FF8089855
:10B8B0000C2811D015F0B8FC73E10A267BE10526AF
:10B8C00079E115F090FB042079E115F08CFB032061
:10B8D00075E115F088FB72E115F085FB0D206EE136
:10B8E0000120C8F84850C8E9100664E10425002684
:10B8F00061E1E74A084604210DF047FAE64A0420D0
:10B900000CF01AF90023D2E9001288F8F03008F19F
:10B91000A80307C308F1A80108A800F0B1FB089824
:10B92000032800F0558178B10A9D012840F09480E9
:10B93000D8F8A010032010FA85F020F003000A6860
:10B9400010440830086090E0404650F8882F816924
:10B950000D68012180F86C10521B082A07D322F0D1
:10B960000302D8F88C30083A9A4280F05381D8F814
:10B970003000C2464AF86C0F00205AE919568F224F
:10B980005AF8209C54465AF838BC04F8280F0AF19B
:10B99000290088F8F810CAE901B5CAE9036908A9BD
:10B9A00015F078FD002008F1A00188F8C000D8F853
:10B9B0006C0081E8600208F18001C8E9260B81E88B
:10B9C0006108C8F8909008F1980B2EA8059A59467E
:10B9D000FEF7CCFF2E980C2800F009815846DDE9CF
:10B9E0002E6508F024F80B2E2FD1E8B20B26012883
:10B9F0008BF800503CD108F1B405202115F0BEFAB7
:10BA0000D8F890300020D8E9201288F8B00004203F
:10BA100002EB0332C8E9271502F6FC72C8E92902D5
:10BA2000DDF814B008F19C00594608F0BFFFC5B21C
:10BA3000042D00F0DA8098F8B00007F0BFFF0B2665
:10BA4000032D00D116E0042614E0DDF814B0012027
:10BA50000C2E207010D1CCE0099E062E40F0D5802F
:10BA6000D8F8A000016808310160D8E9282049E72A
:10BA7000DDF814B001202070504607F0C0FF0B2EF7
:10BA800040F09980D8E90201D8F84C2000F0DEFDA2
:10BA9000D8E90212D8E90C34C8E91D123022C8F8DE
:10BAA0005400C8F87C0008F18000C8E91B3408A9DC
:10BAB00015F0F0FC00201B2288F8B00008F1B1005E
:10BAC0002EA915F0E7FC08F16C0136A8FEF74EFE32
:10BAD00036980C2878D0DDE936650B2E6BD1E8B2AC
