:020000022000DC
:10600000305E032001610200B98F03007720040095
:10601000B98F0300B98F0300B98F0300000000009F
:10602000000000000000000000000000B98F030025
:10603000B98F030000000000B98F0300B98F03007F
:106040008D7B0300B98F0300B98F0300B98F030064
:10605000B98F0300B98F030009970300B98F0300BC
:10606000B98F0300B98F0300B98F0300B98F030004
:10607000B98F0300B98F0300B98F0300B98F0300F4
:10608000B98F0300E1970300B98F0300B98F0300B4
:10609000B98F0300B98F030009B10300B98F030062
:1060A000B98F0300B98F0300B98F0300B98F0300C4
:1060B000B98F0300B98F030000000000000000004A
:1060C000B98F0300B98F0300B98F0300B98F0300A4
:1060D000B98F0300B98F0300B98F0300AD7A0300B5
:1060E000B98F0300B98F0300B98F030000000000CF
:1060F00000000000B98F030000000000B98F03000A
:1061000012F05BFF0E480F490022814201D004C00B
:10611000FBE70D480D490E4A814202D008CA08C06B
:10612000FAE70C484FF47001026842EA010202608B
:10613000BFF34F8FBFF36F8F11F0AAFC00DE00009A
:1061400074000220D09D0220000002207400022072
:106150009064040088ED00E00146806840B1013899
:106160008860D1E9000290421EBF821C0A6070471D
:10617000002070470020704701207047016999B1E5
:10618000B0B502AFD0E9022401390161551C856028
:106190004569D0E900312C440134C460184608F048
:1061A000A1FA01460120B0BD00207047F0B503AF51
:1061B0002DE9000FE1B0D0F800B0884603907F4D84
:1061C0009BF808000B91CDF820B090B1032813D1B3
:1061D000594611F8140F049108390291DFE810F0C4
:1061E00006007D00E50BD600280019000298006823
:1061F0008FE01BF013F984E05D4615F8140FDFE81B
:1062000010F09C006900D40BA9000500D8F80040EC
:106210006FE05E4616F8360FDFE810F0050062000A
:10622000C70B1F000D00DBE906A0DBF8202022E1F0
:10623000D8F80040B9E05C4614F8680FDFE810F0C9
:1062400008005600B50B3105270033006403310503
:10625000DBF850A0CDE9094698E1DA461AF84A0F72
:10626000DFE810F005004100A30B0A008506CDE928
:1062700009A6DBF838A031E10A965E4616F8810FD0
:10628000E0B1032800F09A874D4812F016FECDE9E0
:1062900009465E4616F89C0FB0B1032800F07182E3
:1062A000484812F00AFE9BF879100BF16C0071B1AE
:1062B000032900F0F182444812F0FFFD9BF88300AF
:1062C000DBE91D4900F067BFDBE924494FE2DBF859
:1062D0007410DEE23D4812F0F0FD3D4812F0EDFD95
:1062E0003C4812F0EAFD3C4812F0E7FD3B4812F052
:1062F000E4FD1BF012F810B9DBF8100021E00420D7
:10630000C9E35A46002142F80C0F029202F8081F16
:106310000492CBF8100090F8C01059B301205D46EC
:1063200005F8140F00202B22287055F8100C45F8A2
:10633000080C681C1AA91BF003F9DBF80C00CBF859
:10634000100090F8C01071B100217C308BF8201043
:10635000CBF818001AF026FEC0B2052800F09A8388
:106360001AF0C2FDC5E70120144D8BF81400DBF8CC
:106370000400C6E700218BF82C108BF8201000F1E8
:10638000C4017C30CBF82410CBF818001AF00AFEB8
:10639000C0B2052807D19BF82C0028B303282ED0C3
:1063A0000F4812F08AFD1AF09FFD1AF0B6FF002880
:1063B00000F03187042000F0FEBC00BF00700240F6
:1063C000E43C0400F43C0400A43C0400B4250400B4
:1063D00004260400C4250400F42504003426040027
:1063E000B43C04009C9C02200020CBF82850C5F847
:1063F00000024FF40001DBF82800C0F804135FF836
:106400001C001AF059FDD5F85C01002800F09D83AE
:10641000DBF8280000215E46C0F85C11DBF828207C
:10642000D2F88004D2F88434D2F88844C0B2D2F8CA
:106430008C54DBB22D0664F3174545EA0323184458
:10644000D2F89034D2F89444D2F89854D2F89C24DC
:1064500006F8361FD9B2E3B2120656F826AC41EA66
:106460000321EBB246F81EAC42EA034246F81A0C8E
:106470000A4446F8162C030C594621F82C3FC0F369
:106480004114C0F3C0130A960C7200F01F04042CD0
:1064900041E902024B7228BF0424000ACC718871C2
:1064A000100C002B88804A8056D01AA818C9021DEB
:1064B00018C20988118011A938C80A4638C2008854
:1064C00010800BF13C00CBF838A01CC91CC0098817
:1064D00001800020594601F84A0F09910BF1400054
:1064E000CBF83CA00CA90CC80CC1008808809AF815
:1064F000BE00DAE900CE0690F346BAF8C400079071
:10650000E1469DF838109DF83700BDF83420022987
:10651000059200F0A580002940F0B180002800F02D
:106520001E82012800F0F581022840F0A8809DF825
:106530003600002840F00F859DF9321001F00F0061
:10654000002900F1B583E64A40F244410828C0F032
:10655000B583E44A00F0BEBD0DF168080A2208F1D7
:106560000A001AF0EDFF0CA898E87C0001467CC1F7
:106570000BF15401CBF850A090E87C0000207CC1C6
:10658000594601F8680F0991DDF82C800BF1540091
:106590000BF15E010A22CBF840A01AF0D1FFBBF844
:1065A00058000025CBF84400BAF8C410CBF84810C6
:1065B000CBF84C50DAF80440844212D212F026FE96
:1065C000C94812F083FDDBF8440012F053FD1AF0C5
:1065D000FDFE12F041FEDBF84000C430CBE91B05A4
:1065E0005CE3DAF800102246C04B18F0ADFD02461D
:1065F000DBF84830BE480DF168090C46009009F1FF
:106600000800114622460FF093FD11A899E87C007E
:1066100001467CC10BF1700190E87C0001207CC137
:106620008BF884000020DBE91C4900210BF178067F
:10663000CBF86C1020B9304610F07AFA044689463F
:106640005CB100209BF884508BF88400DBF86C0070
:10665000012873D1DBF8700078E0DBF84CA0D3E0C0
:1066600068B9DAF8746056B19AF878009DF8361077
:10667000814204BFBDF83200072800F00F82DAF82B
:106680006C000AF12C050DF1680A0DF13008C60006
:10669000002E00F06084D5E900104246C46A5046DE
:1066A0006346CDF800E0A0471A9820B9083E0835A7
:1066B000CC46DE46ECE7DDE91BC6BCF1000F00F07E
:1066C0004A84059A4FF00009079B00251046934223
:1066D00038BF18460699002918BF1046122B28BF4C
:1066E00010460246864238BF3246DDF82C80DDF87F
:1066F00020B0B04209D9002B00F0D584B2FBF3F0F2
:1067000000FB1320B0FA80F045097A4861460090FA
:106710001AAC20460FF01CFD01200BF14C0181E862
:1067200021020BF1580194E82C002CC16C4DDDF8CE
:1067300024A08BF87000002000F0F9BC304610F067
:10674000F7F90122CBF87410CBE91B2000215E463B
:1067500006F89C1FB0FA80F04009B07056F85C0C47
:106760007570C43046E9034946F8040C5C4D0020BE
:10677000CBE92249C5F828010120E8645E48C5F844
:106780000403D8F800405FF8A4031AF095FBD5F88D
:10679000280130B1DBE922231AA8002102F048F8D1
:1067A0000BE0D5F8000120B9D5F85C01002800F015
:1067B000FA8240F20110ADF86800DDE91A100122FA
:1067C0003270CAB2022A00F0F082CA0710D0090A59
:1067D00041EA006412F01AFD484812F077FC04F018
:1067E00001000FF0D9FC12F037FDDDE909465CE24B
:1067F000DBE9121202EB000ACBF84CA0814203D86D
:10680000DBF84400824567D1DBF84090D9F80410EA
:106810008A4500F243840BF15400D9F80080CBE99B
:106820000E8A11A90CC80CC1008808809DF84C0084
:10683000E8B3D9F86C0009F12C060DF14409C40045
:10684000002C00F02382F6E80201424653468D6A8E
:106850004946A847C1B2083C0229F1D0DDF82C8096
:10686000C00740F01582DBF84000DDE9094600F181
:10687000C40190F8C320002A42D090F8BE00002244
:106880008BF878000BF16C008BF87920CBF8741042
:10689000134D0022C0E9001210F022F8012000215F
:1068A0008BF87900DBF8400080F8C310FDE19DF81B
:1068B0004B00002800F0CB80012866D00228B8D118
:1068C0009DF84A00BDF84410012800F0EA80032832
:1068D00040F0DC810120E5E0DBF86C00A3E600BFBE
:1068E00000700240243B0400350000001426040020
:1068F00024260400E4250400010480003600000082
:10690000D84D0020CBE91B100BF16C000FF0E8FF15
:10691000CBE1DAF82810BDF83200814240F21B8347
:106920009DF836100A2900F0148100297FF4A7AEE3
:10693000CD4B022061467246022618F005FC00226B
:106940000223ADF86820C94A00921AAA1AF0D6F9B3
:10695000CC46BBF1010F3FF6B4AEC54ACDE19DF880
:106960003600002800F0C080062800F0AB80082820
:1069700040F0F182BEF1000F00F0A3839AF8BF004F
:106980000438B0FA80F04009EBE09DF846A04FF0E3
:106990000008D9F82810514509EB4A0088BF00F1DA
:1069A000180840F273819DF84A000B2840F06E8170
:1069B000BDF8446098F80110F0B2814240F2B08016
:1069C000D9E902010025002488F80060CDE916010C
:1069D0001AA816A913F044FA1A98012840F0A880C2
:1069E0001C9991B31AF034FA20D0042811D005284C
:1069F000EED118A813F0F8F9C00726D1E0B250453F
:106A0000E6D198F80020E8B2101A1AF0BDFA544600
:106A1000DEE718A813F0E8F9C00716D118A80C464D
:106A200013F0E2F9C00710D10D46D1E718A813F012
:106A300001FA000409D118A813F0D6F9C00704D14F
:106A400018A813F0D1F9C007C2D08A4898E19DF880
:106A50004A00411E082900F21981BDF84400DFE810
:106A600011F009001501A20015018400150115019E
:106A70001501B100012840F0098100201AF073FAD5
:106A8000002D3FF4F0AEF4E802010A6A00219047BD
:106A9000083DF5E70320287004208FE1DAF870C084
:106AA0000FE60020002940F0F1809DF846100A070B
:106AB00000F0278101F0870160F308216948C0F8E0
:106AC000181520E1BDF83060300A012800F0188266
:106AD000022800F0E881032800F0E9810F2840F047
:106AE0003A82DAE904C6ECE5634B0220614672465D
:106AF0009AF8C14002269AF8C25018F025FB5F4A66
:106B000064F34105ADF86850022300921AAA1AF006
:106B1000F5F8CC46BBF1010F3FF6D3AD584AECE097
:106B200012F074FB574812F0D1FA12F095FBADE069
:106B30001AF035FB002D3FF496AEF4E80201324620
:106B40004B6A51469847083DF4E703208BF82C0028
:106B500031E1BEF1000F00F0B7820AF1180111F81F
:106B600010008CF800000126ABE5411E7F2980F063
:106B70008D8089F8BE00032089F8BF0009F12C043C
:106B8000D9F86C000121DDF82C80C50089F8C3100C
:106B9000002D3FF468AEF4E8020299F8BE10526985
:106BA0009047083DF4E7012870D101201AF0DBF985
:106BB000002D3FF458AEF4E802010A6A0121904723
:106BC000083DF5E7002800F0A18001285ED10420EF
:106BD000D9F8288089F8BF0009F11806D9E902011F
:106BE0004FF0000ACDE9160118AC00251AA816A925
:106BF00013F036F91A98012840F0C9801C9979B32E
:106C00001AF026F91FD0042811D00528EED11AF069
:106C1000FDF9C00724D1E8B2804540F24D8216F854
:106C200010005FFA8AF2801A1AF0AEF9DEE71AF065
:106C3000EDF9C00714D120460D4613F0D5F8C00772
:106C40000ED18A46D2E7204613F0F4F8000407D1AB
:106C50001AF0DCF9C00703D11AF0D8F9C007C5D083
:106C600009488DE000700240A4240400B42404000C
:106C7000C4240400342504006424040074240400A3
:106C8000842404003700000014250400DDF82C8063
:106C9000DBF840100020C431CBE91B10CA4DDDE900
:106CA00009460BF16C000FF02BFE01202070B1E2C1
:106CB000C54A4FF48461082880F00A821144C34B0E
:106CC0007246022651F820400220614618F03CFA34
:106CD0004FF0FF32022312FA84F2B2FA82F2520922
:106CE000ADF86820BA4A00921AAA1AF007F8CC4602
:106CF000BBF1010F3FF6E5ACB64A0220594611F050
:106D000037F9B1494865DDF82C80ACE599F8BF004A
:106D1000DDF82C8002283FF4A6AD03200DF1680AAF
:106D200089F8BF00D9E90201CDE9160116AD18AC0A
:106D30005046294613F094F81A98012840F0EC8048
:106D40001C99E1B11AF084F80CD004280FD0052862
:106D5000EED11AF05BF9C00711D1084600210FF0FF
:106D6000F3FAE5E7204613F065F8000407D11AF0BE
:106D70004DF9C00703D11AF049F9C007D8D0964899
:106D800000901AAA95482B21954B11F0E9FE1AF0B4
:106D900006FA002D3FF467ADF4E802018A6901218B
:106DA0009047083DF5E703203070099904200870EA
:106DB0000A9908700520049908700320039D214654
:106DC0008BF8080068680EF045FDA86821460CF0B5
:106DD00021FBEE68307CDFE810F00600E805E805EE
:106DE0000B00CB03F103D6E90040C6E9024025E2DF
:106DF000354615F8640FDFE810F006006F01D8057E
:106E0000360034000900D6E905041DE2B1460995B3
:106E100019F8F40F00283FD0032840F06181B246F2
:106E20001AF8F00F002800F07080032840F060810D
:106E3000B3461BF8EC0F002800F07D80032840F0DB
:106E4000AE85314611F8B10F0A91DFE810F0050068
:106E5000AB05AE0542035F03D6E92842D6F8AC8005
:106E6000ECE20995AAE2B14619F8E40FB8B103289B
:106E700040F03A81B2461AF8E00F002848D00328C3
:106E8000099540F03981B3461BF8DC0F002855D036
:106E9000032800F03882CDE1D6E91A049FE2D6E952
:106EA0001A41306FE2E1DAE902C6FFF70ABCF3B239
:106EB000032B62D80AF1080080217C22DFE803F06E
:106EC00002484346BEF1000F00F01F810420BEF1CE
:106ED000010F8CF8000000F01B810320BEF1020FAF
:106EE0008CF8010040F218810920BEF1030F8CF8E4
:106EF000020000F0178104268CF80360FFF7E1BB65
:106F00000AF1AC0C1226FFF7DCBBD6E91C046CE2DC
:106F1000D6E91D41F06FB1E1D9F86C0009F12C04FC
:106F2000C500002D3FF49FACF4E802018A690021FE
:106F30009047083DF5E7D6E91E845EE2D6E9204198
:106F4000D6F88800A3E18821842201E090218C22D8
:106F50004158805828BBDDF820B00020DDF82C8097
:106F6000DDE909A6DBF83C10C431CBE913100BF1C5
:106F70004C000FF0C5FC144D49E1DAF86C000AF141
:106F80002C05BDF832A0C400002CE4D0F5E80201C5
:106F900052460B6B31469847083C0028F4D0DE4639
:106FA000CC46BEF1010F40F2AB80032202264FF027
:106FB000000A01448CF801200191BAF1000F11D0B0
:106FC000002580465B4642E000700240E424040055
:106FD000F42404000425040024250400C8510400FE
:106FE000C03A04000199884254D080465B4618F9A3
:106FF000011BCDB2B1F1FF3F26DC427805F01F0145
:10700000E02D02F03F0212D38478F02D04F03F040B
:1070100044EA821210D3C47801F0070100F1040899
:1070200004F03F0444EA821242EA814508E042EA61
:10703000811500F1020807E042EA013500F103087A
:107040000020B0EB154F1BD11FFA85FA0025B41CA8
:107050009C422CD2DFF8B00B2146009030466246AD
:1070600018F07DF8DFF8A42B0223ADF868A0009299
:107070001AAA19F043FECC464046AA4626469CE78B
:1070800005F57F00372161F39F254FF4584141EA10
:10709000902ADCE78CF80060FFF713BBDFF8402B89
:1070A000504610F065FFDFF86C0B11F0F3FE12F0A4
:1070B000ADF8DFF8500BB7E0DFF8202B414610F0B9
:1070C000ACFDDFF8282B01E0DFF81C2B1AF04BF8A1
:1070D000DFF8102B19F0F4FFDFF8580B11F0EDFE7C
:1070E000DFF8400B11F0E9FEDFF8440B11F0E5FE8C
:1070F000DFF82C0B11F0E1FEDFF8300B11F0DDFEB4
:1071000012F084F8DFF8F80A8EE0DFF8F02ADDE705
:10711000DFF8E42A1AF01DF8DFF8D42A0220022151
:1071200010F07BFDDFF8CC2A03201AF024F90021AF
:107130000BF14C06CBF8641020B9304600F052FE3B
:1071400004468946002C61D000209BF870508BF8D3
:107150007000DBF86400012802D1DBF8680007E06A
:10716000304600F03FFE0122CBF86C10CBE919202D
:1071700000215E4606F8811FB0FA80F0400956F8FB
:10718000451C7570C431B07046F80D4C46F8099C2A
:1071900046F8051CE94D8BF880000020C5F8280151
:1071A00021469BF880004A468000C0B2C5F8000224
:1071B000002001F08BFBE248C5F80403D8F800403A
:1071C000D4E9001089688847DFF80C0A19F074FECA
:1071D000D5F8280138B10BF1640901208BF8810042
:1071E00099E81102A3E7D5F8000110B9D5F85C01C0
:1071F000A8B10120307012F009F8DFF8140A11F07C
:1072000065FF01200EF0C8FF12F026F80A9E01204B
:107210008AF800003070DBF81000FFF77CB803201C
:1072200030708AF80000C3E511F050FF12F014F836
:1072300011F05CFFDFF8F00911F03FFE0021354648
:1072400005F8641F45E91404C6E9070406F12400A3
:1072500040211AF026FCB146202049F8684F002250
:10726000A9F12401C9E9011009F87C2F0022B246D6
:107270000AF8E02F4AE91B414AF8640C0022B346A1
:107280000BF8DC2F09954BE917414BF8540C1F28DC
:10729000C6E92341C6F8940040F22282A088C6F8CD
:1072A000980020680068BFF35F8FC6E92700D6E921
:1072B0002423DFF888190091202117F050FF02469F
:1072C000DFF87C09D6F898300C4600901AAD1146CC
:1072D000224628460EF02CFF95E80E0006F1A40089
:1072E0000EC006F1A4000FF023FC002846D00022B7
:1072F000C6F8B81086F8D820D6F88C20D8F8004008
:107300000432C6E92C2006F1B00111A8224600F093
:1073100005FE9DF84400022800F0C980C00719D07E
:10732000D6F88C1000229DF84500DFF8185909683E
:10733000BFF35F8F0A60012186F8E41086F8E01041
:1073400086F8DC10022111EA400080F0020400F00F
:107350001D8124E11299D6F8A000D6F8982008449F
:10736000C6F8A000914202D3202840F09580D6F8BC
:107370008C0000210068BFF35F8F0160D6E9270110
:10738000002994D001248BF800408AF8004089F845
:10739000004010B1DFF8AC58F8E0F0690022016855
:1073A00086F8742006F124023167C6E91A0206F154
:1073B00075001AA940F21B121AF0C2F806F1680013
:1073C000414607F05FFC00286DD10020B14609F866
:1073D000F40FA9F1D00459F8D40C49E92304002191
:1073E000B2460AF8F01F4AE920040021B3460BF820
:1073F000EC1F00F10C084BE91D8406F180052021EB
:1074000019F0A7FF1AA82946224610F033FB1A9854
:10741000072821D11B9A2846DFF82C3800210EF0CE
:107420004EFE04460A463046002100F8B11F0A907D
:1074300040F8058C40F8114C40F80D2C212AC6F874
:10744000A88080F08382B8F80030202A0DD1DDF8C2
:107450002C80002020220FE0DDF82C800120022467
:107460008BF800008AF800008BE0DDF82C80002B00
:1074700000F0118219F0DBFD86F8B000DFF8D407C8
:10748000214600901AAD28460EF062FE95E80E00E7
:1074900006F1B4000EC00CE0D6F88C100968BFF3FA
:1074A0005F8F08601DE70420DDF82C8041E0032099
:1074B00038E006F1B4000FF015FBB8B1D8F8004081
:1074C000002286F8E820D6F8A820C6E93020C6F8C1
:1074D000C81006F1C000214600F09CFCC0B2022892
:1074E000E7D003282ED103200A9A19E096F8B010AD
:1074F000022039B3D8F8004000200121D6F8A82096
:1075000086F8DC00C6E92D21C6F8BC0006F1B400FF
:10751000214600F07FFC0A9AC0B2032813D1042050
:107520001070052003218BF800108AF8001089F8EC
:10753000001009990870032047E000BF0070024066
:10754000010480000A9A0121022811708BF80010B2
:107550008AF8001011D186F86410212086F8F41002
:1075600019F0F4FB86F82040D8F80040C6E906017F
:1075700019F074FE28B3042027E00224C00718BFC6
:1075800000240120DFF8D05689F8000011F03EFEFB
:10759000284611F09BFD19F036FE11F05DFE01202A
:1075A000002186F864004FF48040002412F018FA9D
:1075B00086F82040C6E90601D8F8004019F04EFED2
:1075C00010B9D6E9024039E6052030740398D0F8A6
:1075D00010A09AF80800DFE810F005005400E80158
:1075E0006C011E00DAF804000178002900F05781D0
:1075F000CAF814000AF13008DAF8000000215246F7
:107600008AF8191002F8391F0AF11001CAF834007B
:107610000A92099111E0514611F8390FA1F10908B8
:107620000A9129390991DFE810F00600C001C00174
:1076300017000B00E000DAF83400C8F800002DE075
:107640009AF8440000219AF84550C0078AF844107F
:107650001BD0DAF8406048E0544614F8A80F40B157
:10766000032817D1D3461BF8A40F30B1032865D0E7
:10767000E0E50AF13C0207CA1DE00AF1480207CA28
:1076800020E0DFF8E00511F018FC11F0BFFDDFF895
:10769000CC05C9E5DFF8C80511F00FFC0023514601
:1076A00001F8383F01220C46C1E9021204F8703F8C
:1076B0000B4643F8040F0023D3460BF8A43FABF16D
:1076C0005C0307C30AF1540307C34AB18188CAF8AF
:1076D000601000680068BFF35F8FCAE9190096E088
:1076E00011F094FDDFF850059EE512F013FC814681
:1076F00030680B9AB0B919F068FC13F0BBFD044672
:1077000030680D460130306019F020FEE00712D0DD
:1077100001208AF845508AF844000B98D0F8009070
:1077200004206CE011F072FDDFF8440511F0CEFC8E
:1077300013F08EFD7AE5D8F80000AFE70B980AF158
:107740007801D0F8009011A84A4600F0E7FB9DF8B8
:10775000440002282ED0C00711D0DAF854100022BD
:107760009DF845000968BFF35F8F0A6001218AF820
:10777000A8108AF8A410022121EA40011FE0129902
:10778000DAF86800DAF860200844CAF86800914224
:1077900001D3012807D1DAF8540000210068BFF3B3
:1077A0005F8F01605DE0DAF854100968BFF35F8F06
:1077B000086046E003208BF8000020701FE08AF884
:1077C0003C1011F023FDDFF8A00411F07FFC9AF8C3
:1077D0003C000EF0EFFC11F03FFD4FF4004019F0BB
:1077E000B5FACAE910018AF848400B98D0F8009021
:1077F0000AF1400019F083FC00289CD005200A996A
:1078000008704946099808F0E9F804205AE0DAE9D6
:107810001623DFF828140091012117F0A0FC02467E
:10782000DFF81C04DAF860300D4600901AAE1146FD
:107830002A4630460EF07CFC96E80E000AF16C00F9
:107840000EC00AF16C000FF073F950B10022CAF8B3
:1078500080108AF8A020DAF854200432CAE91E20E9
:107860006CE7DAE919010029D1D0012100288BF851
:1078700000102170A3D19AF83850DFF8F0132802D5
:107880008AF83C50013001F12006CAE9106000205E
:107890008AF8440029E7DFF8B80311F0FBFACD4875
:1078A00047F6FF7112F09CF8CAE9040100208AF83B
:1078B0001800D8F800900AF1100019F020FC0028F8
:1078C000EDD00320039C49468AF80800606900F067
:1078D000B9FBA669307EDFE800F0046868123E1A42
:1078E000400096E8070006F10C03002407C34FF49C
:1078F000803019F024FCC6E9080186F8284006F11A
:10790000200019F0FCFB002850D003205EE1B046B7
:1079100018F8900F00282FD003283AD1B2461AF851
:107920008C0F002832D0032839D1B3461BF8510FF1
:10793000DFE810F0050038003B0008012001D6E91F
:107940001042092AF56CB564C0F0C58011F05EFCE8
:10795000BE48FFF769BCF1692BE0B04618F8390F53
:10796000DFE800F0031A236C0D00D6E90702D6F811
:107970002CA096F83A303BE0D6E90A5186E019F09F
:107980005EFCC4B2072C5ED10420C4E0D6E90C51E1
:1079900082E0B94811F091FAB64811F08EFA9F488A
:1079A00011F08BFA9C4811F088FAFEDEF06801684D
:1079B000F1611AA84A4600F06BF99DF86810022997
:1079C00000F0AD80DDF86900C907DDF86D209DF895
:1079D00071304DD00021B04608F8391F58F825AC59
:1079E00048F81D0C48F8192C88F8013048F80DACFF
:1079F00031464FF0000B41F8240F0C464A6044F822
:107A00000CBF01F10D02C1F810B081F814B0237061
:107A10001AA819F033F81A9807281ED11B980021CC
:107A2000984B19F084FC984B204600212A460EF012
:107A300055FB86F894B0C6E90FA0716419F0FFFBFE
:107A4000C4B2072C66D0062C0ED011F0DFFB8F4895
:107A500011F03CFB19F0D7FB04E011F0D7FB88488C
:107A600011F034FB11F0F8FB012088F800009DE7CD
:107A70000024B04608F8904F06F11C0158F8805CCD
:107A800048E91D0208F86C3C48E91A510020B2464A
:107A90000AF88C0F4AE917510020344644F8380F91
:107AA000139060600820CDE911401AA811AA0EF0C9
:107AB00054FD1A98072828D1139A092A31D2002098
:107AC000B3460BF8510F4BF8114C4BF80D2C4BF8FB
:107AD000095C4BF8055C2B88082A02D1002008229B
:107AE00004E0002B3FF4D7AE19F0A1FA86F850005D
:107AF0005848214600901AAD28460EF029FB95E81B
:107B00000E0006F154000EC010E0012002248AF895
:107B1000000045E0032088F80000062056E004201D
:107B200054E0494B1046082119F076FB06F1540049
:107B30000EF0D8FF90B10022B16686F88820B26CB2
:107B4000C6E9182006F16000494600F063F9C0B2AA
:107B50000228EBD0032815D103202FE096F850100F
:107B6000022079B100200121B26C86F87C00C6E9C0
:107B70001521F06506F15400494600F04BF9C0B2FA
:107B800003281AD001210224C2078BF800108AF8BA
:107B9000001018BF0024022802D188F8001005E761
:107BA000012088F8000011F031FB344811F08EFA02
:107BB00019F029FB11F050FBF8E604208BF80000C7
:107BC00003208AF8000088F800000520307661B0B4
:107BD00019F04FB90080FFFF9C9C0220442504004F
:107BE00044260400343B0400D424040094240400FC
:107BF0007425040084250400642504005425040031
:107C0000380000003900000094250400A425040079
:107C100034000000D4250400C42604009426040087
:107C2000D42604005C3E040054260400F42604001C
:107C30004C3E0400CC3304002D00000064260400F8
:107C4000742604004A010000842604002C00000071
:107C5000A4260400B426040049010000210000000D
:107C6000F03B04002C34040019010000109D022098
:107C7000C50000007C3A0400003C0400060100003E
:107C8000080100004C3A04005C3A040007010000BF
:107C9000F0B503AF2DE9000B15460C46814612F0F6
:107CA00039F98046206800283FD14FF0FF3020602E
:107CB00094F85C01012804D119F08AF894F85C1159
:107CC00000E00021D4E95502904201D1C90711D04A
:107CD000421C04F11401B2F1200300EB800018BF34
:107CE0001346C4F8543111F81060002284F85C2166
:107CF000022E06D1D5E90012201D11F0DFFD02266B
:107D000007E001EB400109F101000131092219F0FE
:107D100017FC206889F80060013020604046BDE80B
:107D2000000BBDE8F04012F019B911F06FFA0448E9
:107D300011F0CCF913F08CFA11F08EFA11F0D6F99B
:107D4000C5000000F0B503AF2DE9000B89460446DD
:107D500012F0E0F880462068B0BB4FF0FF302060A2
:107D600094F87C00012804D119F032F894F87C10C2
:107D700000E00021D4E91D02904201D1C90715D0CD
:107D8000421C04F11401B2F1200300EB400018BFC3
:107D900013460022636784F87C200A5A08448078DE
:107DA00042EA0046350AF0B2022805D1D9E90012AC
:107DB000201D11F083FD022618F0F2FFF0B240EA18
:107DC0000520BDE8000BF0BD11F020FA044811F0C9
:107DD0007DF913F03DFA11F03FFA11F087F900BF79
:107DE000C5000000B0B502AF0546044655F80C0FBB
:107DF00030B128460EF076FE00B1B0BD00202860FC
:107E00002168002021B1D4E9012160601046B0BD95
:107E1000B0BDD4D4F0B503AF4DF8048D064690F84C
:107E20002800884650B103285DD1354615F8240F47
:107E3000A0B1032863D1346A206818E096E80700EF
:107E4000C6E90312817811F07F0171614ED00021E3
:107E5000354605F8241F45F80C0C00E0B069807821
:107E6000344610F07F0044F81C0F38D034620EF016
:107E700043FAD8E9001211F04AFD24480123416970
:107E8000BFF35F8F226802F01F029340204A1268FE
:107E90001A4004D0194002D1032403201AE0BAB1D9
:107EA000F1690122BFF35F8F01F01F0102FA01F1B6
:107EB000C94319F0A0FAFCD1BFF35F8F0124D6E9C2
:107EC0000312706986F8244000F000FD022002E0F1
:107ED000012401202C7086F8284019F021B911F0F6
:107EE00095F90C4805E0084810F0E7FF11F08EF90D
:107EF000094811F0EBF811F0AFF911F0F7F801486B
:107F000010F0DBFF24230400D02104009C9C0220FD
:107F1000107502401B0000001E000000F0B503AF0A
:107F20002DE9C00B804691F8280091460D4650B1CE
:107F300003286BD12E4616F8240FA0B1032871D167
:107F40002C6A206818E095E80700C5E903128178DB
:107F500011F07F0169615CD000212E4606F8241FD4
:107F600046F80C0C00E0A86980782C4610F07F00E1
:107F700044F81C0F46D02C620EF0CEF9D9E900125D
:107F800011F0C5FC2B482C4B4169BFF35F8F226871
:107F90001B6802F01F02D340DB071ED082F01002E4
:107FA000D140C90725D0E9690122BFF35F8F01F0F5
:107FB0001F0181F0100102FA01F1C94319F01BFA07
:107FC000FCD1BFF35F8F0120D5E90323696985F8F0
:107FD0002400684600F02CFC05E00120307040F2DF
:107FE0000110ADF80000DDE90001C8E90001012041
:107FF00004E003200221307088F8001085F8280082
:1080000019F0F6B911F002F90C4805E0084810F033
:1080100054FF11F0FBF80A4811F058F811F01CF960
:1080200011F064F8014810F048FF00BF2423040059
:10803000E02104009C9C0220147502401B000000FB
:108040001D000000F0B503AF2DE9000FB3B083466B
:10805000007A0591CDF818B0DFE810F0060027008F
:1080600027001100A101590219F0D8F911F0CEF83A
:10807000DFF8D00411F02AF811F0EEF816E0D94636
:1080800019F8180FA9F10808DFE800F0030B0F46F4
:108090000600D8F8000012E0CDE90189DBE92C6088
:1080A0006EE0DFF89C0410F008FFFEDEDBF8040051
:1080B000D84648F8100F0021C14609F8081FCBF830
:1080C00014000168C9070ED019F026F8B0F5004079
:1080D00071F10000C0F01781DBF814000021C0E945
:1080E0000011DBF8140086300021012206290CD093
:1080F000435CE44C202B03F01F0328BF04F54074BD
:10810000013102FA03F32360F0E7012018F01EFEAC
:10811000CBE908018BF8284019F0EBF80028CDE9ED
:10812000018940F0008111F071F8DFF81C0410F0B3
:10813000CDFF11F091F8DBF8141000202C900BF11A
:108140001C06803108AA00230024062B0FD0CD186E
:10815000062C80F0EA8004EB4404013342F83450EA
:1081600002EBC40420752C9C01342C94EDE708A983
:108170003046942219F0E7FCDBF8AC00CBE92C6028
:1081800000EB40000022C0004FF0000AB04607900C
:1081900004960798504573D006EB0A05287DC0B1B8
:1081A000032840F0D080A94619F8100FA9F10C015E
:1081B000C8B1032840F0CA80AB461BF80D0FABF1E5
:1081C0000506002854D0032840F0C3802C7B03917F
:1081D00028E056F80A00A94649F8040FCDF80C909B
:1081E00009F80C2F05E008F104000390086808F175
:1081F00010092E4646F8080F06F1050B726001784B
:10820000CE4B202901F01F0103F59F6238BF03F513
:10821000FC7252F82130022464F3114342F82130F9
:1082200004782C73302C80F089800599CB48D1E9F3
:10823000001200EBC40011F06AFBC049202C01F5CC
:108240009F6038BF01F5FC7004F01F0150F8210059
:1082500010F4403F21D0032008F118088BF80000EB
:108260000AF1180A89F8000000222875049E90E798
:1082700008F10802306808F10D0B03911646BEE7BD
:108280000420DDF818B0DDF8089089F8000003201C
:108290008BF8080033B018F0ECBD05F10C0011F0BC
:1082A00037F9012430468BF800400DF094FB039819
:1082B00089F800400DF096FBDDF818B000212C7510
:1082C000DDF80480DBF814009C4D863006290CD0C4
:1082D000425C4FF44173202A02F01F0238BF04238E
:1082E000013104FA02F2EA50F0E711F0FFF8DBF88E
:1082F000142000230124C2E902010BF11C00C2E991
:1083000000430DF0BCFC01208BF8180040460DF036
:1083100014FDDBF804000BF10C03002200F18C01CA
:10832000863007C318E00320AFE700202D958DF8B5
:10833000C8002DA80DF050FC10F060FC864A2046C5
:1083400030210FF06AFC834810F0B7FD804810F030
:10835000B4FD7E4810F0B1FD884200F0D180411C90
:10836000CBF80C10DBF81410CBF818100131CBF857
:108370001410CBF81C0000787049202800F01F0072
:1083800028BF01F54071012202FA00F000240860C4
:10839000012018F0D4FECBE908018BF8284018F032
:1083A000A8FF002840F0BD80DBF804004FF0000873
:1083B00080300790B8F1060F00F0908007985F4971
:1083C00010F808904FF44270B9F1200F38BF082020
:1083D000DBF81840DBF8045051F800A0062C80F0C0
:1083E000A28011F083F87D23A0FB030201FB03218F
:1083F000000B40EA0151E86F0A1A10042CD009F072
:108400001F00012304EB440403FA00F010EA0A06FB
:1084100005EB840005EB4404444400EB4800838EE4
:10842000247C18BF0126A6420ED0DDF818B00A2B16
:108430002AD24FF6FF7192B2594091424FF0FF316C
:1084400088BF591C818607E091B25A1E8B4238BF03
:108450000022DDF818B08286DBF81800062865D205
:1084600018F0ADFE007C48B111F040F8DBF80420B4
:10847000012313600023C2E90130D16008F1010833
:1084800098E700BF08050050E96700218186DBF806
:10849000180006284DD218F092FE017C81F00101EF
:1084A0000174DBF81800062845D200EB4001DBF828
:1084B000042002EB41014144097C41EA082141EAE0
:1084C000004000F0B5FDC0B20228C5D010F09EFEFD
:1084D000264810F0FBFD10F0BFFEBDE7DBF81C00E6
:1084E0004FF441710078202800F01F0038BF0421AC
:1084F000012202FA00F0114A5050DBE903012BE798
:10850000042018F023FCCBE904018BF818400599EE
:108510000BF1100011F06EFA00283FF4C7AD0520F2
:10852000B6E60420B4E60E4A204600E0104A18F0F1
:108530002DFF0C4AFBE70C4AF9E700BF0805005085
:10854000C42204001B0100001D010000C42304001C
:10855000D4230400E423040070470400B800022080
:10856000D4220400E4220400F42204001C010000D0
:1085700004230400F0B503AF2DE90007D2E9004A57
:1085800091460D468046264654450BD006F17804A8
:1085900040462946C9F80040C5E9006400F00AF8E1
:1085A0000028F0D0B6EB0A0018BF0120BDE8000794
:1085B000F0BDD4D4F0B503AF2DE9000FADF5137DB8
:1085C000D0E902B30DF1380AD0E9008202930369C1
:1085D000079343698469CDE9050352A804300190EB
:1085E0000991D1E90010CDE903B80A9002F1200009
:1085F00008900A980E4681427AD0099806F10A0539
:10860000444B0560D8F800000138C8F80000DBF8DA
:10861000001008988A1C0DF052FD012973D90188B9
:1086200050460C9617F0ACFBA5F10A0051460A2201
:108630000D9518F085FFDBF8000006990230CBF8A5
:10864000000007980E68006806FB00F5002D5ED05C
:10865000002E55D0DDF808900B94B9F8000004EB1B
:10866000000810F0D3FD2C4810F030FDB9F80000E0
:1086700011F040FEB8FBF5FB0BFB1584274DB4FB56
:10868000F6F84046A84708FB16494846A84758460A
:10869000A84710F0E1FD8DF84B8151468DF84A91C5
:1086A0008DF849B101980CC90CC0098801800720D8
:1086B0008DF8480111A852A912F03EFE9DF8440021
:1086C000092806D010F0A2FD154810F0FFFC10F0AC
:1086D000C3FD0598DDF810800B9CDDF80CB001346B
:1086E0008461D8F80000DDE90C6100287FF481AFD7
:1086F0000A98301A18BF01200DF5137D18F05CBCE4
:10870000084810F08CF8094A02200FF031FC0648A6
:1087100010F085F8AC3304005E0100007590030092
:108720005F010000DC5B0400CC5B0400E03A040065
:10873000F0B503AF2DE90007DFF84C909A461446D8
:108740000E468046DAE90001884218D000F10A019D
:10875000CAF8001017F08EFA3168054640464B46BD
:108760008A1C18F041FA2A460DF06AFD3068013C77
:1087700002303060601CE5D10024002000E00120C0
:108780002146BDE80007F0BDBC330400F0B503AFDF
:108790002DE9000B0646D2E9000990460C464845F3
:1087A0000DD000F178053146C8F80050C6E9000543
:1087B00020460DF0B3F820B928460C46EFE700201C
:1087C00000E001202146BDE8000BF0BDF0B503AF8D
:1087D0002DE900078046D3E9000A99460E46144663
:1087E000504511D000F1780522463346C9F80050B3
:1087F000C6E90005D8E90001FFF79AFF01280A46FB
:108800002846ECD0002000E001202146BDE800070A
:10881000F0BDD4D4016820293CBF0430704780B536
:108820006F46024A08461F210FF0A2FB14230400E2
:10883000F0B503AF4DF804BD88B007293BD8214EF1
:1088400006F58F6454F821509D4202D90121018020
:108850002EE006F5DB6300931B4BB446019303F156
:108860007806079603F16406069603F1500605960E
:1088700003F13C06049603F12806143302936B4679
:10888000039653F821301A600CF584725D60002362
:1088900042F8213001234CF8213052F82130DB0717
:1088A000FBD0002342F8213044F8213045600370AA
:1088B00008B018F00BBB024A084618F001FC00BFD4
:1088C000342304002870024014770240F0B503AF4F
:1088D0004DF804BD98B0412A3DD21546044632B148
:1088E000B1F1005F05D34819B0F1405F01D20E46E7
:1088F00004E06E462A46304618F022FE1D481090CD
:1089000000F18C01179100F17801169100F16401DA
:10891000159100F15001149100F13C01139100F107
:1089200028011430072C129111901DD810A813495A
:10893000002250F824000660456001F5827040F87E
:108940002420012241F8242050F824100029FBD0D3
:1089500018B018F0BBBA10F059FC054810F0B6FB7F
:1089600010F07AFC10F0C2FB034A204618F0A8FB76
:108970001C00000000760240442304000470024002
:10898000F0B503AF2DE9800F8146407A0D46DFE850
:1089900010F0050036013F0147002B0099F8081040
:1089A000D9F80400C9F80000DFE801F003BF5665FC
:1089B0005100022180F8B7100021D9F8000080F89A
:1089C000B810D9F8000080F8B910D9F8000080F884
:1089D000B61018F0B4F9002D00F0B580F4E80201EB
:1089E00009698847083DF6E799F81000002840F02B
:1089F00009818C480021C0F80015012089F8100079
:108A0000D9F8000080F8B71018F099F9002D00F09F
:108A1000E280F4E80201CA6800219047083DF5E7CA
:108A2000C84618F8180FDFE800F003F0F34D060011
:108A3000D9F80C0026E04E4616F8240F002800F066
:108A4000A380032800F0A480734810F036FA0021B8
:108A50007430C9E90301CCE7002180F8B81018F0A0
:108A60006EF9002D00F0B780F4E80201CA69002118
:108A70009047083DF5E70021C84608F8181F7430F4
:108A800048F80C0C67490322C9E9040149F2753121
:108A900065480160C0F814210160026802B90160F4
:108AA000C022426101600121D9F81400C0F800150C
:108AB0004FF48001D9F81400C0F80413D9F8140059
:108AC000C9F81C005948D5E90012303010F01FFFDA
:108AD000D9F81C00D0F80004000501D4032082E07E
:108AE000D9F814004FF40061C0F800144E48016832
:108AF00011B949F275310160002149F275324161C5
:108B00004E4602600260C0F814110260802248489C
:108B10000260D9F81400474AC0F8042306F8241F5D
:108B200056F8140C46F8080C30E0012180F8B81013
:108B300018F005F9002D4ED0F4E80201CA690121B0
:108B40009047083DF6E7D9F800004FF000080025EF
:108B500000F1100B016A0BEB410AD3453BD08BF8B7
:108B60000080D9F8000000F12404406EC6003EB138
:108B7000F4E8020100224B6A29469847083EF6E7CE
:108B800001350BF1020BE8E7D9F81C00C9F8200009
:108B90002648D5E90012283010F0B9FED9F8200097
:108BA00000684178D1B1D9F81410012089F8240067
:108BB000C1F8040589F818000221D9F8000080F8EE
:108BC000B71018F0BCF835B1F4E80201CA68012109
:108BD0009047083DF7E70020012108E0007858B1F0
:108BE00003203070042088F800000120032189F858
:108BF0000910BDE8080FF0BD01203070DAE7084821
:108C000010F05BF9034810F058F9044810F055F9DA
:108C1000FEDE00BF743B04005C220400643B0400E1
:108C2000542404000070024000EC06409C9C02208A
:108C300004E100E00100400100207047002070477F
:108C40007047D4D4F0B503AF2DE9000F89B080464A
:108C500091F88500D3E900B99A4615460E460128D9
:108C60001AD10021D6F8EC008DF821104FF4407194
:108C7000CDF81D100B218DF81C0007AA30460623E5
:108C800010F0DCFFD6E905100538884280F0E2805C
:108C900031690A5C01320A54D6F8EC40082C80F0A5
:108CA000B98006F1DC00002120F81410D6F8EC1091
:108CB0000131C6F8EC10A14240F2B58000EB44004F
:108CC0004178013141703068002800F0B080706850
:108CD0007169CDF810B0884280F0B2803169B26914
:108CE000CDF80C800B5C8DF81C4001330B54111D2A
:108CF00001200723C6E902010020ADF821004FF44E
:108D00004030CDF81D0007AA3046042110F096FF30
:108D100022204FEA192B8DF82000212158480723E3
:108D2000079030468DF82190CDF804908DF822B050
:108D300007AA10F083FF06F194009AF81290CDF87C
:108D400008A0BAF8108010F00BFC00287BD103209B
:108D5000D7F808A007F8260C41F08000A7F12A01F7
:108D600007F8280C304607F8279C27F82A8C10F0C3
:108D7000A9FFBAF1000F16D006F1960010F0F0FB33
:108D800000286AD14FF0030A8DF81F908DF820A0BB
:108D90003046ADF81C808DF81E1007A910F092FF28
:108DA000DDF81C8001E04FF0040A06F1500206F1E4
:108DB000480307CA11F088F82220019AE8764FF498
:108DC0008070A5F819003448C5F815000298049B76
:108DD000D0E902012A77C5E90032304A2C7505F145
:108DE0002004C5E9024030462961294685F81DB0B6
:108DF00000F064F8039957F82A0C086037F8260C3D
:108E000081F80AA0C1F80680CC60888009B0BDE86E
:108E1000000FF0BD10F0FAF9154810F057F90820CE
:108E200010F028F908E0134A20460EF0F6FE10F084
:108E3000EDF9114810F04AF910F00EFA10F056F959
:108E40000E4A0EF0EAFE0F48A7F11D02009018210D
:108E50000D4808E0054A0EF0E0FE0D48A7F11D029E
:108E6000009019210B48094B0FF07AFE9C27040053
:108E700029000000AC27040030000000EC4804008A
:108E800010010001D4270400BC270400B03A0400FC
:108E900000280400E427040009211001042704002D
:108EA0007047002101607047002070470020704724
:108EB000022070477047704770477047D0F8D8302D
:108EC000082B3FBF00EBC303C3E92612D0F8D8102C
:108ED00001313CBFC0F8D810704780B56F4610F024
:108EE00095F9054810F0F2F8082010F0C3F810F0DA
:108EF000B3F910F0FBF800BF28000000D0B502AFB6
:108F000086B0044680300122D0E84F3F53B9C0E814
:108F1000432F002BF8D12046802218F0C7F82046B6
:108F200006B0D0BD17F058FF03490091034917F070
:108F300021FF68460EF007FF4C280400B428040007
:108F4000FEB506AF0121D0E84F2F42B9C0E8421F5D
:108F5000002AF8D10130BFF35F8F06B080BD17F053
:108F60003BFF04490091044917F004FF68460EF0E6
:108F7000EAFE00BF4C280400B4280400D0B502AFBC
:108F800086B0044624300122D0E84F3F53B9C0E8F0
:108F9000432F002BF8D12046242218F087F82046D2
:108FA00006B0D0BD17F018FF03490091034917F030
:108FB000E1FE68460EF0C7FE4C280400B428040009
:108FC000D0B502AF86B0044600F580700122D0E82B
:108FD0004F3F5BB9C0E8432F002BF8D120464FF438
:108FE000807218F063F8204606B0D0BD17F0F4FE8A
:108FF00003490091034917F0BDFE68460EF0A3FE39
:109000004C280400B4280400B0B502AF18F001F9F0
:109010000446D5E90021A8680223012A2B6004BF79
:10902000496888472046BDE8B04010F097BFD4D4C7
:10903000F0B503AF4DF804BD18F0EBF80C4E044644
:10904000306850B917F0C1FF002200F015F817F092
:10905000A2FF28465DF804BBF0BD10F0D7F8054824
:1090600010F034F812F0F4F810F0F6F810F03EF8C2
:1090700088930220C5000000B0B502AF0C4690F8FE
:10908000781041B1E1B2C4F30F25022917D0CAB15B
:1090900017F0FCFF16E0416F220C01EB4101014487
:1090A0008A740C82D0E91C120132B2F1200318BF7D
:1090B00013469942436702D1012180F8781010F0DD
:1090C0001DFC0224E0B240EA0520B0BD80B56F4629
:1090D00009037D2241EA105100037C30002318F07F
:1090E00027FEBDE8804010F07BBCD4D400F01F0206
:1090F0000123C0B203FA02F2074B29B1202828BF8E
:1091000003F540731A6070474FF44171202838BF4F
:1091100004215A50704700BF08050050F0B503AF56
:109120002DE9000F99B0824691F88C008846D0B1A5
:10913000032840F07881C3461BF8890FABF1650125
:10914000079150B3032840F07181454615F8600F30
:10915000A5F13409002800F01381032840F069814B
:10916000D8F85C4033E108F1140E0392CDF818A052
:1091700043469EE80454C8E91B2A08F17402C8E972
:1091800019CE93E8730073C20020414601F8890F9D
:10919000A1F165000591079006E0CDE905BAD8E98F
:1091A00019CED8F870A003920120444604F8880F25
:1091B00044E919CEA4F1100C14F8145C9CE80910D1
:1091C00054F8046C34F8121C14F813BCDFE805F0F2
:1091D000032C202310000D960AA981E80910012113
:1091E0000120049000268DF839104FF0000B2CE080
:1091F00007250722CDF82300002004928DF839506E
:109200008DF82730ADF821100C90CDE90AC61BE08F
:10921000022302220AE00AA9002649C106200621EB
:1092200004908DF8391010E0032303228DF821B04B
:109230004FF0000B04928DF839300990ADF82210F0
:10924000CDF830B0CDF828B001264FF000098DF8E8
:109250003AB08DF8389018218DF820600FAD17F0D6
:10926000CFFE049800218DF83C00681C0122CDE956
:109270000099012505F0AAFA08A8002E18BF461C7F
:109280009AF80A008DF851009AF80B0010968DF8A4
:109290005200DAF8040011909AF80C008DF8500092
:1092A000BAF80200012898BF2846BAF80010002931
:1092B00008BF0846ADF848009AF80900012888BFA1
:1092C00005469AF80800002808BF05468DF84A5060
:1092D0000021CDE900B90FA81730042205F076FA75
:1092E000DDE90A0111F07CFC05460E46DDE90C01C2
:1092F00011F076FCDFF84CB11790ADF86010ADF8C6
:1093000058605846159515A90FAA72DF11F03CF95F
:10931000C00702D04C4D0E460BE09AF90D200120FB
:109320009BF8001077DF11F02FF9C0071BD00E4615
:10933000464DDDF818A0DDF814B00FF067FF2846A1
:109340000FF0C4FE17F05CFF0FF086FF20460CF014
:10935000CFFC0225079801248BF800400CF09CFC00
:10936000CAE9005650E09BF80000012173DF11F0BC
:109370000BF9DDF818A0C00706D0354D0E46DAE728
:10938000D8E90B0103920EE03248C146079A00214A
:10939000683049F82C0FDDF814B04D46C9F80420A8
:1093A00005F8341F1146464646F8341F002106F1E1
:1093B00010023446706244F8041F314641F8182FF9
:1093C000254AC6E9076400F075FA039AB46220469C
:1093D00011460DF0E6F910B1032028700EE008F1F7
:1093E0005800D8E911560CF009FD08F138000CF0CE
:1093F0007BFD0120042D88F860000AD1032404209D
:109400008BF80040CAF8000088F88C4019B017F0BB
:1094100030BD48460CF0A9FC00208DF8200008A8BB
:109420000CF066FC96E706480FF047FD03480FF086
:1094300044FD01480FF041FD682B0400342904006D
:1094400044290400700002208E0000008F000000FC
:10945000900000009C9C0220A02B0400F0B503AFFC
:109460002DE9000F9FB08B4691F8D0100390D1B139
:10947000032940F09F815C4614F8B81FA4F15C08F2
:10948000002979D0032940F09B815E4616F8B01F71
:10949000A6F1500A002900F0A280032940F0938130
:1094A000DBF8AC50BCE0DBF80C000BF1BC01009029
:1094B0000BF1C60002920A22DBE90464CBF81860C3
:1094C00018F03EF89BF8C8004FF001099BF8CB302C
:1094D0000025BBF8CCA0BBF8C680E188BBF8CEC0A5
:1094E000BBF800E0BBF80820019200225FEAC974D3
:1094F00009D001244FF0000904FA02F21A4218BF01
:1095000015430122F2E700239BF8CA208BF827209D
:1095100000280246ABF824C0ABF822A08BF820004C
:10952000ABF81E80CBF8583018BF0122002DABF8E5
:109530001C2018BF01255FEACE72019A8BF82650D5
:1095400018BF511E0CF101028CB295B2A54207D989
:109550004FF0000A002800F0FC800BF1280CDEE040
:10956000D846009848F85C0F4446A8F85A10A8F866
:10957000582004F85C3F06E00292BBF8B610BBF836
:10958000B420DBF85C000078142880F01681742386
:109590005843924B1858C3071AD0060CADF8321036
:1095A000ADF830200CA930469EDF10F0EDFFC0076B
:1095B00019D089460FF02AFE8A480FF087FD17F070
:1095C000C2FE0FF049FE002604254FF0000A58E0C5
:1095D000002600254FF0000A4FF0000951E0DAF8AC
:1095E0000000029209E0304611F092F9DA460021BB
:1095F0004AF8600F564606F8501F00215D4645F8B0
:10960000641F05F14D0105F10C02C5E90F1529464E
:1096100041F8382F724A686400F04CF9029AAD6440
:10962000284611460DF0BDF810B10320307015E04A
:10963000DBE91C650BF17C01DBF878900CA817F0D6
:10964000DCFC0BF1A8000CF0D9FB0BF164000CF072
:109650004BFC0120022E8BF8B00005D1039A0320A9
:109660000621207011807CE017A80CA917F0C5FC1A
:1096700050460CF0E9FBB6FA86F04FEA154AADB257
:1096800046090120207040460CF083F936B104A849
:1096900017A917F0B2FC45EA0A4806E0032D08BFF7
:1096A000BAF5857F56D14FF00008CDE90C890CAC96
:1096B00004F1080004A917F0A0FC0BF1280C221DEE
:1096C000002100261691884521D014790131DBF85C
:1096D0005800538815880528169162D8002C18BFA9
:1096E0009E46234618BF0123002C43EA0E434CF844
:1096F00030300CEBC00018BF2646C6EA05430632E0
:109700004360DBF858000130CBF85800DBE7BBF8CA
:109710001C00C0071BD0DBF81860DBF858A09BF8D2
:109720002020B078BBF81E10824204BF30888142EE
:109730001CD0B07905254FF0000A82420AD1B088CA
:109740008142039907D1BBF82400B08103E04FF0B8
:10975000000A05250399C1F804900120A1F802A090
:109760000D808BF8D0001FB017F083BBBBF824002E
:109770004FEACA0330810CF1040042F60215002BB7
:10978000D7D030F8044C012C04BF30F8024CAC4266
:1097900004D10478012C04BF44887481083B08304C
:1097A000EDE70FF033FD10480FF090FC0FF054FD83
:1097B0000FF09CFC07480FF080FB074A17F056FBA0
:1097C00003480FF07AFB01480FF077FB682B040089
:1097D0008429040054290400F04D0400CC02022026
:1097E0008C2B04009A0000009D00000080B56F469D
:1097F0000FF00CFD03480FF069FC0FF02DFD0FF08A
:1098000075FC00BF84000000F0B503AF2DE9F00B3C
:10981000A7F11D058046284611F052F81A4C002683
:10982000284607210122CDE900664FF00109A04733
:1098300003200421CDE9000628460322A04728463C
:1098400001210122CDE90066A0472846002101221E
:10985000CDE90096A047EE1C304604F0ADFF30463F
:1098600004F0A0FF0435284604F0A6FF284604F0C3
:1098700099FF17F8190C88F8040057F81D0CC8F860
:109880000000BDE80F0BF0BDCDE7020080B56F46CC
:109890000FF0BCFC03480FF019FC0FF0DDFC0FF0DB
:1098A00025FC00BF850000000021018070470020DA
:1098B0007047D4D4B0B502AF86B00D460F490968E1
:1098C000C9050BD11049144615F05CFD02685AB960
:1098D000C0E9005417F0BDFD06B0B0BD17F0F7FBAE
:1098E00007490091074904E017F0F1FB074900918F
:1098F000074917F03FFA68460EF025FA04ED00E03C
:10990000F04A0400684B0400702A0400A82A0400EE
:10991000B02A0400F0B503AF4DF804BD1446126838
:109920002AB30A880025112A10D03B2A0CD0382AE5
:109930001BD1C9880A04002918BF511CCA0707D0C7
:10994000090C0023022204E0012202E0002200E0D0
:109950000422D0E9016042EA01421B0443EA1141BA
:10996000C6E90021FFF750FB256017F0AFBA0248A7
:109970002821024A0EF01BFB0C2B0400342B0400A0
:10998000F0B503AF2DE9FF0B0D461168002900F07B
:1099900023812988112906D180681446FFF734FBFA
:1099A0000020206038E00468A88810F0B1FEC007ED
:1099B00000F017812888884639282AD1287B032877
:1099C0001DD22268698912898A4222D1C00720D01B
:1099D00005F11006ED89082D21D20020914BCDE92B
:1099E000060006A92846082215F0AEFB8E4A2B4633
:1099F0000092324617F082F9DDE9060113E00FF01C
:109A000005FC86480FF062FB287B10F0D7FC0FF0B6
:109A100023FC404610F004FE08B017F05CBB40F099
:109A2000EB803068716865680022CDE9020102A907
:109A300001F10800059000260020052E10D08C575B
:109A4000334604F07F069640073230435E1C002CFC
:109A5000F3D4042B3144049156D1E1B20F2953D9E8
:109A600040F2025606F47F40861CF4B2022C0DD15F
:109A70000FF0CCFB72480FF029FB72480FF008FB87
:109A8000714946F3072017F012FAC0E72868056805
:109A900010F040FA81462868002840F0B5804FF069
:109AA000FF30286095F83C0008B1002017E0A96B52
:109AB000281D05EB81014E61D5E90D120132B2F18D
:109AC000080318BF1346AB63994204BF012185F810
:109AD0003C100FF013FF2868022602240130286092
:109AE00017F034FC022C94D00FF090FB50480FF08C
:109AF000EDFA50480FF0CCFA4F480FF0C9FA350A8A
:109B0000E00712D0012019E001281DD060BB03201E
:109B1000079004A8069006A80CF07CFBC1B2C0F325
:109B20000726022923D1022036E017F083FC4348A0
:109B30000FF0AEFA300C0FF0C0FA300E0FF0BDFA95
:109B400028460FF0B8FA62E704A80CF034FD10F0D4
:109B5000010008BF01F00101C8B24FF0010118BFB8
:109B6000022141EA002625E040F602667AE7C007B6
:109B700010D006A80CF04EFBC1B2C0F30724022996
:109B800003D102200022264607E0C0071CBF079829
:109B9000002814D102200E260022F1B2034602282A
:109BA00008BF0B464FEA012141EA024118BF0802F3
:109BB00040EA0326F0B202283FF454AF55E7069876
:109BC0000CF0F9FCC00703D0022000220E46E4E7A7
:109BD00001F001002246E0E71C4828211C4A0EF053
:109BE000E6F90FF013FB0C480FF070FA0FF0D8FEF7
:109BF0000FF032FB0FF07AFA0FF008FB08480FF075
:109C000065FA12F075FCF3E70FF000FB07480FF060
:109C10005DFA11F01DFBEBE7A5000000A6000000B7
:109C2000CE0000005056040060560400C50000003D
:109C300025010000CD000000280100000501000002
:109C400026010000C4000000E06304000C2B0400A7
:109C5000342B0400F0B503AF2DE9000F95B00C468E
:109C60001168002900F0A4812188112906D180689B
:109C70001546FFF7C9F9002028604DE1A688D0F805
:109C80000080304610F044FDC00700F09681208827
:109C90000D4607F8591C502831D0512816D05228AB
:109CA00040F03681304610F033FDC00700F03081BF
:109CB00008460C468DF8381010F0C0FD002843D03F
:109CC000CA6B0EA990479DF838404FE0A079022852
:109CD00040F08381A07B11F029F9C0B2002840F048
:109CE00089810FF093FACD480FF0F0F9A07B10F0C6
:109CF00065FB0FF0B1FA28460CF0FEF80CE1207B72
:109D000011F014F9C0B270B1D8F8009004F112004B
:109D10000490B4F806A0B4F810B0B9F81400504597
:109D20000CD1002432E00FF071FACE480FF0CEF9DA
:109D3000207B10F043FB0FF08FFAE9E0B9F81E002A
:109D4000504517D1012421E02046002111F058F997
:109D500002280BD0054617F0CFF9C3480FF0B6F92B
:109D60002846314612F026FC0FF076FA204610F015
:109D700057FCCDE0B9F82400504501D1022405E09C
:109D8000B9F82A00504540F0CA8003240FF03EFA8B
:109D9000AB480FF09BF9AB480FF07AF9AA4850F89E
:109DA000240000780FF089F9504610F0A3FA0498C7
:109DB00059460FF06DFB0FF04FFA16F0FBFFB9F8A4
:109DC0000A0050451CD1BBF1000F19D0049C94F837
:109DD00000800FF01BFA9D480FF078F9504610F004
:109DE00089FA204659460FF053FB99480FF050F975
:109DF00008F001000FF05FF90FF02EFA16F0DAFF0D
:109E0000B9F83010514510D10FF000FA94480FF016
:109E10005DF9504610F06EFA049859460FF038FB81
:109E20000FF01AFA16F0C6FF72E0B9F83400504588
:109E30006ED1CDF80C90DFF81C92884C8DE8020CA6
:109E40000EAD13AE4FF0000A4FF0000BBBF1030F45
:109E500057D006A8049917F0D0F810F05BF88046A8
:109E6000D9F80000002840F0B0804FF0FF30C9F86A
:109E7000000099F89C0018B34046C9F800A010F003
:109E80006DF84FF4247017F05AF9CDE90E017248BD
:109E90008DF840A0CDF850A01390284631460FF021
:109EA000A9FD0028F9D1DDE91310C96888470FF032
:109EB000ADF917F02BF90BF1010B0FF0CDF9C5E758
:109EC000D9F8980006A9202209EB4010143017F0A9
:109ED00037FBD9E9250101310A1F18BF0A46C9F825
:109EE0009820904204BF012089F89C0009F10400E9
:109EF0000FF004FDD9F800000130C9F8000017F098
:109F00002CF8DDE9000A5045DDE902B93FF47CAFE9
:109F100017F8590C10F084FB15B016F0AABFB9F869
:109F2000180050457FF44BAFBBF1000F6ED0049882
:109F300004780FF06BF93C480FF0C8F8DFF8EC80BC
:109F400003260294204615F0DBF80FF085F9002E69
:109F50003FF435AF5D460396CB460FF0DBFF064678
:109F6000D8F8200088BB4FF0FF300299C8F82000D5
:109F700008F12400002211F07DF98146D8F8200074
:109F80000C460130C8F8200030460FF0E7FF039E72
:109F90005FEAC970D946AB463FF411AF0FF036F90E
:109FA00024480FF093F824480FF072F8013EC9E7F7
:109FB0002E4828212E4A0DF0FAFF0FF027F91548F8
:109FC0000FF084F80FF0ECFC1CE00FF01FF91848BC
:109FD0000FF07CF811F03CF914E0012806D1284676
:109FE0000BF0E8FF0FF012F90D4809E00FF00EF941
:109FF0000C4805E028460BF06AFD0FF007F906480B
:10A000000FF064F80FF028F90FF070F80B4A17F012
:10A01000AAF800BFAC000000AA000000AF000000DA
:10A02000A9000000B0000000E3000000109D022025
:10A03000C5000000E4000000CD0000004859040005
:10A04000EB000000E500000020640400EC000000CC
:10A050000B000000DC8E022028510400EF000000FD
:10A06000ED000000AE000000AD0000000C2B04006D
:10A07000342B0400F0B503AF2DE9F00B0D889046AA
:10A0800006688146112D12D0302D3FD1C8880C466C
:10A090000104002818BF481CC1070DD0002140F062
:10A0A0000300CDF802000120CDF806101DE00020CD
:10A0B000ADF80200012018E034F80A0F90B1A51C99
:10A0C000012809D00FF0A2F816480EF0FFFF2088F3
:10A0D00010F010F90FF0C0F869682868CDE90001A8
:10A0E000002002E00120ADF8020026F8020B6946CC
:10A0F0000A22304617F024FAD9F80800FEF784FF48
:10A100000020C8F80000BDE80F0BF0BD0FF07EF88E
:10A1100005480EF0DBFF28460FF0B2FF0FF09CF869
:10A120000EF0E4FF9500000096000000F0B503AFCC
:10A130004DF804BD14460D8802680026112D0CD080
:10A140003A2D28D1CB881D04002B18BF6B1CDD07CE
:10A1500005D0190C002301250FE000250DE0436810
:10A160001B681B78142B22D2DFF850C07425498954
:10A1700013FB05C30325A3F86410806845EA014575
:10A180001B0443EA1141C2E90051FEF73DFF26607E
:10A190005DF804BBF0BD0FF039F809480EF096FFEA
:10A1A00028460FF06DFF0FF057F80EF09FFF024AA0
:10A1B000184616F05BFE00BFF04D0400CC020220F2
:10A1C000A4000000F0B503AF2DE9FF0B17F0EEF887
:10A1D00003D01B2E37D1032024E0C87B0C468E8889
:10A1E00010F0FAFBD4F80B20014607F8280CA06801
:10A1F00047F8242C47F8270CA7F12A00D4E90434A7
:10A20000C21C304627F82A6C47F81C4C47F8203C03
:10A21000CDE9003410F0B6FAC00704D0142130465E
:10A2200076DF052000E00820C9B2002440EA0140A2
:10A23000C9E90004A868FEF7E7FEC8F8004008B0C6
:10A24000BDE8000BF0BD0EF0E1FF05480EF03EFF4B
:10A2500030460FF015FF0EF0FFFF0EF047FF00BF76
:10A2600089000000F0B503AF2DE9000792B00E8819
:10A270009146046882464FF00008112E0DD0332E0F
:10A2800051D1C8880204002818BF501CC20707D04B
:10A29000000C0022012103262EE0012100262BE0E4
:10A2A00031F80A6F00200890062E45D80DF1200CD9
:10A2B00006EB46030CF1040202315B00002673B189
:10A2C00006EB46060868063B42F8160002EB46001D
:10A2D0008E88063186800898461C0896EFE70CF1B8
:10A2E000080168462022DDE9086517F029F9300CDD
:10A2F0002A0C40EA05400021C6EA0043120442EA63
:10A300001040A06004F10C00C4E90013694616F087
:10A3100074FEDAF80800FEF777FEC9F8008012B084
:10A32000BDE80007F0BD0EF071FF0A480EF0CEFE4A
:10A3300030460FF0A5FE07E00EF068FF04480EF06F
:10A34000C5FE30460EF096FE0EF086FF0EF0CEFEF5
:10A350009B0000009C000000F0B503AF2DE9000F4A
:10A360009FB00C889046056882464FF00009112C7A
:10A370000DD0322C4FD1C8880204002818BF501CC1
:10A38000C20707D0000C0022012103242CE0012188
:10A39000002429E031F80A4F00200E90062C42D804
:10A3A0000EA88E1C00F1040B04EB84004400002076
:10A3B0006CB100EB800031460A220BEB400017F035
:10A3C000BFF80E980A3C0A3601300E90F0E7DDE93E
:10A3D0000E460EA800F10801684616F0E1FF200CB9
:10A3E000320C40EA06400021C4EA0043120442EA6B
:10A3F0001040A86005F10C00C5E90013694616F08D
:10A40000CFFFDAF80800FEF7FFFDC8F800901FB094
:10A41000BDE8000FF0BD0EF0F9FE09480EF056FE43
:10A4200016F0D1FF06E00EF0F1FE04480EF04EFEED
:10A4300016F0CCFF0EF010FF0EF058FE9800000052
:10A4400099000000F0B503AF2DE9FE0F16F0AEFF46
:10A4500010D000201B2E38D0262E41D00EF0D6FE74
:10A4600029480EF033FE30460FF00AFE0EF0F4FEDF
:10A470000EF03CFEC87B0C46D5F804A08E8810F088
:10A48000ABFAD4F80B20014607F82C0CA06847F86B
:10A49000282C47F82B0CDAF80000D4E90434D0E972
:10A4A00000BAA7F12E00C21C304627F82E6C47F8E0
:10A4B000204C47F8243CCDE9003410F063F9C00784
:10A4C00004D03046142176DF012009E0C8B21428F8
:10A4D00013D20C4A742310FB0320C0E903BA0320F3
:10A4E000C9B2C9E90001A868FEF78EFD0020C8F8CE
:10A4F000000007B0BDE8000FF0BD014A16F0B6FC41
:10A50000F04D0400CC0202209200000080B56F469E
:10A510000EF07CFE03480EF0D9FD0EF09DFE0EF00D
:10A52000E5FD00BFCB000000F0B503AF2DE9000F43
:10A53000ADF5864D83B08346DFF8AC0CCDE9110B49
:10A540000020159011A8CDF840B0CDE9130042F6D7
:10A55000A0100BEB00010E9191F87C0058B103287C
:10A5600040F0808591F85A000BF50969022837D12F
:10A57000012000F0CCBC886F0F900EF047FEDFF892
:10A58000140F0EF0A3FD0EF067FE894940208946A6
:10A5900081F82100874981F800030FF0BBFCDFF848
:10A5A000F88E98F80510012900F06085012188F8DF
:10A5B00005100FF0D3FC8048804D814E0068C0F339
:10A5C0000720452810D905F108005A215A240EF019
:10A5D000DBFFC0B2C6F85045B0FA80F0440904E091
:10A5E0000BF6083800F08EBC0024284612210EF02D
:10A5F000CBFF2946C5B2081D8A4612210EF0C4FFC2
:10A60000C0B235B1B0FA80F149090C43022D01D135
:10A6100002E00124022807D10EF0F8FDDFF87C0EDD
:10A620000EF054FD0EF018FE0AF10C00002101227C
:10A630000EF0AEFF002C40F01E85C0B2002800F0E6
:10A640001A855C4C0BF1200A0020C6F81005C6F8EC
:10A65000FC0001203060D6F8FC000028FBD006A9E1
:10A66000584E01F5F8514FF0A0404FF0FF32C1E9CC
:10A670009C0602A901F5065500200121082806D0F4
:10A680002B580430C3F82415C3F82025F6E74020E2
:10A690006021C4F8800189F8001020604FF000416B
:10A6A00049484A4A01604FF40001494881644949D8
:10A6B000C1F8042301228A600A6001680029FCD1E4
:10A6C000602008F1220189F80B004FF4003020606F
:10A6D00098F82000002818BF0846BFF35F8F01D00C
:10A6E0000D9017E00D910FF015FC044698F821002D
:10A6F00068B908F130000FF036F998F82100012808
:10A7000000F0C3840120A8F8220088F8210016F088
:10A710000DFC284C80200421C4F8840160604FF4B3
:10A7200000422D484163C163C0F8DC128160C0F86B
:10A73000EC12C0F8F412C6F80C120321C6F8081483
:10A74000C0F8E8204FF40052C0F81813C0F8E82011
:10A750004FF40062C0F81013C0F8E8204FF4806294
:10A76000C0F80813C6F80C224FF400724160C6F816
:10A770000C221C22016017A8DFF8241D033016F0FC
:10A78000DFFEA7F1D00100200022782A02D08854F1
:10A790000A32FAE7A7F1D0040026B6F5347F1DD0BF
:10A7A000A8192146782217F0CEF97836F5E700BFD0
:10A7B00006E400E000E100E00401001000120010D7
:10A7C000080000400003005004630040020008003D
:10A7D0000415014000100140240700504FF42010E0
:10A7E000CDF830A0CBF8F80141F20620ABF8F60125
:10A7F0003820ABF8F0014FF0000A109809221099A8
:10A800008BF800A28BF8EEA14FF0020B80F8ECB1B0
:10A810003720A1F8E6011098109980F8E4A110986B
:10A8200080F8E2B13620A1F8DC011021109880F800
:10A83000DAA1109880F8D8B11098A0F8D211109829
:10A84000109980F8D0A1109880F8CEB11120A1F80D
:10A85000C8011098109980F8C6A1109880F8C4B16A
:10A860000520A1F8BE011098109980F8BCA110989D
:10A8700080F8BAB11920A1F8B4011098109980F8A5
:10A88000B2A1109880F8B0B10620A1F8AA011098E2
:10A89000109980F8A8A1109880F8A6B11B20A1F803
:10A8A000A0011098109980F89EA1109880F89CB192
:10A8B0001D20A1F896011098109980F894A1109885
:10A8C00080F892B1E120A1F88C011098109980F8DD
:10A8D0008AA1109880F888B13420A1F882011098DC
:10A8E000109980F880A1109880F87EB13320A1F8EB
:10A8F00078011098109980F876A1109880F874B1BA
:10A900000F20A1F86E011098109980F86CA1109892
:10A9100080F86AB10E20A1F864011098109980F8AF
:10A9200062A1109880F860B10D20A1F85A0110982A
:10A93000109980F858A1109880F856B10B20A1F812
:10A9400050011098109980F84EA1109880F84CB1E1
:10A950000A20A1F846011098109980F844A1109897
:10A9600080F842B10920A1F83C011098109980F8B4
:10A970003AA1109880F838B10720A1F83201109858
:10A98000109980F830A1109880F82EB11620A1F807
:10A9900028011098109980F826A1109880F824B109
:10A9A0000420A1F81E011098109980F81CA110989D
:10A9B00080F81AB13920A1F814011098109980F884
:10A9C00012A1109880F810B13120A1F80A01109856
:10A9D000109980F808A1109880F806B11320A1F80A
:10A9E00000011098109980F8FEA0109880F8FCB033
:10A9F0001220A1F8F6001098109980F8F4A0109891
:10AA000080F8F2B00C20A1F8EC001098109980F8B2
:10AA1000EAA0109880F8E8B01820A1F8E200109899
:10AA2000109980F8E0A0109880F8DEB01C20A1F802
:10AA3000D8001098109980F8D6A0109880F8D4B05B
:10AA40001720A1F8CE001098109980F8CCA010988B
:10AA500080F8CAB01520A1F8C4001098109980F8A9
:10AA6000C2A0109880F8C0B00820A1F8BA001098D1
:10AA7000109980F8B8A0109880F8B6B01A20A1F804
:10AA8000B0001421109880F8AEA0109880F8ACB0F7
:10AA90001098A0F8A6101098109980F8A4A010980B
:10AAA00080F8A2B02B20A1F89C001098109980F893
:10AAB0009AA0109880F898B02A20A1F892001098D7
:10AAC000109980F890A0109880F88EB02720A1F8F7
:10AAD00088001098109980F886A0109880F884B0AB
:10AAE0002620A1F87E001098109980F87CA010987C
:10AAF00080F87AB02520A1F874001098109980F899
:10AB000072A0109880F870B02420A1F86A00109804
:10AB1000109980F868A0109880F866B02320A1F8FA
:10AB200060001098109980F85EA0109880F85CB0D2
:10AB30002220A1F856001098109980F854A010987F
:10AB400080F852B02120A1F84C001098109980F89C
:10AB50004AA0109880F848B02020A1F84200109830
:10AB6000109980F840A0109880F83EB01F20088708
:10AB70001098109980F836A0109880F834B01E20F4
:10AB8000C8851098109980F82CA0109880F82AB0E9
:10AB900029208884109880F822A0109880F820B08E
:10ABA00010980AA901F5834100F2012016F0C8FCB3
:10ABB00010980922109980F86EA24FF48170A1F8C4
:10ABC00066021098109980F864B24FF43810C1F8FA
:10ABD0005C0241F206101099A1F85A024FF43410A9
:10ABE0001099C1F8520241F206401099A1F85002A2
:10ABF0004E201099A1F84A021098109980F848A2A6
:10AC0000109880F846B24B20A1F840021098109995
:10AC100080F83EA2109880F83CB240F20220A1F8E1
:10AC200034021098109980F832B22820A1F82C0232
:10AC30001098109980F82AA2109880F828B2E22083
:10AC4000A1F822021098109980F820A2109880F89C
:10AC50001EB2E320A1F818021098109980F816A2ED
:10AC6000109880F814B2E020A1F80E02109880F835
:10AC70000CA2109880F80AB210981EA901F5814123
:10AC800000F26F2016F05CFC1098092280F878A280
:10AC900010980DA901F5814100F2792016F050FCC1
:10ACA0001098092280F882A210981FA901F580410E
:10ACB00000F2832016F044FC1098092280F88CA240
:10ACC000109814A901F5804100F28D2016F038FC8F
:10ACD0001098092280F896A210981BA901F58141CD
:10ACE00000F2972016F02CFC10981099109A80F81A
:10ACF000C8A22C20A1F8C202109981F8C0A2109914
:10AD000081F8BEB24FF49801C2F8B61240F20521A4
:10AD1000109AA2F8B4124FF45411109AC2F8AC125F
:10AD200040F20511109AA2F8AA1209221099A1F86E
:10AD3000A402109880F8A2A2109880F8A0B21098EF
:10AD400011A901F5804100F2C92016F0F9FB109815
:10AD5000092280F8D2A210980EA901F5804100F2D4
:10AD6000D32016F0EDFB1098092280F8DCA2109891
:10AD70000BA901F5804100F2DD2016F0E1FB1098EF
:10AD8000092280F8E6A2109808A901F5804100F296
:10AD9000E72016F0D5FB109802A901F506544FF4F0
:10ADA000347200F53C70214616F0CDFE1098214615
:10ADB0004FF4347200F5B86016F0C5FE20AD02A85D
:10ADC00000F5065141F69862284616F0FEFD17F888
:10ADD000CE0C0DF5F9548DF87E004FF41A7237F849
:10ADE000D00CADF87C0002A800F50651204616F004
:10ADF000ECFD0DF5805117F8CC0C4FF41A7281F868
:10AE00001C0F0BA800F58040D0F82C0206A901F514
:10AE1000F85621463060109800F50969484616F04A
:10AE2000D4FD109841F69862109980F802AB4EF26A
:10AE30006630A1F8000B1099E648C1F8F8AA1099FD
:10AE4000C1F8FC0A10993068C1F8030B0DF5805069
:10AE5000109990F81C0F81F8070B2946109800F6FE
:10AE60000838404616F0B1FDDDE90D06C6E9000AD6
:10AE70000C98B0600F981099F06042F6B01008443A
:10AE8000DFF8201691E83C0050213CC0142210202D
:10AE9000C6E908211F2286F82C004FF4C020109923
:10AEA000B06242F6CD10084417A916F049FB109A7B
:10AEB00042F60120BDF87C1086F860B011520121E5
:10AEC000C6E913114CF2C071A6F8741086F85EB092
:10AED00086F85CB0DDF840B0BF49C04B5844C04A6A
:10AEE000C04CC6E91B219DF87E1086F85AA0A6F832
:10AEF00058A086F856A086F854A086F876A0C6E931
:10AF00001943817013A9404604F018FE00200C90EC
:10AF10009BF8020B00F006010B91042901F01E833F
:10AF20000BF6D2010F9188B1032840F0A6809BF860
:10AF3000F60A88B3032840F0A4800BF50D60089052
:10AF40009BF8D80A05286CD1012081E10DF500524B
:10AF5000BBF8001BDBF8F84ADBF8FC0AA2F89011FA
:10AF600006A901F5F851C1F8740202A800F50650CF
:10AF700011A901F5804128C80A4628C2008810801E
:10AF80000BF6EC20CBF8E84A0CC90CC0002209886B
:10AF90008BF8F62A018001E0DBF8E84A0DF58041E4
:10AFA0000026BBF8F40A8887CBF8EC4A8BF8CC680B
:10AFB000CBF8C468CBF8C868CBF89C68CBF890682D
:10AFC000CBF89468DBF8F00A0BA901F58045E8603E
:10AFD0000EF01CF9DFF8D0040EF078F8DBF8EC0A7C
:10AFE0000EF048F80EF038F9E868CBF814090DF5C2
:10AFF00080408BF8D86A808FABF818090BF50D608C
:10B0000008900BF6D820CBF8C89ACBF8CC4A8BF82E
:10B010002869CBF810990D90CBF8D09ACBF8D44A88
:10B020004CE004280BF6D8210D910BD0032811D148
:10B030009BF8E40A0BF6E42A88B103283AD1DBF83E
:10B04000E04A47E00F9991F81402B1F8121241EA70
:10B050000045D9E0DBF8C89ADBF8CC4ADCE7DBF83E
:10B06000DC0A34E0DFF844040DF027FF0EF0CEF8E0
:10B07000DFF83C0498E20EF0B3FADFF838040DF084
:10B080001CFFDFF834040DF018FF06AC002004F5B7
:10B09000F85404230121DFF82424C4E99C21C4E9E5
:10B0A0009E30C4F8800202A8DFF8141400F50650A0
:10B0B0000CF049FEDFF80C040DF0FFFE00200BF64B
:10B0C000E42A8BF8E40A0BF52D60CBF8DC0A04685F
:10B0D000CBF8E04A0EF01EFF83462068002840F0BF
:10B0E00056824FF0FF3094F83C102060002004F1AD
:10B0F000140804F10409012903D115F069FE94F83C
:10B100003C00D4E90D12914202D10225C0070DD0B6
:10B11000002084F83C00481CB0F1080218BF024629
:10B12000626358F82150EEB2022E06D11398D0E98E
:10B13000001248460EF0C2FB022620680130206053
:10B1400058460EF00BFF0120022E08BF03208AF89C
:10B15000000025F0FF00304408BF0320C1B2050CF9
:10B16000060A02291ED0DDF840B003296DD0040E76
:10B170008BF8DC0AC0078BF8DE5A8BF8DD6A8BF897
:10B18000DF4A9BD1E8B2062898BF062C2ED90EF0D4
:10B190003DF8CD480DF09AFF28460FF00FF915F055
:10B1A000B8FF13E00EF032F8C8480DF08FFFC84822
:10B1B0000DF06EFFDDF840B0F0B2042803D3042098
:10B1C0000DF07BFF2E4630460DF077FF0EF044F871
:10B1D00074E700BF7EFE739E18E221802426022FB2
:10B1E0002D2B0A091618200BDC460400F1B2A21D13
:10B1F00065F30A21B74841EA02450F9AB64929404A
:10B20000C2F80E02C2F8121202208BF8E40AE8B269
:10B21000022800F0C581DBF8E06A0EF07BFE0446F0
:10B220003068002840F0B38115F0CFFE13AAFDF777
:10B2300023FF15F0B0FEE8B202283FF43FAF280A22
:10B240008BF8E45AABF8E50A04200D990870002049
:10B2500009909BF82809092801F073810690069946
:10B260000BF69C120A92DFE811F00900D101D1011E
:10B270001D002300860045006E006908DBF81009F8
:10B280000024DBF81419CBF8E008BBF81809CBF858
:10B290001A190021ABF81E094FF400400EF0A0FB74
:10B2A00015F06DFF16F03EF8F8B1032001F046B935
:10B2B0009BF89C09002800F08A80032840F07A81DE
:10B2C0000BF634100D909BF854090BF654120BF545
:10B2D0001966DFE810F005008B019B012301BF0018
:10B2E000DBF83C09DBF84049C3E26B481030CBF88F
:10B2F000E4087BE29BF87E090BF62C1E0BF67E1809
:10B30000002869D0032840F059819BF876090BF694
:10B31000761100286ED0032840F05C81109ACDF899
:10B3200034E002F6441902F5176492F87009002817
:10B3300000F00181032840F0498110988B46D0F835
:10B340006C5900F04CBF9BF874090BF67418002878
:10B350004AD0032840F036819BF870090BF63C1662
:10B360000BF5176A00284FD0032840F02F81DBF837
:10B370006C5900F0B6BF9BF85C090BF65C110D919F
:10B380005D460BF5166BDFE810F0AA042D014101B4
:10B39000070047006200600695F8A00905F51A66E7
:10B3A000002800F0D580032840F0248110990796EA
:10B3B00001F66C1A91F89C09002800F0DE80032841
:10B3C00040F00C811098D0F8986900F037BDDBF898
:10B3D0002C09DBF8304940E2DBF878499BF87F091B
:10B3E000B4F80AC000F07BBEDBF83059DBF8344912
:10B3F00000F03BBFDBF82C09DBF83039DBF83429EF
:10B40000BBF874C900F081BEDBF83C09DBF8405999
:10B41000DBF8444900F049BF95F8D40905F6D41685
:10B42000002800F08E80032840F0E880109901F693
:10B43000641801F6CC1991F8CC09002800F0998025
:10B44000032840F0CB801098D0F8C85939E1AB46BA
:10B4500001F00AB89BF89A090BF6581C0BF69A19DA
:10B46000079200287BD0032840F0CC80109CCA466D
:10B47000DDF83CB004F65C19CDF814C094F89009DE
:10B48000002800F07F80032840F0A8801098D0F8B2
:10B490008C5996E3100000009C9C022020000000C4
:10B4A000D83E040058400400210100007840040008
:10B4B0001F000000C8340400A8340400EC56040047
:10B4C000F45604007C3E04001F010000200100002F
:10B4D0001E01000088930220FF07FF00C500000046
:10B4E00021000000602A040098340400A42904000C
:10B4F000D42A0400B4290400682B0400C4290400E1
:10B50000502A0400742904009429040064290400CA
:10B51000CC02022097000000542B04009BF89009F5
:10B520000BF65C180792F8B1032857D110983546EE
:10B53000D0F88C6986E2D9F800008B46109E00F0A6
:10B5400035BEB5F8D229B5F8D019D5F860095EE056
:10B5500095F86619B5F86409D5F86049D4E3BBF8E5
:10B560009419DBF85889B7E2DBF85C09DBF860195D
:10B570004CE2D8F80000109C8AE0DAF80000109D38
:10B5800000F043BCD4F85C09D4F86089FEE20DF009
:10B590003DFE5FF8B8000DF099FD0FF059FE05E093
:10B5A0000DF034FE5FF8C8000DF090FD0DF054FE74
:10B5B0000DF09CFD5FF8D4000DF07FFC5FF8D80023
:10B5C0000DF07BFC5FF8DC000DF077FC5FF8E0002D
:10B5D0000DF073FC5FF8E4000DF06FFC5FF8E8001D
:10B5E0000DF06BFC5FF8EC000DF067FC5FF8F0000D
:10B5F0000DF063FC5FF8F4000DF05FFC5FF8F800FD
:10B600000DF05BFC5FF8FC000DF057FCFEDE0078EF
:10B61000142880F0D28674234FF0000858435FF856
:10B6200010314FF0010A1858C30720D0040C0DF553
:10B630008040A0F8FA200DF58040A0F8F8101EA870
:10B6400000F5814120469DDF0EF09EFFC00712D01D
:10B6500089460DF0DBFD5FF844010DF037FD15F074
:10B6600072FE0DF0F9FD00254FF004085DE00025A5
:10B670004FF0000959E020460FF04AF9109C0021D4
:10B6800004F6CC1904F6641884F8CC19C4F86409DB
:10B69000002104F67412C4F8681904F6CD11C4F838
:10B6A000B82904F668155FF89021C4F8BC1904F6AF
:10B6B000B811C4F8C059C4F8C409FEF7FBF8C4F8BF
:10B6C000C85915F02FFC00287AD10F983546109EE6
:10B6D0003822D0F8A64006F51861D0F8AA90D6F81E
:10B6E00074A91EA800F5814015F02AFF06F6C410C3
:10B6F0000AF084FB06F668100AF0F6FB012086F8D3
:10B70000CC092E46BAF1020F5DD00AA81EA900F599
:10B71000834001F5814115F043FE40460AF0A5FB48
:10B72000200C40EA09451FFA84F80DA8382200F5DC
:10B7300081440AA800F5834115F03BFC0120214615
:10B7400030701FA800F5804015F02AFE9BF87400A9
:10B75000032804BF0BF104000AF087FB5FEACA70FC
:10B760000CD0DDF840B0B8F1030F40F0B486A8B2B9
:10B77000B0F5857F00F0468400F0ADBE0F9E48EA2C
:10B780000544DDF840B03822C6F8B2410BF68C20F3
:10B79000C6F8B6911FA901F5804115F0D1FE0BA89E
:10B7A00000F580400460ACB106F5D9710BF66C1061
:10B7B000402215F0C5FE0025CBF8AC5900F005BEBF
:10B7C000032089F800000320DDF840B03070042029
:10B7D00000F0B1BE0DF01AFDDFF8F40D0DF076FCAF
:10B7E0000BA800F580400AF0F9FCDFE60220DBF848
:10B7F0001A498BF820094FF0C870CBF80C0940F6B5
:10B80000AC22D7480123CBF82149BBF81E49D549C2
:10B81000CBF802090020ABF825490BF51264CBF8F0
:10B8200008194FF4FA71CBF8E8480BF6E804ABF8C6
:10B830000009ABF8EC088BF89C09DBF8E408CBF8BE
:10B84000F0480BF6EC04CBF8F438CBF8F828CBF83A
:10B85000FC18CBF82C09CBF830490021CBF83C0977
:10B860008BF854190BF63411CBF840490BF65412EF
:10B870000D91CBF834090020CBF8384904268BF819
:10B880005309D4F804A0BAF1000F1CBFD4F8088003
:10B89000B8F1000F01D10D9DCCE10DF500510792DB
:10B8A000A1F8940106A901F5F8510D9DC1E99C008C
:10B8B000C1F87802217E49B101210122CDE90010B1
:10B8C00002A800F50650002102F080FF607EDDF83E
:10B8D0003C9050B100200121CDE9001002A800F5F4
:10B8E00006500221012202F071FF0DF50051E07DAA
:10B8F0000DF50052B8F5807F81F889010DF50051F2
:10B90000A08AA1F88E01D4E90301A2F88A010DF5FD
:10B910000050A0F88C1180F05C83504641466EDFE9
:10B920000EF032FEDFF868AC0E46012813D002A8F4
:10B93000012100F506504FF001080FF045F994F988
:10B9400016200021022077DF0EF01EFEDFF844AC47
:10B950000E46C00710D00DF059FC50460DF0B6FB56
:10B9600015F04EFC0DF078FC4FEA16684FEA062AF7
:10B970004FF0000907265CE102A8002500F50650FB
:10B980000630026843680DF50050B0F8881106A82B
:10B99000DDF840B000F5F8500293D0F87202CBF811
:10B9A0004609DBF83809C9F87C3001230392C9F84D
:10B9B000782000F11C0204910020ABF844190BF62A
:10B9C00044118BF858898BF853898CDF15F02AFCC9
:10B9D0000DD115F07EFADFF8D40B0DF077FB15F0E2
:10B9E000BFFA0DF039FC15F0F9FC072629E1DFF864
:10B9F000980B0BF652118BF890590BF519665030D5
:10BA0000CBF85C09CBF860190BF65C180022CBF878
:10BA10006419CBF868290BF674120BF66411CBF895
:10BA20007C29DFF8742B3546CBF880190BF67C1196
:10BA30000BF66816CBF88469CBF88809FDF73AFF56
:10BA4000CBF88C69139930460F9C0AF0AAFE0028A7
:10BA500040F0A882109DD4F8A26005F68810D4F8B2
:10BA6000A6400AF0CBF905F668100AF03DFA01206D
:10BA700085F89009B5B2092D00F0978240460AF08A
:10BA800074F9300C40EA0449082D5DD1DDF840B06E
:10BA90000DF50050002480F888418BF853498BF84D
:10BAA000529902A800F506500AF008F9DBF8381997
:10BAB0000BF65218DBF834090BF69A190BF6581CE2
:10BAC00031F8022B002A08BF014609888BF89A49F1
:10BAD000ABF89419CBF85889ABF8961998F8000090
