:020000022000DC
:10600000D06C0320016102002B9202004DBD020002
:106010002B9202002B9202002B9202000000000043
:106020000000000000000000000000002B920200B1
:106030002B920200000000002B9202002B92020023
:106040002B9202002B9202002B9202002B92020054
:106050002B9202002B920200B19802002B920200B8
:106060002B9202002B9202002B9202002B92020034
:106070002B9202002B9202002B9202002B92020024
:106080002B9202008D9902002B9202002B920200AB
:106090002B9202002B92020025A502002B920200F7
:1060A0002B9202002B9202002B9202002B920200F4
:1060B0002B9202002B920200000000000000000062
:1060C0002B9202002B9202002B9202002B920200D4
:1060D0002B9202002B9202002B9202002B920200C4
:1060E0002B9202002B9202002B9202000000000073
:1060F000000000002B920200000000002B92020022
:1061000003F094F80E480F490022814201D004C0E8
:10611000FBE70D480D490E4A814202D008CA08C06B
:10612000FAE70C484FF47001026842EA010202608B
:10613000BFF34F8FBFF36F8F02F000F900DE000056
:10614000740002202C8F0220000002207400022024
:1061500030CF020088ED00E0B0B502AF054603F095
:10616000FDFC0446D5E90021A8680223012A2B6022
:1061700004BF496888472046BDE8B04003F012BD1F
:10618000B0B502AF86B00D4610490968C9050CD1FB
:106190001149144602F00DF8026862B9C0E90054D2
:1061A00008680130086006B0B0BD05F085FB0849FD
:1061B0000091084904E005F07FFB08490091084977
:1061C00005F05BFB684602F02CFA00BF04ED00E02E
:1061D00058C60200D0C6020014BF02004CBF020025
:1061E00054BF0200F0B503AF2DE9C00B0D46116896
:1061F000002900F0CD802988112906D18068144635
:10620000FFF7AAFF00202060BFE0AE880468304698
:1062100003F01CFFC00700F0BD8028888946502885
:1062200034D0512816D0522840F0AC80304603F0CC
:106230000DFFC00700F0A68008460D468DF800103F
:1062400003F03EFF002851D0CA6B694690479DF885
:10625000005094E0A879022840F0A480A87B04F0C4
:10626000D3F8C0B2002840F0AA8003F0EBF86048F1
:1062700003F04CF8A87B03F01DFE03F009F9484633
:10628000BDE80C0BBDE8F04001F0B8BE287B04F07F
:10629000BBF8C0B2B0B1236805F11201E8882A8AC0
:1062A0005C88844219D1CAB30C7803F0CBF8544807
:1062B00003F02CF8534803F017F804F0010003F042
:1062C0001CF807E003F0BEF8524803F01FF8287BE3
:1062D00003F0F0FD03F0DCF854E09B88834251D1D9
:1062E000082A1ED377D10868496822E0284604F0BE
:1062F00095F8022843D00646884603F0A3F846489E
:1063000003F004F8454802F0EFFFF00732D0012017
:1063100002F0F3FF404603F0B1FC2EE09B8883427D
:1063200030D10020CDE90000684605F00BFBDDE927
:106330000001020A8DF8000042EA0162090A080C15
:10634000CDF80120ADF805108DF8070003F07AF8BC
:106350002D4802F0DBFF2D4802F0C6FF2C4802F06A
:10636000C3FF00246D46082CB4D0285D02F0C5FFA1
:106370000134F8E7002002F0C0FF03F089F8284656
:1063800003F006FE484603F003FEBDE80C0BF0BD2B
:1063900002F078F903F056F8134802F0B7FF03F063
:1063A000B3FB14E0012806D1484601F0A7FE03F034
:1063B00049F8104809E003F045F80F4805E0484661
:1063C00001F096FD03F03EF8084802F09FFF03F04D
:1063D0005FF802F0ABFF03F035F8084802F096FFD3
:1063E00005F030FAF3E700BF3F0000003D00000079
:1063F000420000003C000000430000005C00000080
:1064000064000000060000006500000004000000B9
:1064100008000000410000004000000045000000AE
:10642000F0B503AF2DE9E00F0E889146D0F800A03B
:106430000546102E0DD000201B2E2DD0262E2BD041
:1064400003F000F8374802F061FF304603F008FC23
:106450005FE0C87B0C46B1F804B003F02FFFD4F81E
:106460000B308046CDF80730D4E904C12B4BA2682D
:10647000002401920022B2F5116F09D09E1896F8FF
:10648000690010B93078012812D101347432F2E772
:106490005846142176DF0120E1B2CAE90001A8685C
:1064A000FFF75AFE0020C9F80000BDE80E0FF0BD4E
:1064B0000120C6E901C1307006F10C005821A6F890
:1064C00002B005F04DFB40F20110DDF80710A6F810
:1064D0006800002086F866001720A6F864001B20DC
:1064E00086F871000198C6F86A00584686F86780F9
:1064F000C6F86D1003F0D4FD0178012904D0012104
:10650000447001700320C7E702F09CFF044802F0CA
:10651000FDFE02F0BDFF02F009FF00BF3C020220B9
:10652000200000003A000000F0B503AF2DE9000F95
:10653000ADF5FE7D8246DFF8E4090E906AA8811C65
:10654000043002909AF81C039C4E9D4D0391CDF8A7
:106550003CA0CDF828A0B0B3032840F038849AF8C6
:106560001403002878D09AF8A001042800F0C5830D
:10657000032840F0CF839AF81C020AF5D47C0AF570
:106580000779002800F0CA83032840F03C849AF879
:1065900019020AF5E2740AF2192B002800F0D383DD
:1065A000032840F034849AF8F8010AF5FC75CDF818
:1065B00020C0002800F0CC83032840F02C84DAF8B7
:1065C000F46100F075BDDAF8188302F03BFFDFF8E4
:1065D000780E02F09BFE02F05BFF7A49402081F8C2
:1065E000210085F8000303F0B9FADFF8601E4A794C
:1065F000012A00F0F08301224A7103F0D3FA7248B5
:106600007249734D0068C0F3072045280ED901F187
:1066100008000E465A215A2403F08AF8C0B23146C7
:10662000B0FA80F0C5F85045460900E0002608465B
:106630008B46122103F07CF8C4B20BF10400122146
:10664000D94603F075F8C0B24CB1B0FA80F14909EF
:106650000E43022C04D105E0DAF8F88293E001261B
:10666000022807D102F0EEFEDFF8E40D02F04EFE44
:1066700002F00EFF09F10C000021012203F05CF88A
:10668000002E40F0AD83C0B2002800F0A9834B4E2D
:106690000020C5F81005C5F8FC0001202860D5F8D9
:1066A000FC000028FBD04FF0A040454D4290002058
:1066B000439642A901224FF0FF33082806D00C5818
:1066C0000430C4F82425C4F82035F6E73D4A4020BC
:1066D0006021C5F88001117028604FF000413D48ED
:1066E00093463D4A01604FF400013C4881643C49B7
:1066F000C1F8042301228A600A6001680029FCD1E4
:106700006020384B8BF80B004FF4003028600420D9
:106710004FF4007158634FF48062D863C3F8DC0211
:106720009860C3F8EC02C3F8F402C6F80C12032117
:106730001960C6F80C224FF400625960C3F8E820D3
:106740004FF40052C3F80813C3F8E8204FF4004296
:10675000C3F81013C3F8E820C3F81813C6F80C02E6
:106760000020C6F808148AF814031F48CAF810035A
:106770001E4C1F481F4A2049204BCAE9BE84CAE963
:10678000C032CAE9C21042AC00200021482905D01D
:10679000621860500C31C2E90100F7E710A82146E9
:1067A000482205F02FFA0AF53F760020002124291F
:1067B00026D06218605006319080F8E70003005040
:1067C00000E100E006E400E0040100100012001007
:1067D0000800004004630040020008000415014066
:1067E0000010014024070050739E66E31618200B2A
:1067F000C0C77EFE2B2D2F0218E221802426090A15
:10680000AB4622AD05F1080042A9242205F09AF812
:10681000BAF80C030DF1B409ADF850014A22DAF8C8
:106820000803539042A9484605F0ECF90AF1280004
:10683000002429462C22CAE9084405F083F80AF10D
:10684000540010A9482205F0DDF9306849464A2273
:10685000CAF84081CAE92740B088AAF8A400DAF84B
:106860000203CAF8A600BAF80603AAF8AA000AF5B5
:10687000A27005F0C7F9BAF81203AAF89201DAF883
:106880000E038AF8A041CAF88E010AF120010AF12C
:10689000B000902205F0FCF8BAF88C010025AAF8A7
:1068A00098010022DAF888010023DAF88E11012419
:1068B000CAF89401BAF8920140910121CAF84481C2
:1068C000ADF804018DF8085142A801F0D3FA9DF803
:1068D000086102218DF8085142A80122002301F02D
:1068E000C9FAB64906229DF808014FF4B06301F5D4
:1068F00088318AF866210422DFF8508BCAF87D11AE
:1069000018218AF8756100028AF874210AF5A679BF
:10691000AB4AAC4ECAE95A154FF01411CAF87021AF
:10692000DFF8302BCAE9524008F10700CAF860616D
:106930000AF271168AF87C41AAF86441AAF87A51E1
:10694000CAF87651CAE95421CAE95643BFF35F8FAA
:10695000D0E84F1F002940F00182C0E8414F0029D4
:10696000F6D1BFF35F8FDFF8F01A9AF87C010028A8
:1069700018BF0AF27D1010DF04F0A7FF40F002827A
:10698000BAF86411BAF8680111F0010108BF0320D8
:1069900001259AF86621ADF80C0100298DF80851FF
:1069A00008BF2A468DF80A2142AC2020214603F078
:1069B0009BFDBAF8600160B1BAF862010021CDF820
:1069C0000A012320CDF80E118DF8085142A903F0D9
:1069D0008BFD9AF86A0101280AD19AF86B018DF8AB
:1069E0000A0101208DF8080142A9212003F07CFD55
:1069F0009AF86C0101280AD19AF86D018DF80A0104
:106A000001208DF8080142A9222003F06DFD9AF8BB
:106A10006E01012807D19AF86F018DF8080142A98B
:106A2000012003F061FD9AF87001012808D1307946
:106A30008DF80C013068429042A9402003F054FDCB
:106A4000DAF84801012807D199E80E0020460EC067
:106A50002146412003F048FD9AF87601012807D12C
:106A60009AF877018DF8080142A9422003F03CFD15
:106A70009AF87801012807D19AF879018DF8080170
:106A800042A9432003F030FD9AF87A01012807D18A
:106A90009AF87B018DF8080142A9A02003F024FD9B
:106AA000DAF85801012806D1DAF85C01429042A9CF
:106AB000A12003F019FDDFF8A459429542A860DF38
:106AC0000446429E02F0BEFCDFF8940902F01EFC70
:106AD00006F1604003F0C4F802F0DAFC204604F04E
:106AE000F4FE40F054814298A8420AD202F0AAFC77
:106AF000DFF8700902F00AFC429803F0B1F802F0E6
:106B0000C7FC4FF48000CBF80000DAF86001C10741
:106B10004FF0170118BF010C404620F8081FCAF8B3
:106B2000840102208DF808014098CDF80901BDF8D4
:106B30000401ADF80D0142A86CDF04F0C6FE40F080
:106B4000368103F00BF8D8F818400646ECB9DFF8A8
:106B500018194FF4004001F500450A58002A08BFF3
:106B60000A4612F0070318BFC3F1080303F15004EB
:106B7000AD1AAC4200F23F8114440C50D41850219D
:106B8000204605F091F8C8F81840304603F00AF89E
:106B9000002040F20111502800F0E9802618503002
:106BA00006F1080252E8003F23B942E80013002B27
:106BB000F8D109E0BFF32F8FEDE700BF000001011E
:106BC0000101040401000001DFF8A008706106F172
:106BD000200004F007FDDAF84401314602F031FDEF
:106BE000DFF88C0803F04AFB0025ADF8E8018DF8CA
:106BF000EA11A7F1320227F8325C7AA901200126B6
:106C0000A8DF04F062FE40F0D780C2484FF00808C9
:106C1000CDF8A2014FF0020B8DF8A661A7F11D0A75
:106C200081464FF48070CDF8C201DFF848088DF836
:106C3000C661B94ECDF8C7518DF8CB51ADF8B851FA
:106C40000325ADF8A081CDF89CA1CDF8D1618DF8D8
:106C5000D0B173968DF8B25137F8324C03F00EFB79
:106C600002460B4667A86AA9CDE900017AA8214629
:106C700003F00EFDBDF8E801002840F081800120FE
:106C800000218DF8E2018DF82401DFF8EC078DF882
:106C90001251CDF8DE91ADF8DC81CDF8D8A1CDF858
:106CA0002511ADF82211ADF82911CDF831614B96BF
:106CB0008DF830B18DF82BB1ADF81811DDF8EA512F
:106CC000DDF8EE6103F0DAFA02460B4676A842A937
:106CD000CDE900017AA8214603F0DAFCBDF8E8010D
:106CE00000284DD1DDF8EA01DDF828A0C6EA004011
:106CF000CAF89C01AAF89A5195E09AF8B801DFE821
:106D000010F0060030053005100056054606DAF88A
:106D1000B00122E2DAF84081AB46B6E5DAE96F0B62
:106D2000A6E00AF5E07004900AF5E47005909AF880
:106D3000C801DFE810F005007400160576021000A7
:106D4000049A10681FE2CDF834B0DAF800B29FE080
:106D5000DAE9710297E1DAE998B097E2BFF32F8F91
:106D6000BFF35F8F02F06EFBDFF8400EE6E302F048
:106D700069FBDFF8140E02F0C9FA01F037FADFE31D
:106D80007B9C1AE004F081FDDFF8240E2EE00C4617
:106D9000042927D1429C02F055FBAC4230D9DFF8E0
:106DA0001C0E02F0B3FA429802F05AFFC8E302F058
:106DB00049FBDFF80C0EC1E30C4602F043FBDFF8A1
:106DC0008C0E02F0A3FA204601F002FAB8E3DFF8D5
:106DD000D40D02F017FA02F035FBDFF8780EADE3C0
:106DE00002F0D2FC02F02EFBDFF8C80D02F08EFAA2
:106DF00004F051FDA4E302F025FBDFF8540E9DE3FF
:106E0000DFF8B40D9AE3DFF8980D02F0FBF9DFF834
:106E10008C0D02F0F7F9DFF8800D02F0F3F9DFF8DE
:106E2000740D02F0EFF940F201110020CAF82A12A5
:106E30004FF4C871CAF8241240F20121AAF8A8112F
:106E40000AF5087BDAF894110AF50779CAF8AA114D
:106E50000AF5D47CBAF898118AF82802AAF8200218
:106E60008AF81C02DAF88401AAF8AE11CAE96F0B9D
:106E7000CAE97F0B614691E87C000AF501707CC08D
:106E80000AF5E27400208AF819020AF219200D901E
:106E90000AF5027E9AF8045201200C948AF818022E
:106EA0000AF506729EE80940DAF81442BAF80612AA
:106EB0009AF80582CDF82C90CDE908C2DFE805F0FC
:106EC00003301E210F00479444A94FF0010AA1E8A6
:106ED000094000268DF821A14FF0000830E04FF066
:106EE000070ACDF80B0100208DF821A18DF80F3194
:106EF000ADF809114690CDE944E420E04FF0020AD4
:106F000010E044A94FF0060A002649C18DF821A1DE
:106F100016E000BF010000010000010180C5020071
:106F20004FF0030A8DF809814FF000088DF821A178
:106F30004390ADF80A11CDF81881CDF810810126E3
:106F40000DF5D479002518218DF8228148468DF859
:106F500020518DF8086104F003FE09F101000021C1
:106F600001228DF8A8A1CDE90055012403F0BCF859
:106F700042A8002E18BF461C9BF80A008DF8BD01E0
:106F80009BF80B006B968DF8BE01DBF804006C904B
:106F90009BF80C008DF8BC01BBF80200012898BFDB
:106FA0002046BBF80010002908BF0846ADF8B40120
:106FB0009BF80900012888BF04469BF808000028B8
:106FC00008BF044609F11700002104228DF8B641DC
:106FD000CDE9008503F088F8DDE9440103F0B0F95C
:106FE00004460D46DDE9460103F0AAF9ADF8EC517F
:106FF0004A46DFF8D05B7C90ADF8F4117A947AA918
:10700000284672DF02F078FFDFF8BC6B8846C007C5
:1070100015D19BF90D200120297877DF02F06CFF54
:10702000DFF8A86B8846C00709D12878012173DFF3
:1070300002F062FFDFF8986B8846C00712D002F0BA
:1070400001FA304602F062F9404602F017FE02F003
:107050001FFA099800F062FF0225DDE90AA9DDE9BF
:107060000C4B45E0DDF828A00020099A0AF5FC75D4
:10707000DDE90B948AF8F801DFF82C0BDDF834B069
:107080005430CAE9710200210AF5E876CAE9732191
:107090000AF5E6710AF5EE72CAE97B60CAE9792160
:1070A0000AF5F271DFF82C2BFFF76AF8CAF8F461E1
:1070B0000EA9304601F0A0F8002840F00E820AF533
:1070C000F870DAE9775800F069FF0AF5E87000F027
:1070D0008DFF0120042D8AF8F80100F0008220467F
:1070E00000F041FF00208DF8080142A800F016FFD3
:1070F00001268BF8006094F85500032806D120463D
:1071000000F031FF04F1540000F008FF032D89F86E
:10711000006057D140468AF8A18103F07FF9D74E2D
:10712000022840F0FD81089A0AF2A111CAF86822EB
:107130000AF5CD720020CAF888128AF8F0028AF89F
:1071400090028AF870028AF8B8010AF1B000CAE920
:10715000AC12CAE96A21CAF8B001CAF8B40102F057
:1071600071F9DFF87C0A02F0D1F802F091F9002001
:107170000AF5E4718AF8C8010AF5E072DAF8B40198
:10718000CAF8C0010591CAF8C4010168C9072BD02B
:107190000492D0E9025402F091FA421B71EB04020E
:1071A000C0F0C381401BA141423871F10000049836
:1071B000C0F07781DAF8C4010021C0E90011DAF8E3
:1071C000C40112E002F03EF9DFF80C0A02F09EF86A
:1071D000DFF8080A02F088F8002D00F07181012D17
:1071E00040F0728101206CE104928630002101227E
:1071F00006290DD0A24C435CE434202B03F01F037E
:1072000038BF06F50274013102FA03F32360EFE799
:1072100001200021002402F07DFCCAE974018AF8F3
:10722000D8410AF5E8700EA902F07EFC08B10320EF
:10723000DEE002F007F9DFF8AC0902F067F802F0CF
:1072400027F9DAF8C411002066900AF5E67B803150
:1072500042AA00230024062B0FD0CD18062C80F064
:107260004A8104EB4404013342F8345002EBC40475
:107270002075669C01346694EDE742A95846942235
:1072800004F0C0FCDAF85C02CAE998B000EB4000F8
:107290000022C0004FF000085C4608900898404566
:1072A00000F0A3800BEB080ECDF834E09EF814003C
:1072B000D0B1032840F02881F4461CF8100FACF13F
:1072C0000C01D8B1032840F02381F14619F80D0FC5
:1072D000A9F10506002800F08080032840F01C81F9
:1072E0009EF80C50079129E05BF80800F4464CF832
:1072F000040FCDF81CC00CF80C2F04E0201D0790E3
:10730000086804F1100C764646F8080F06F10509E6
:10731000726001785A4A202901F01F0102F5377284
:10732000564B38BF03F5806252F82130022565F3D1
:10733000114342F8213005788EF80C502F2D069617
:10734000CDF830C000F2D180DA4602F007FC0B9095
:107350000021DFF8A40800EBC50650F835B040F86E
:1073600035107268BBF1000FDDE90E1003D08242C8
:1073700008BF8B4510D009680992884704F0ADFA20
:1073800001D0D96888473D4EBBF1000F07D0DBF82C
:107390000C100998884702E0C6F800B0374E0B98E9
:1073A00002F000FC364805F01F01202D00F5377073
:1073B00038BF06F5806050F8210010F4403F1BD024
:1073C0000C99032089F80000183408F11808D346F6
:1073D000087000220D99087560E704F10802306812
:1073E00004F10D090791164693E70420DDF828A063
:1073F000059908700320A7E00D9C04F10C0002F031
:107400006FF90698012589F8005000F063FD0C988B
:107410000570079800F065FDDDF828A000212575AE
:10742000DAF8C401863006292CD0154B425CE833CB
:10743000202A02F01F0238BF06F50373013105FA56
:1074400002F21A60EFE700BF09000000CC8E0220B4
:107450001300000044C0020071A4020000000220DA
:107460004F00000053000000480E0220F5A8020063
:10747000FCCE0200ECCE02000CCF02000003005054
:107480002407005002F01AF9DAF8C421002301247D
:10749000C2E902010AF5E670C2E9004300F031FDDD
:1074A000049801218AF8C81100F056FDDAF8B401F9
:1074B0000AF5DE73002200F18C01863007C351E12A
:1074C000002001F01AFF05E0022001F016FF4046FF
:1074D00002F0D4FB01F0DCFFA5E4032028700320B8
:1074E00089F800008BF8000067E2DFF808272846DB
:1074F000302100F053FF00206A958DF8BC016AA886
:1075000000F0F8FC01F03AFEDFF8E40601F07AFE44
:10751000DFF8D80601F076FEDFF8CC0601F072FE47
:10752000CDE9420142A801F0F8FD01F08BFFDFF840
:10753000180701F0EBFE02F0E7FA01E001F0E6FEC9
:1075400001F0A6FF01F0F2FE8AF8B8010AF52C76E8
:107550009AF8F002012400F0060104296BD078B1FA
:10756000032840F0EE809AF8EC020AF52E780AF52E
:107570003B7428B3032840F0EC80DAF8E8523AE094
:10758000DAF8B0020078142880F0FB8274214843B6
:10759000DFF890160858C10744D0000CDAF8B4524E
:1075A00002F04AFE0021CAE9AE058AF8EC120AF29E
:1075B000F121CAF8C0120AF53B740AF52E7803E0EF
:1075C000DAE9AE05DAF8C012CAE9B15100220AF2CE
:1075D000ED21CAF8CC220AF531720AF53375CAE9F1
:1075E000B6210AF53671DFF84026CAE9B850FEF731
:1075F000C7FDCAF8E8520EA9284600F0FDFD18B1F3
:1076000003202070002414E00AF5397000F04EFDCC
:107610000AF5337000F0EAFC01208AF8EC024046DB
:1076200000F032FD012430468AF8F04200F0ADFC53
:1076300004208AF8F0029AF89002042841D8DFE882
:1076400000F0038490113200DAF888020021CAF8B1
:107650008C024FF42030002502F05CFACAE9A60142
:107660008AF8A0520AF526700EA902F05DFA0028E9
:1076700045D1DAF88C02007802F0D2FC80B2012801
:107680001CD1AAF8941288B2DFF8A415002575DF82
:10769000CAF8980240F26760002102F03BFACAE99A
:1076A000A8018AF8A8520AF528700EA902F03CFA3F
:1076B00038BBBAF89402DFF87C1575DF05208AF82C
:1076C00090020CB39AF8F012042902BF05218AF83F
:1076D000F012052830D106208AF890029AF8B801F5
:1076E000032804BF0AF5E07000F036FC304600F0D5
:1076F0004CFC9AF8A10102F04BFCFFF794BB03206D
:1077000000E004208AF890029AF87002DFE810F096
:1077100006002900290011000B002002DAF8680297
:10772000CAF86C0255E19AF88002B0B9DAE99E1AFB
:10773000B0E1DAF874424FE101F084FEDFF8F804BA
:10774000FCE6DFF8D80401F05DFDDFF8E00401F0AD
:1077500059FDDFF8C40401F055FDDFF8E00401F045
:1077600051FDFEDE884200F00981411CCAF8BC11BF
:10777000DAF8C411CAF8C8110131CAF8C411CAF83C
:10778000CC01CA490078E431202800F01F0038BF3E
:1077900006F50271012202FA00F0002408600120BF
:1077A000002102F0B7F9CAE974018AF8D8410AF554
:1077B000E8700EA902F0B8F908B10420C4E6DAF8BE
:1077C000B4014FF07D0B4FF0000980300D90B9F1FE
:1077D000060F00F0C1800D98514610F809A0B3487B
:1077E000EC30BAF1200F38BF06F50470D1F8C8416B
:1077F000D1F8B461D0F80080062C80F0D48001F07C
:107800005DFFA0FB0B0201FB0B21000B40EA0151C5
:10781000F06F0A1A100428D00AF01F00012304EBAD
:10782000440403FA00F010EA080506EB840006EBB6
:1078300044044C4400EB4900838E247C18BF01258E
:10784000A5420CD00A2B2FD24FF6FF7192B25940AD
:1078500091424FF0FF3188BF591C818605E091B2FB
:107860005A1E8B4238BF00228286DDF828A0DAF843
:10787000C801062880F0958000EB4000DAF8B411CA
:10788000C24E01EB40004844007C012809D101F0C0
:1078900015FFDAF8B421012313600023C2E9013097
:1078A000D16009F1010992E70A9AF1670021818606
:1078B000D2F8C80106287BD200EB4000D2F8B41100
:1078C000D14C01EB40004844017C81F0010101747E
:1078D000D2F8C861062E6DD206EB4600D2F8B4117C
:1078E00001EB40004844057C02F038F980462068EE
:1078F000002840F03E814FF0FF30206094F87C007B
:1079000060B100202060404602F04CF901F09AFD81
:10791000BF4801F0FBFC01F0BBFDA6E7A16F3004FE
:1079200000EB0920284401EB4101020C21448A7537
:107930008882D4E91D010131B1F1200218BF0A4645
:10794000A267904204BF012084F87C00201D02F051
:107950008BF803F0A3FF88E7DAF8CC118C4809789C
:10796000E830202901F01F0138BF06F5037001221D
:1079700002FA01F10160DAE96F01F3E60420002167
:10798000002402F0C7F8CAE970018AF8C8410AF574
:10799000E0700EA902F0C8F800283FF4E8AB05201B
:1079A000D2E59C4A01E0954A2046062100F0F6FC0B
:1079B000934AFAE7934A3046F7E78AF8A001032092
:1079C0008AF814038AF81C030DF5FE7DBDE8000F4C
:1079D000F0BD8D4CCAF8744202F0C0F880462068B1
:1079E000002840F0C6804FF0FF300AF51D7A206075
:1079F00004F1140594F87C000021012805D104F15C
:107A00000C0002F031F894F87C10D4E91D02904289
:107A100001D1C90714D0411C00EB4000B1F1200294
:107A200018BF0A460021626784F87C10295A28444E
:107A3000807841EA0040C6B24FEA1029022E17D1E1
:107A400065680E9945B1D4F808B00F98834504BF16
:107A500002268D4203D10BE0D4F808B00F980968D4
:107A600088470226C4E9010115B16968584688476C
:107A700003F014FF022E75D00A9A0020D2F86C127F
:107A8000A2F8769282F8756282F8800282F8740217
:107A9000C2E99E1A0020CDE96A009AF800203AB1A6
:107AA000039A01208DF8A8010AE000BF24070050C6
:107AB0008DF8A801BAF80200ADF8A9010320029AD6
:107AC0006AAB18449AF801300370486800781428AB
:107AD00057D27423DDF828A05843524B1858C507D5
:107AE00017D06AAB0968D21A000C0988ADF8E821F2
:107AF00045937AAA44920022ADF80C2101228DF818
:107B00000A21ADF8081142A9AEDF03F0DEFE14D061
:107B10000C4601F097FC4A4801F0F8FB494801F097
:107B2000E3FB2DB1012001F0E8FB03F0B4FE02E01D
:107B3000002001F0E2FB01F0ABFC012000218AF8FB
:107B40008002002401F0E6FFCAE99E018AF8804223
:107B50000AF51E700EA901F0E7FF00283FF439AFC7
:107B6000052002E0DDF828A003208AF87002042036
:107B700023E701F067FC254801F0C8FB02F076FD21
:107B8000DEE4274A03F07EFE61000000000300509F
:107B90002407005060C10200E4BF0200E4BE0200FE
:107BA000F4BE0200C4C10200CC8E02204D000000D1
:107BB0004E00000052000000500000005100000084
:107BC000470000007000022036000000370000006F
:107BD00038000000D0BF0200630000003400000045
:107BE0005E0000005D00000044BE020054BE0200C2
:107BF00064BE020014C60200B800022070C1020078
:107C000080C1020090C102004C8E0220550000008D
:107C10005F000000A0C1020078BF020004BF0200A4
:107C20005CC802003C02022064BF020004C00200E3
:107C30002CC002001CC002005A00000034BE02002A
:107C4000600000004400000014000000620000001A
:107C50005B000000120000000022C0F8F81280F85B
:107C6000FC227047F8B504AF834601F077FF7B4CE8
:107C700006462568F5B97A494FF4004C01F50040F5
:107C800051F80C20002A08BF0A4612F0070318BF5B
:107C9000C3F1080303F54875801A854200F2D880C5
:107CA0005019D51841F80C004FF44871284603F0DC
:107CB000FBFF2560304601F075FF002040F2011106
:107CC000B0F5487F00F0B9802E1800F5487006F135
:107CD000080252E8003F23B942E80013002BF8D114
:107CE00002E0BFF32F8FEBE75E48706106F12000E2
:107CF0005946FFF7B1FF5846314601F0A2FC4FF05C
:107D0000FF384FF000094FF0010A0BF10800019015
:107D1000CDF800B09BF80C005A46534901F05EFDC7
:107D200001F0CCFCDDF804B006460D46DBF800405F
:107D30002CB3D4E90001301A75EB01001CD304F117
:107D4000080050E8001FCA050ED4CA070CD041F441
:107D5000807140E80012002AF3D12069791E029454
:107D600002AA01F04FFC01E0BFF32F8FA069CBF80E
:107D7000000084F80A90D9E704F1180BD6E7BFF3A6
:107D80005F8FDDF800B05BE8006F4BE800900028E3
:107D9000F9D1BFF35F8F16B33546C6E90088F668A0
:107DA000287A85F809900028F5D06969284688471F
:107DB000D5E9000181EA080180EA08000843EAD019
:107DC00005F10A00D0E84F1FC0E842AF002AF9D100
:107DD0000029E0D101990868A8610D60DBE74FF048
:107DE000FF324FF0FF33DDF804C0DCF80010D9B1EA
:107DF000D1E9004585EA080684EA08003043161BED
:107E000073EB05064FF0000638BF0126002E04BFB5
:107E10002B46224628B98869CCF8000081F80A90E0
:107E2000E3E701F1180CE0E79BF80C0001F0ECFC33
:107E300000283FF475AF20BF6CE701F003FB0B484F
:107E400001F064FA00F0D2F901F022FB01F06EFAC1
:107E500001F0F8FA064801F059FAF5E7740002203B
:107E6000480E0220296502006596020011000000FC
:107E70005B000000F0B503AF2DE9800F0678CDB2AE
:107E800098469146824600244FF0010BA54214D03B
:107E9000082C14D048464146224603F04BFEC0074A
:107EA000E0B20BFA00F046EA000108BF26EA000142
:107EB0008AF8001001340E46E8E703F015BD024AC7
:107EC0000120012100F06AFA60C70200FEF78AB9BA
:107ED000FEF7A6BA4179032904BF043001F000BCC3
:107EE0007047017B032904BF0430FFF7F3BF7047DD
:107EF00000F084B8017D032904BF0430FFF7F1BF0F
:107F00007047B0B502AFD0F8905004462DB120466E
:107F1000FFF7F0FF013D1834F8E7B0BDD0B502AF70
:107F2000017800220270012910D10948007874DF1D
:107F300003F0E1FC0AD103F0A8FC064801F0E6F9E1
:107F400003F0A9FCBDE8D04001F0A2BAD0BD00BF4B
:107F50007000022039000000017A042904BF0C30AF
:107F6000FFF7CFBF7047D0B502AF044690F834009A
:107F7000032818BFD0BD04F12C0000F00FF804F165
:107F80000C00BDE8D04000F031B890F84010032953
:107F900004BF083000F078B87047D4D4FEB506AFFF
:107FA0000146006800220A6058B10C490968C905F9
:107FB00009D10D4900F0FDF8002202600868013087
:107FC000086006B080BD03F077FC054900910549C3
:107FD00003F053FC684600F024FB00BF04ED00E012
:107FE00058C60200D0C60200F4BF02000168012991
:107FF00018BF7047D0E90110C9680847F0B503AF52
:108000004DF8048D84B0044601F01CFA1C4801F0C0
:108010007DF902204FF0020801F04CFF01F038FA20
:10802000204601F0FDFF80B2012814D100200D464A
:10803000002602F013F903F037FCCDE90266694629
:108040008DF80080B0DF01F057FF01380D46B0FA1F
:1080500080F0460902E0012643F20205204601F0C5
:1080600097FF46B101F0EEF9064801F04FF903F031
:108070000FFC01F00DFA04B05DF8048BF0BD00BFF9
:108080003000000031000000D0B502AF044690F887
:108090003400032818BFD0BD04F12C0000F006F80E
:1080A00004F11400BDE8D040FFF7A0BFFEB506AF55
:1080B0000146006800220A6058B10C490968C905E8
:1080C00009D10D4900F075F80022026008680130FE
:1080D000086006B080BD03F0EFFB0549009105493B
:1080E00003F0CBFB684600F09CFA00BF04ED00E013
:1080F00058C60200D0C60200C0BF0200F0B503AFF0
:108100004DF8048D84B0044601F09CF91B4801F041
:10811000FDF80120012601F0CDFE01F0B9F920465D
:1081200001F07EFF80B2012815D100200D464FF0EE
:10813000000802F093F803F0B7FBCDE90288694626
:108140008DF80060B0DF01F0D7FE01380D46B0FABF
:1081500080F0460901E043F20205204601F018FFD5
:1081600046B101F06FF9064801F0D0F803F090FB3A
:1081700001F08EF904B05DF8048BF0BD3000000012
:1081800031000000F0B503AF4DF804BDD0E9004C5C
:108190000246806891E86800012C68C206D1DCF8CC
:1081A0000C105DF804BBBDE8F04008475DF804BB67
:1081B000F0BD0246006828B94FF0FF31104602C0FA
:1081C0001146704780B56F46084600F044FED4D48F
:1081D000D0B502AF0446044801F086F82046BDE859
:1081E000D04001F04BBD00BF3E000000014801F04F
:1081F0007BB800BF10000000F0B503AF2DE9F00719
:108200000C46054601F0AAFC8046D5E9000AD5F8DF
:10821000089000262E60B0B1012823D1D4E90010C7
:10822000814508BF8A4515D0096888470126CDE9F0
:108230000201019601A92846FFF7A4FFDAF804100D
:10824000484688470EE0D4E9001009688847CDE920
:10825000020101E0CDE902A901262846019601A903
:10826000FFF790FF404601F09DFC304604B0BDE8AA
:108270000007F0BDF0B503AF2DE9F0070446006834
:108280000E4670B1D6E905950322D5F80CA0254914
:108290004846D04780B10126304604B0BDE800070B
:1082A000F0BDD6E905010C22CB681D4904B0BDE83C
:1082B0000007BDE8F0401847307F04F1040840078C
:1082C0000CD41C49484601220126D0470028E3D19E
:1082D000404649462A4603F08FF919E012494846BC
:1082E0000222D04701260028D6D1104AA7F1190052
:1082F000029069464046CDE9009507F8196C03F0F5
:108300007BF90028C8D10A496846022200F0BDFD69
:108310000028C1D1084948460122D0470646BBE79C
:10832000FFC002000BC10200BEC2020094C20200E4
:10833000BCC20200A4C90200A5C9020080B56F46F4
:1083400000F000F8F8B504AF6C46204601F012F9D1
:108350002046FFF787FC80B56F468CB00090012067
:10836000019000204CF2BC3106900220C0F20201C4
:108370000390059008A8029101A9049048F2DD300D
:10838000C0F20200CDE909014CF2DC410B906846D5
:10839000089002A8C0F2020100F043F980B56F46D0
:1083A0008CB0CDE900010020069002204CF2702133
:1083B0000390059008A8C0F20201049048F2DD3055
:1083C0000291C0F202006946CDE9090111460B9005
:1083D00001A8089002A800F024F9D4D4F0B503AFA6
:1083E0002DE9000F8FB0026842F210708C464FF6F4
:1083F0009C7182424CF2C020C0F202003ED341F296
:10840000597E4EF2FF0BA7F1430A0026CDF2B71EAC
:108410004DF6F00841F27B49C0F2F55BCDF810C093
:10842000A2FB0E350AEB060C043E5A454FEA5533C3
:1084300003FB08251A46ACB24FEA940404FB09F486
:108440004FEA544404FB015530F81440ACF8234083
:10845000ADB230F81550ACF82550E1D8DDF810C0B9
:1084600027361A46632A0CD813460A2B1AD3B41E91
:1084700030F81300A7F14301085319E02726632AB7
:10848000F2D993B241F27B459B08023E6B435B0CF1
:1084900003FB0121A7F1430289B230F81110915377
:1084A0000A2BE4D2741EA7F1430143F030000855B3
:1084B000DCF81C0001EB040BDCF800204FF02B0A69
:1084C00010F00108C4F12706C0F3800308BF4FF481
:1084D000881AB2B1DCF8049008EB0602CDE9026319
:1084E00091451CD900072AD49CF82000A9EB020969
:1084F0005E46DFE800F064025E0248464FF0000985
:108500005DE0DCE9054552462946204600F099F831
:1085100000286FD1EB682046594632460DE0DCE971
:1085200005455246039B2946204600F08AF800285C
:1085300060D1EB682046029A594698475BE0DCF828
:1085400018503020039B5246CDF804B0DCE9046B90
:108550009CF82010CCF810000120009129468CF8DE
:1085600020005846CDF810C000F06BF801460120FD
:10857000002940D104EB0900B246A0EB0800029E9E
:10858000A0F12604013C06D02A69584630219047C4
:108590000028F7D02EE0EB685846019932469847FC
:1085A00040BB0498009980F82010C0F810A000206B
:1085B00021E009F101014FEA59004FEA5109DCE9D4
:1085C00004B8441CDCF81850013C06D02A69404627
:1085D000594690470028F7D00CE0039B40462946B7
:1085E000524600F02EF828B9EB684046029A314610
:1085F000984720B101200FB0BDE8000FF0BD002664
:10860000B14508D02A6940465946904701360028AE
:10861000F6D0711E00E049460020494538BF0120D0
:10862000E9E780B56F4688B090E87441EC46634650
:10863000012083E87441ADF81C006046069101F00A
:10864000C7FFF0B503AF4DF804BD1C460D46B2F5AB
:10865000881F0AD02B6911460646984701463046C6
:1086600019B101205DF804BBF0BD3CB1EB682146B7
:1086700000225DF804BBBDE8F040184700205DF81B
:1086800004BBF0BD80B56F4688B000200121049086
:108690000390042002902820019106A907904BF630
:1086A000887000914BF6B071C0F20200C0F2020176
:1086B00006906846FFF7B5FFF0B503AF2DE9000F50
:1086C00087B0D1F800C08B68D0E90082BCF1000F00
:1086D00008BF5FEAC3700BD0D80739D0CE6808EB6B
:1086E000020E8A464FF00009DEB1002543460BE03A
:1086F000D1E90501BCE2F0282CBF231DE31C181BA7
:1087000001358144AE420DD0734526D01C4613F985
:10871000010BB0F1FF3FF2DCC0B2E028EBD2A31CAA
:10872000EDE743467345514612D093F90000B0F18E
:10873000FF3FDCBFC0B2E028B9F1000F14D0914573
:1087400011D218F9090010F1410F0DDC00200CE0E6
:108750009146BCF1000F10D187E291465146BCF121
:10876000000F0AD181E2F1D1404600280CBF9146AA
:108770008046BCF1000F00F078824E68B9F1100F0E
:108780000BD2B9F1000F20D009F00300B9F1040FAA
:108790001ED24FF0000E002543E008F10300CDE9A2
:1087A000006120F00306CDF80890B6EB080EA9EBA7
:1087B0000E0101F0030B01D100208DE0A8EB0600B3
:1087C00010F1040F4ED900206EE04FF0000E3CE295
:1087D00009F00C05B246A8F104068C464FF0000ED5
:1087E0002B4616F9041F96F9032011F1410FC8BF5B
:1087F0000EF1010E96F9011096F9024011F1410FA8
:10880000C8BF0EF1010E14F1410FC8BF0EF1010EE9
:1088100012F1410FC8BF0EF1010E043BE1D16146D8
:108820005646002800F0118218F9052012F1410F78
:10883000C8BF0EF1010E012800F0078208EB050306
:1088400093F9012012F1410FC8BF0EF1010E022869
:1088500000F0FB8193F9020010F1410FC8BF0EF147
:10886000010EF2E108F1010A00206FF003020AEBA9
:108870000203043293F9034093F9065093F905C0BB
:1088800014F1410F93F90430C8BF013013F1410FC7
:10889000C8BF01301CF1410FC8BF013015F1410FB5
:1088A000C8BF0130131DE2D198F9002012F1410F29
:1088B000C8BF0130BEF1010F0ED098F9012012F1AE
:1088C000410FC8BF0130BEF1020F05D098F9022058
:1088D00012F1410FC8BF01304FEA91090024BBF1EA
:1088E000000FCDF80C801AD021F00302324492F927
:1088F000005015F1410FC8BF0124BBF1010F0ED08C
:1089000092F9015015F1410FC8BF0134BBF1020FBC
:1089100005D092F9022012F1410FC8BF013404EBD7
:10892000000E12E04FF0000C3FFA8CF13FFA9CF27F
:108930001144A9EB03090AEB830613F0030001EBD2
:1089400001410EEB114E40F04F81B9F1000F00F0E4
:108950004881B9F1C00F4B4628BFC023B246B9F1D8
:10896000040FDFD36FF00F00012100EB83000593AC
:108970003028CDF818A001EB1011049103D24FF06C
:10898000000C5646ABE021F0030B4FF0000C5646AE
:1089900096E81105BBF1040B32696FEA0001B56975
:1089A0004FEAD11141EA901020F0FE3000EB0C01AB
:1089B0006FEA04004FEAD010D6F83CC040EA9410A9
:1089C00020F0FE34706921446FEA08044FEAD413A2
:1089D000B46B43EA981323F0FE3319446FEA0A0399
:1089E0004FEAD31343EA9A1323F0FE3319446FEA94
:1089F00002034FEAD31343EA921222F0FE32F369E4
:108A000011446FEA00024FEAD21242EA901020F0BD
:108A1000FE30326A08446FEA05014FEAD11141EA9B
:108A20009511756A21F0FE3108446FEA03014FEA9F
:108A3000D11141EA9311B36A21F0FE3108446FEA83
:108A400002014FEAD11141EA9211F26A21F0FE319E
:108A500008446FEA05014FEAD11141EA9511356BDF
:108A600021F0FE3108446FEA03014FEAD11141EAD7
:108A70009311736B21F0FE3106F1400608446FEA52
:108A800002014FEAD11141EA921121F0FE3108446E
:108A90006FEA05014FEAD11141EA951121F0FE314B
:108AA00008446FEA03014FEAD11141EA931121F022
:108AB000FE3108446FEA04014FEAD11141EA9411F2
:108AC00021F0FE3108446FEA0C014FEAD11141EA6E
:108AD0009C1121F0FE3101EB000C7FF459AF04989A
:108AE000DDE9053A10F003083FF41EAFD6E90012A5
:108AF000B8F1010FD6E902046FEA01054FEAD51576
:108B000045EA91116FEA020521F0FE314FEAD515D1
:108B100045EA9212614422F0FE3211446FEA0002EB
:108B20004FEAD21242EA901222F0FE3211446FEA6A
:108B300004024FEAD21242EA941222F0FE3202EB11
:108B4000010C3FF4F1AED6E90412B8F1020FD6E9F8
:108B500006046FEA01054FEAD51545EA91116FEA5F
:108B6000020521F0FE314FEAD51545EA9212614423
:108B700022F0FE3211446FEA00024FEAD21242EABA
:108B8000901222F0FE3211446FEA04024FEAD21230
:108B900042EA941222F0FE3202EB010C3FF4C4AE22
:108BA00006F1200527CDCE43F60946EA9111C443CC
:108BB00021F0FE31E40944EA901020F0FE306044D8
:108BC0000844D143C90941EA921121F0FE31084419
:108BD000E943C90941EA951121F0FE3101EB000C8E
:108BE000A2E6DDE902982EE003F0FC06DDE902983A
:108BF00001285AF826106FEA01024FEAD21242EA1F
:108C0000911121F0FE3515D00AEB86060228716815
:108C10006FEA01024FEAD21242EA911121F0FE31CD
:108C20000D4407D0B068C143C90941EA901020F053
:108C3000FE3005443FFA85F03FFA95F1084400EB19
:108C400000400EEB104EDDE9006176450DD991F83C
:108C50002020CB46A6EB0E090020DFE802F0170229
:108C6000111748464FF0000910E0D1E905014A46C6
:108C7000CB68414607B0BDE8000FBDE8F04018479B
:108C800009F101024FEA59004FEA5209D1E904A45F
:108C9000461C8D69013E06D02A6920465146904700
:108CA0000028F7D005E0EB68204641465A46984731
:108CB00008B1012010E00026B14508D02A692046FD
:108CC0005146904701360028F6D0711E00E0494613
:108CD0000020494538BF012007B0BDE8000FF0BDB6
:108CE000D0E90002D2681047F0B503AF2DE9000FBC
:108CF0008DB0032316698DF83030202308930023AC
:108D0000002ECDE90A130990069304935DD05069B3
:108D1000002800F08080D2F800A04101D2F808B00D
:108D2000013820F078404FF000084FF00009013082
:108D30000292039101900AEB09014A6832B1DDE920
:108D400009030968DB689847002874D106EB08001E
:108D5000036906EB8900D0E90221057F8469089345
:108D60008DF830500B9442B1012A03D10BEBC101B5
:108D70004A680AB1002201E00968012256F8083069
:108D8000CDE90421022B06D04168012B06D10BEB63
:108D9000C1014A680AB1002201E009680122436961
:108DA000079106920BEBC3015BF833004B6804A9F3
:108DB000984700283FD1039808F1200809F10809D5
:108DC0004045B8D1DDE901B227E0D06818B3C6004C
:108DD000013820F060409468D2F8009000F1010B57
:108DE0000DF110089246002509EBC5014A682AB129
:108DF000DDE909030968DB689847E0B904EBC501C0
:108E000054F835004A6841469047A0B90135083EFC
:108E1000EAD1524601E04FF0000B506883450CD276
:108E20001268DDE90901CB6852F83B1002EBCB0276
:108E30005268984708B1012000E000200DB0BDE85D
:108E4000000FF0BDD1E905024CF2D411D368C0F295
:108E500002010E22184780B56F468AB001460020F5
:108E60000590012002904CF2F412049007A80390A0
:108E700048F64560C0F20200C0F202020890781E77
:108E8000079001A80192FFF7CCFBF0B503AF2DE9E5
:108E9000000F87B09346026804924FF000084268C2
:108EA0004FF0000980684FF0000A0590481C0090C0
:108EB000CBF100000290481E03920691019013E04E
:108EC0000198005D0A38B0FA80F04009039BA4EBDA
:108ED0000802059D0699DB6828704144049898476C
:108EE0000028B04640F0E7805FEACA7040F0E180B9
:108EF000D94500F2C68040F2001AC0F2011A02E021
:108F0000D94500F2BE800698ABEB090EBEF1070F03
:108F1000484421D8CB4500F0B3800299002249444F
:108F2000835C0A2B00F09C808B185E1C00F0A880EC
:108F3000861875780A2D7DD09D1C00F0A180B5782B
:108F40000A2D79D0033300F09B80F3780A2B75D07B
:108F500004328B18E4D193E0C11C21F0030CBCEB6C
:108F6000000119D08D1EA1F1030A4C1E0022835C62
:108F70000A2B71D0944212D083185E780A2E5FD0EB
:108F800095420CD09E780A2E5CD0924507D0DB78B3
:108F90000A2B5BD00432EAE7AEF1080207E040F2A8
:108FA000001AAEF108029142C0F2011A18D8042347
:108FB00003EB0C0656E9015383F00A34AAEB0404D0
:108FC000234385F00A34AAEB040425432B4023F005
:108FD0007F33B3F1803F03D1083108369142E9D99C
:108FE00071454DD0009B01EB0902029E134402EB38
:108FF000060CABEB0102A2EB090A0022AAF1010E5A
:109000009E1816F8014C0A2C25D0964538D09C5C49
:109010000A2C19D00CEB0204A51C31D075780A2D4E
:1090200016D003342CD0B4780A2C13D004329245D5
:10903000E6D125E0013213E0023211E003320FE005
:10904000013209E0023207E0013204E0033203E0BA
:10905000023200E003320A4440F2001AC0F2011A60
:1090600002EB090101F101095945BFF449AF805CE8
:109070000A287FF445AF4FF0000A4E464C4606E002
:10908000D946D84515D04FF0010A46465C460598AA
:10909000007848B103984CF2B421C0F202010422D6
:1090A000C3680498984730B944457FF409AF00205D
:1090B0000CE7002000E0012007B0BDE8000FF0BD84
:1090C000F0B503AF4DF8048D8568D0E900462878E7
:1090D00078B14CF2B422F368C0F20202884611461D
:1090E000204604229847414618B101205DF8048BC0
:1090F000F0BDA1F10A003269B0FA80F04009287091
:1091000020465DF8048BBDE8F04010470A464CF25B
:109110009421C0F20201FFF7E7BD80B56F468EB023
:109120004CF2D401C0F2020100914CF2C401C0F231
:10913000020103912B21CDE90110002008900220AB
:1091400005904CF2842107900AA8069048F6E14069
:10915000C0F20200C0F202010D9002A80C9048F289
:10916000B960C0F2020004910B9068464CF2B40161
:109170000A9004A8C0F20201FFF753FA80B56F46C7
:109180008AB04BF650504CF22401C0F20200C0F2FB
:10919000020100901720019000200690012003900A
:1091A000059008A8049048F2B960C0F2020002914C
:1091B000099068464BF6C451089002A8C0F202011B
:1091C000FFF72FFA80B56F4688B000204CF22401DB
:1091D000049001200190C0F20201039006A80290C1
:1091E00048F2B960C0F20200009107904CF23420BE
:1091F0004CF26C41C0F202000690C0F202016846D7
:10920000FFF70FFA80B56F4686B0014600200122B5
:10921000049001924CF2F03203900420C0F202025A
:10922000029068460092FFF7FCF9FEE77047D0E92C
:109230000002D2681047E0B502AF002080290190FB
:1092400003D28DF80410012235E0B1F5006F0BD286
:109250000222084662F39F108DF80500C02040EA04
:1092600091108DF8040026E002200A4660F39F1258
:10927000B1F5803F0DD28DF80620E02242EA11328E
:1092800089098DF8042060F39F118DF805100322E1
:1092900011E08DF80720F02242EA91428DF8042077
:1092A0008A09090B60F39F128DF80620042260F3EF
:1092B0009F118DF8051001A8114600F00DF900204E
:1092C0008CBDD4D40A464968012918BF0029014938
:1092D000FFF70ABDF8C3020080B56F460846114685
:1092E00000F0FAF8002080BDE0B502AF27F8020CCC
:1092F000B81E022100F0F0F88CBDE0B502AF07F80F
:10930000010C781E012100F0E7F88CBD80B56F4696
:10931000FFF7EAFFBDE88040FFF788BFE0B502AF86
:10932000019001A8042100F0D7F88CBD80B56F46EC
:1093300000F000F880B56F46FFF744FFF0B503AFCB
:109340004DF804BD0E4D04460F4E0E49E86A00F07C
:109350000300022808BF0E460020C0070BD105F10C
:10936000180021460122B0470028F8D0012805D175
:1093700001340120F1E75DF804BBF0BDFEF7EBFF1F
:10938000000002208D930200C1930200BCB504AF1F
:10939000A2B10469C368BFF35F8F9C4202D9DD4369
:1093A0002C4406E014B1C3F5806402E040F2FF34BF
:1093B000E41A1CB1009400F00EF8BCBD0020BCBD46
:1093C000DCB504AFC3684FF48064BFF35F8F0094D3
:1093D00000F001F8DCBDF0B503AF2DE9000BBD686E
:1093E00088468146AA4238BF1546EC18B4F5806F0E
:1093F0000ED9D9F80400C3F58066414618443246B8
:1094000002F0A0FAD9F8040008EB0601AA1B04E058
:10941000D9F8040041462A46184402F093FABFF3F3
:109420005F8F6FF39F24C9F80C402846BDE8000BFE
:10943000F0BDE0B502AF07F8010C781EFFF77EFF24
:109440008CBDD4D4FEB506AF00F088FB0D490A7878
:109450006AB901220A704870887830B900208A7091
:109460008DF800006846FFF769FF06B080BD02F086
:1094700023FA05490091054902F0FFF96846FFF714
:10948000D0F800BFCC8E02200CC5020070C50200CF
:10949000B0B502AF0F4CE07878B1072808D24FF092
:1094A000FF3101FA00F02179084300F07F0002E06B
:1094B000793060F07F00FFF7BCFF00200025FFF748
:1094C000B8FFA4F8035025706078BDE8B04000F004
:1094D00069BB00BFCC8E0220F0B503AF2DE9800F31
:1094E000DFF88C9000EB010B04464FF0010899F86F
:1094F000036099F804A05C4538D0651C14F8010B92
:10950000F1B207290BD378B1FFF793FF013689F841
:109510000360F0B28628EED1FF202C4608E078B137
:10952000FFF787FF504612E006F1790060F07F00F8
:10953000FFF77FFF4FF0000A0026A9F803A0DAE743
:1095400008FA01F040EA0A0089F804008246013670
:109550002C46F1B289F803600729CCD101064FF0FF
:1095600007064FF0000A2C46C5D0E1E702F0BCB96F
:10957000CC8E0220D0B502AF044600F019F9C00726
:109580001FBF00204FF0FF32C4E90002A0601CBFE3
:109590002173D0BDFFF756FF0448FFF7B7FE00F078
:1095A000B3FAFFF775FFFFF7C1FE00BF0F00000021
:1095B00001460148704700BF80C50200E0B502AF18
:1095C00000F1080151E8002FD30517D4D30715D0B7
:1095D00042F4807241E80023002BF3D10369791E25
:1095E0000090002007F8010C6A46184600F00AF8BF
:1095F00017F8010C012800D140BF8CBDBFF32F8F9D
:109600008CBD7047D0B502AF0368BFF35F8F12689F
:109610001C46D360B3FA83F35B090B7050E8003F3C
:10962000A34206D1BFF35F8F40E800241CB9012498
:1096300002E0BFF32F8F0024002CBFF35F8FE7D031
:10964000D0BDE0B502AF08616A460091002107F87D
:10965000011C791EFFF7D6FF17F8010C012800D175
:1096600040BF8CBD80B56F4640BF80BDF0B503AF35
:109670004DF804BD13680F4CA34211D15268002568
:10968000D2E900341E1A74EB010638BF0125002D03
:109690001CBF18462146C2E900015DF804BBF0BDBD
:1096A000FFF7D0FE0448FFF731FEFFF7F1FEFFF7AA
:1096B0003DFE00BF80C502000E0000000648074ABC
:1096C000006B126800F0010182EAC151420A11EBFD
:1096D000C05042F1000170473800022004150140DB
:1096E00000780949202800F01F0001F540713CBFB7
:1096F00040F20071C5F2000141EA8000016821F4E6
:1097000040310160704700BF00070050D0B502AF84
:10971000064C01700021417004F1240000F0D6F9DC
:1097200004F11C00BDE8D04000F0D0B9CC8E02207E
:109730004FF0FF3200F000B8B0B502AF046802EAA3
:10974000010304EA02059D4201D10120B0BD1C4085
:109750009C4214D10B4B0124C3F804411C68E4075C
:10976000FCD061EA020101601868C007FCD000204B
:10977000C3F804011868C007FCD00020B0BD022067
:10978000B0BD00BF00E4014080B56F4602F0BDF8F7
:109790000548064A016801F4E0611143016002F0E6
:1097A000B4F802F0B5F8FCE70CED00E00400FA05AF
:1097B000D0B502AF00F0D2F9074991F83440022C3D
:1097C0009CBF621C81F8342000F0ECF90020214697
:1097D000032C38BF0120D0BD38000220F0B503AF04
:1097E0004DF804BD0D46C0B20649144601EB001603
:1097F00000F0B4F9C6E902545DF804BBBDE8F040DE
:1098000000F0D0B938000220F0B503AF2DE9800F89
:10981000C4B2994615462601DFF88CA000F09EF9E7
:109820004AF806500AEB04168046C6F80490FFF783
:1098300045FF8346401B8A4671EB09001ED21BF18F
:1098400003004AF10001421B184B71EB090138BFBC
:10985000284603EB840120F07F40C1F83C024FF41E
:109860008030A040B5EB0B0169EB0A02B1F5400175
:1098700072F1000134BF1860586008E00B494FF4E2
:109880008030A04048604FF0FF30C6E900004046FD
:1098900000F088F90020BBEB05017AEB090138BF25
:1098A0000120BDE8080FF0BD38000220041301407C
:1098B000F0B503AF2DE9F80F2E4C00262E4D4FF0DA
:1098C0000108082E0CD055F8260030B108FA06F031
:1098D000C5F80802204600F0F9F801360834F0E730
:1098E000E86FC8B300212548E9670126264D00220C
:1098F00004904FF0A040039008292DD003A84FEA10
:10990000421901324458043104F5E068D4F820A526
:1099100001920291D346BBF1000F18D09BFAABF035
:10992000B0FA80F11F291FD858F8210020F44030E8
:1099300048F8210041EA0900302811D205EBC000A7
:1099400006FA01F12BEA010B00F0C0F8E3E7C4F8D6
:1099500020A5DDE90121CFE705B0BDE8000FF0BD8E
:10996000084A3021FEF71AFD054A20202021FEF783
:1099700015FD00BF78000220006100400003005088
:10998000F4C5020004C60200B8000220F0B503AF1F
:109990002DE9800F1A4C2068012803D10020206097
:1099A00000F032F8A06C012803D10020A06400F080
:1099B0002BF814484FF480394FF0FF3A002500F19E
:1099C0000806032D1AD004F13C0050F82510012997
:1099D00011D1002109FA05F840F8251000F0BEF871
:1099E000C4F804828346D6E9001046E902AA8847F3
:1099F000584600F0D7F801351036E2E701F074BFA1
:109A00000411014038000220F0B503AF4DF804BD49
:109A100000F0A4F81249864612484FF440044FF46F
:109A2000803C0A6B01320A63530A14EBC25243F1C1
:109A300000030024032C0BD0D1E90056AD1A76EBBD
:109A400003053CBF0CFA04F5056001341031F1E761
:109A500070465DF804BBBDE8F04000F0A3B800BF5D
:109A600038000220041301400146D0E90020002301
:109A70000B600AB1516808477047F0B503AF2DE994
:109A8000000714468A46064600F068F8D6E90059F1
:109A90008046002030601DB1A14508BF55450DD05E
:109AA000DAF800102046884701F017FF01D0D96886
:109AB000884725B1E9684846884700E03560404658
:109AC000BDE80007BDE8F04000F06CB8F0B503AFAA
:109AD0004DF8048D054600F041F8D5E90046804672
:109AE000002028604CB1A16830468847D5E90010B5
:109AF000C5E9004609B1C968884740465DF8048B4E
:109B0000BDE8F04000F04EB80148FFF7EDBB00BFE4
:109B100001000000B0B502AF0C460546FFF7CEFDD0
:109B2000401961410022B0BDB0B502AF0446007AD1
:109B30000D4658B1FFF7C2FD02460B46D4E90001BD
:109B4000121A73EB010203D30020B0BDD4E9000167
:109B50002A46FFF78BFD01202072B0BDD0B502AFC1
:109B60000D498879BFF35F8F88B9EFF31082012325
:109B700072B68B71094B1C68CC605C680C6108493B
:109B800019604FF0FF315960D10700D162B600284B
:109B900018BF0120D0BD00BFCC8E022080E100E0C4
:109BA000FC06FFFD80B56F4678B90849EFF31080D9
:109BB000002272B6064B8A71CA681A40054BC0076C
:109BC0001A600969596000D162B680BDCC8E02204E
:109BD000FC06FFFD00E100E0B0B502AF86B0044630
:109BE00014480068C00517D12068F8B922464FF024
:109BF000FF3052F8045F206035B1A0680369284641
:109C000098472068013000E000202060002D18BF38
:109C10000125284606B0B0BD01F04EFE0649009170
:109C2000064901F02AFE6846FEF7FBFC0448FFF7F0
:109C300012F900BF04ED00E058C60200D0C60200D1
:109C4000DCC7020080B56F46FFF788FF0349012299
:109C50000A70BDE88040FFF7A5BF00BF38020220B0
:109C6000D0B502AF04460448FFF73EFB2046BDE8EE
:109C7000D040FFF753BB00BF03000000D0B502AFD8
:109C800004465348FFF730FB611C142913D9A4F58F
:109C9000005009281FD943F20100201A052823D9B2
:109CA000A4F54850052826D8DFE800F00369556779
:109CB0004581514886E04748DFE801F00B84495769
:109CC0003B73775B7F457D353F75335131677B83D0
:109CD0007100704876E0DFE800F00544343C285617
:109CE0005E40602A54486DE0DFE800F003533D4BCE
:109CF0002F69474866E0B4F5805F3CD041F201002F
:109D0000844244D041F20200844230D0B4F54C5F2A
:109D100015D0B4F5505F14BF2F48304852E04E487C
:109D200050E04F484EE051484CE03F484AE0394847
:109D300048E0554846E02C4844E04B4842E028487B
:109D400040E03B483EE04B483CE02D483AE050487C
:109D500038E0364836E0264834E0304832E03F48C4
:109D600030E034482EE028482CE048482AE03348C8
:109D700028E0424826E0334824E01C4822E01D4801
:109D800020E020481EE027481CE032481AE02C481A
:109D900018E01E4816E0224814E01F4812E02A4846
:109DA00010E038480EE02F480CE035480AE00D4836
:109DB00008E0274806E02E4804E02F4802E00F485C
:109DC00000E022480078BDE8D040FFF796BA00BF17
:109DD00015000000C0C90200ACC90200ABC90200F6
:109DE000AAC90200A9C90200A8C90200A7C90200A5
:109DF000A6C90200A5C90200A4C90200A3C90200A5
:109E0000A2C90200A1C90200A0C902009FC90200A4
:109E10009EC902009DC902009CC902009BC90200A4
:109E20009AC9020099C9020098C9020097C90200A4
:109E300096C9020095C9020094C9020093C90200A4
:109E400092C9020091C9020090C902008FC90200A4
:109E50008EC902008DC902008CC90200CFC9020060
:109E6000CEC90200CDC90200CCC90200CBC9020094
:109E7000CAC90200C9C90200C8C90200C7C9020094
:109E8000C6C90200C5C90200C4C90200C3C9020094
:109E9000C2C90200C1C90200D0B502AF04460448DD
:109EA000FFF722FA2046BDE8D040FFF71DBA00BFF9
:109EB00002000000D0B502AF04460448FFF714FAD0
:109EC0002046BDE8D040FFF718BA00BF08000000E8
:109ED000D0B502AF04460448FFF706FA2068BDE893
:109EE000D040FFF71BBA00BF030000000148FFF796
:109EF000FBB900BF160000000146132826D9A1F5C2
:109F00000050092830D943F20100081A052837D932
:109F1000A1F5485005282ED9B1F5805F1CBF41F24C
:109F20000100814200F0318041F20200814218BFFD
:109F3000B1F54C5F29D0B1F5505F1CBF43F2014031
:109F4000814222D001204FF0FF3170470846DFE800
:109F500001F00A0A1C1C1C1C1C1C1C1C1C1C1C1CAC
:109F60001C1C1C1C1C1C7047DFE800F00F0F0F0F9F
:109F70000F0F0F0F0F0FDFE800F0080808080808A0
:109F8000DFE800F003030303030301207047D4D488
:109F9000D0B502AFC0B2132820D81D49742210FBDF
:109FA000021494F86900E0B1013884F869000006F1
:109FB00004BF2078012800D0D0BD2068C10719D087
:109FC00094F866100029F7D1000C132176DF01F018
:109FD0007CFC17D1012084F86600D0BD0B4A01F04B
:109FE00051FCFFF72FFA0D48FFF790F9FFF750FAF1
:109FF000FFF79CF9FFF726FA0648FFF787F9FFF706
:10A0000075FFF3E7FFF71EFA0348EDE75CC80200AF
:10A010003C0202201E000000180000001D0000008D
:10A02000C0B214283FBF74214843074909583EBFB6
:10A0300001F00100090C704780B56F46014A01F03C
:10A0400021FC00BF5CC802003C02022080B56F46C4
:10A0500000F026F80246007801280CD15178132927
:10A060000AD80D4A742311FB032212F8693FFF2B13
:10A0700006D00133137080BD064A084601F002FC89
:10A08000FFF7E0F90548FFF741F9FFF701FAFFF79D
:10A090004DF900BF5CC802003C0202201F00000016
:10A0A00080B213289EBF054901EB4000704780B580
:10A0B0006F46014A01F0E6FB6CC802004C0B02201F
:10A0C000C0B213289FBF0749742210FB0210D0E9C9
:10A0D000030198BF704780B56F46014A01F0D2FB7B
:10A0E0005CC802003C020220F0B503AF2DE9800FEE
:10A0F0000578D4B28A46834600264FF00108B44260
:10A1000018D00AEB06095FEAD90015D1D7E9020198
:10A11000324601F00FFDC0075FFA89F008FA00F03F
:10A1200045EA000108BF25EA00018BF8001001365E
:10A130000D46E4E701F0D8BB014A0121FEF72EF9F4
:10A1400060C70200F0B503AF2DE90007D5B2C6B273
:10A150008A4600244FF000084FF00009A54213D0B2
:10A160000AEB0401C80814D1C8B2013426FA00F081
:10A17000C007F3D0621E0120002101F0CDFB49EAA7
:10A18000010948EA0008E9E740464946BDE80007FA
:10A19000F0BD024A0121FEF701F900BF50C70200DD
:10A1A000DFB506AF0446002041F2070102908DF8AA
:10A1B0000C000322ADF809100321CDE9001002A81C
:10A1C0000421FFF791FF9DF80C0020710298206098
:10A1D000DFBD80B56F4600210422FFF7B3FF80BDCD
:10A1E00080B56F4604210422FFF7ACFF80BDD4D4B4
:10A1F00080B213289FBF00EB4000054901EB8000AF
:10A20000704780B56F46014A01F03CFBECC8020084
:10A21000740B022080B213289FBF00EB4000054959
:10A2200001EB8000704780B56F46014A01F02AFBC0
:10A23000FCC80200640C022080B213289FBF00EB10
:10A240004000054901EB8000704780B56F46014A28
:10A2500001F018FB7CC90200540D0220F8B504AFD0
:10A260000021C0B2CDE90001781E012207F8011CCF
:10A27000FFF73AFF17F8010C04B080BDBCB504AF7E
:10A280000446002007F8090CA7F10901204662DF07
:10A2900001F01BFB03D1A08917F8091CBCBD0D46BA
:10A2A000FFF7D0F80448FFF731F801F0F1FAFFF7B3
:10A2B000EFF8FFF73BF800BF32000000D0B502AF67
:10A2C0000446C0B201280FD0022804BF0020D0BD30
:10A2D000FFF7B8F80548FFF719F82046FFF7EAFD41
:10A2E000FFF7D6F8FFF722F80120D0BD33000000B9
:10A2F000F0B503AF4DF804BD84B0C6B20E48A7F167
:10A300001104002500210422805D0090204607F8FA
:10A31000115C0195FFF7E8FE08480421042201952D
:10A32000805D00902046FFF7DFFE17F8110C04B0A7
:10A330005DF804BBF0BD00BF1CCF020023CF0200BC
:10A3400020B14FF6FF72914202D270470021704750
:10A3500080B56F46FFF776F80348FEF7D7FFFFF7A3
:10A3600097F8FEF7E3FF00BF3500000001780229EF
:10A3700004BF0020704780B56F4600F003F800026C
:10A38000013080BDF0B503AF2DE9F80F0646C07867
:10A39000FFF7AEFF03903079FFF7AAFF81463078D0
:10A3A00096F801B0002596F802A0A7F11D06154CFD
:10A3B0000021CDE900053046012207F81D5C4FF071
:10A3C0000108A047304601210222CDE90085A047BF
:10A3D000304603210122CDE900B5A04730460421D3
:10A3E0000122CDE900A5A04703985FFA89F1C0B228
:10A3F00040EA012017F81D1C40EA014005B0BDE805
:10A40000000FF0BDE9A002004FF0FF3151FA80F2D9
:10A410000021062A38BFC1B20846704780B56F4692
:10A42000C0B2142814D2742148430C490858C107FB
:10A430000CD0000C002100220023B1DFFFF75CFDEF
:10A44000C0074FF0020018BF012080BD002080BD72
:10A45000014A01F017FA00BF5CC802003C0202206A
:10A4600080B56F4602210122FFF76CFE80BDD4D477
:10A4700080B56F460C4601280AD0064641F201001D
:10A48000154686420BD1FEF7DDFFB5B9124802E052
:10A49000FEF7D8FF1148FEF739FF204614E0FEF71B
:10A4A000D1FF0F48FEF732FFDFF838803046C04753
:10A4B0002046C0472846C04708E00648FEF726FF6A
:10A4C0002046FFF7CDFB2846FFF7CAFBFEF7E0FF6B
:10A4D000FEF72CFF4A000000490000004800000081
:10A4E0004B000000619C0200B0B502AF0B4A04466D
:10A4F00069DF01F0EAF902D00D46042900D1B0BDB0
:10A50000FEF7A0FF0648FEF701FF2046FFF7A8FB75
:10A5100001F0BEF9FEF7BCFFFEF708FF00000220C5
:10A520004C000000D0B502AF054C04F13400FFF739
:10A53000CDFA04F12C00BDE8D040FFF7C7BA00BF48
:10A54000CC8E0220F0B503AF4DF8048D8CB0D1E96C
:10A5500005650C22EC681949D0F800803046A04708
:10A5600008BB0021D8F8180004910321144A009276
:10A5700000F10C020191039106A902911149CDE964
:10A5800009126A460B9100F1080108910E49CDE9C4
:10A59000060130462946FEF7A7FB20B90B49304695
:10A5A0000222A04720B101200CB05DF8048BF0BD61
:10A5B000304629464246FEF797FBF5E718C20200EF
:10A5C00000C20200DD830200B986020024C202003C
:10A5D00080B56F468CB0044601F095F914480178B7
:10A5E00021BB012505700094FEF72CFF1148FEF7F2
:10A5F0008DFE1148FEF778FE1048029068460190E3
:10A60000002007900E4804950390069509A8059030
:10A610000C480A9001A80990781E03A9FEF752FE83
:10A6200009480121FEF758FFFEF732FF00F00EF84F
:10A63000440E02205400000005000000B0C90200D2
:10A6400024C002002F92020010C4020080B56F46A1
:10A650000348016821F48021016000F003F800BF85
:10A6600024ED00E080B56F4601F054F9D0B502AF9B
:10A670000448054CA0470548A04700202146BDE8F6
:10A68000D040084707000000E99202000D000000DA
:10A69000F0B503AF2DE9000FA7B0BC681D46CDE9AA
:10A6A0000C10164620680B90A01DFFF76BFED7F824
:10A6B0000CB0ADF84000000C8DF842009BF80A3059
:10A6C000BBF80810A088032B0A90DBE900028DF884
:10A6D0004650ADF8446009900F9318BF8A4200F2CB
:10A6E000EE809BF82200002606909BF82100059042
:10A6F0009BF8200007909BF81F0004909BF81E0019
:10A7000003909BF81A00089100219BF81B909BF87E
:10A710001C809BF81DA08DF86060CDE9000618AD87
:10A720006C4C0E9228460122A047284601210122A6
:10A73000CDE90096A047284602210122CDE90086F6
:10A74000A047284603210122CDE900A6DDF820A07C
:10A75000A0470398042101F087F80498052101F02F
:10A7600083F80798062101F07FF89DF8600000212A
:10A770000790012205988DF86060CDE9000618ADBC
:10A780002846A0470698012101F06EF89DF8600068
:10A790000F9906900E980329DDF824901990DBF8A4
:10A7A0000B00CDF86B009BF80F008DF86A10ADF828
:10A7B00068A0CDF860908DF86F0004D005F10A0014
:10A7C000FFF7D4FD0646BBF810004FF00008002448
:10A7D0001296C00710D0DBF812000124DBF8161027
:10A7E000C1EA004247F8682C4FF6FF72C1F30741F7
:10A7F0009043084447F8640C0BF1230027F86A4C97
:10A80000FFF7B4FD054616900BF12800FFF7AEFDEB
:10A81000179017A910F0010018BF481C15F001018E
:10A820001E9016A818BF411C1D9112A816F0010118
:10A8300018BF411CA7F16A001C91002C18BF841C92
:10A840000F980E9903381B9408BF0146ADF86A10A3
:10A8500008BF8246ADF868A008BF814606988DF80B
:10A86000610007988DF860000B9823900A98CDF846
:10A870006490ADF88800CDF8848010A8209011A8CD
:10A880001F900C98CDE9248818A91FAA80B224AB88
:10A89000AADF01F01AF804D00D98416001460120AA
:10A8A00008E00D9ADDE92401C2F806101146C2F84D
:10A8B00002000020088027B0BDE8000FF0BDFEF7C1
:10A8C000C1FD0348FEF722FDFEF7E2FDFEF72EFD77
:10A8D0003B000000E9A0020080B56F46FEF7B2FD24
:10A8E0000348FEF713FDFEF7D3FDFEF71FFD00BF83
:10A8F0005A000000F0B503AF2DE9000FC3B0824647
:10A9000090F84C00E8B1032840F0D8859AF8480048
:10A9100000285CD09AF84500011FB1FA81F14FEA96
:10A92000511100F0438500285AD0032840F00786D3
:10A930009AF844000A91012856D1DFF8100CFEF76E
:10A9400061FC0120DAF820503FDFDFF80C8C012099
:10A9500040DF01204DDF01204EDF01204FDF98F85E
:10A960001400BFF35F8FE8B9FFF7F8F8044698F8D2
:10A97000150078B908F12400FFF7A8F898F8150039
:10A98000012800F0CF8540F20110A8F81600012040
:10A9900088F815000120BFF35F8F88F81400204667
:10A9A000FFF700F90026544644F8246F204650DF94
:10A9B0002078C00704D008F116000121FEF7A6FE9A
:10A9C00008F116008AF84860CAE90A5001E0DAE99D
:10A9D0000A500021CAF83000CAE910518AF83C1028
:10A9E00000200A918AF84400DFF86C0B5246DFF829
:10A9F000741B2C30FFF741F83EA90DF12C09481CBF
:10AA000008902CAE09F11208B01C059006F10C005C
:10AA10000490701C09F1080B0990881C079006F13E
:10AA2000100003908020A7F17A0127F87A0C48469D
:10AA300061DF00F04AFF40F0AC84BDF82C10481EE6
:10AA40000F28EFD3A1F1100020282FD21628E9D823
:10AA5000DFE810F0180069029501BE014701CE023F
:10AA60001700F90217000A022C031A031700250326
:10AA7000CB0084011700E80217007C00AA01170030
:10AA80007800CFE79DF83B00FFF718FC0028DFF8BF
:10AA9000C80A49460CBF3C305430FFF79DF80028E7
:10AAA000C0D1BDF83000132176DFBBE7A1F1300043
:10AAB000202806D2BDF83000392929D1FFF7AAFB9A
:10AAC000F0E2A1F150002028ACD2BDF83050552959
:10AAD00021D1DFF8840A0489BDF83200A04238BFD2
:10AAE0000446172C98BF172428462146B5DF00F0EE
:10AAF00002FF14D10E46FEF7A5FCDFF88C0AFEF724
:10AB000005FC3046FFF7BAF8FEF7C2FC2CAE89E729
:10AB1000FFF76EFBC6E22846FFF78EFBC2E228462F
:10AB2000FFF7BEFA0178002900F0B38440782CAE1C
:10AB3000142880F0AB84DFF84C1A00F0D8FEA0F89F
:10AB400064406FE7DFF8100A5430ABE200F091FE8A
:10AB5000C0073FF467AFC8B20D46142880F0968452
:10AB600074214843DFF81C1A0858C10739D0002166
:10AB7000000CADF8B41032462C9190DF00F0BBFE13
:10AB80002FD100F082FEDFF8180AFEF7BFFB00F0BD
:10AB900082FEFEF77DFCBDF8B200BDF8B01080B2B9
:10ABA00008430FD0FEF74EFCDFF8F809FEF7AEFBC6
:10ABB000BDF8B000FFF770F9BDF8B200FFF76CF90F
:10ABC000FEF766FCBDF8B40058B1FEF73BFCDFF8B9
:10ABD000D809FEF79BFBBDF8B400FFF75DF9FEF75F
:10ABE00057FC2846FFF7D4F91CE79DF834000021F4
:10ABF000DFF898490122A0479DF834000121012285
:10AC0000A0479DF8340002210122A0479DF834009E
:10AC100003210122A04700F02CFEC0073FF402AF41
:10AC2000C8B207F8511C132800F230847423DFF8EF
:10AC3000542900FB03F15458E10700F06F8210FB28
:10AC40000320C168002900F0E7820069A7F15102E2
:10AC5000436B30469847BDF8B000002800F0DE8214
:10AC6000049D200C06900DF1F809BDF8B2C0DDF886
:10AC7000B4E04C462E984ECD4EC4298821804946DA
:10AC8000CDF8F200CDF8EEE0ADF8ECC036AA78C908
:10AC900078C209881180DDE93BCEBDF8F4002CAC08
:10ACA00036AD4ECD4EC42CAE297832462170494681
:10ACB000ADF80001CDE93ECE069885DF00F01BFE21
:10ACC00040F0F4820D46FEF7BDFBDFF8E008FEF72A
:10ACD0001DFB00F0DDFDFEF7DBFB01240DF12C096F
:10ACE0000DE39DF846000021DFF8A0480122A047AF
:10ACF0009DF8460001210122A0479DF8460002214F
:10AD00000122A0479DF8340000210122A0479DF8B0
:10AD1000340001210722A04700F0D2FDC00700F057
:10AD2000F08108468DF8D810FFF7CAF9002800F026
:10AD30001082079C0246D8F80000D8F80430206042
:10AD40006360BDF83C000C6B1146ADF8F80036AA04
:10AD50003EAB3046A0479DF8B040FDE1DDE90D1265
:10AD6000CDE92C123146BDF8300075DF00F0C3FD8F
:10AD70007FF458AE00F089FDDFF84C0801E2BDF821
:10AD80003000DDE90D45FFF78BF90178002900F06F
:10AD900080834078142880F07983DFF8E81700F08A
:10ADA000A6FDC0E901453DE6BDF830000D9CFFF76A
:10ADB00077F90178002900F06C834078142880F03E
:10ADC0006583DFF8C01700F092FD80F8714029E636
:10ADD0009DF834400021DFF8B45701222046A847EF
:10ADE000204604210322A847204603210122A84728
:10ADF000204602210122A847204601210122A8471E
:10AE0000204607210122A84700F05AFDC00700F0A4
:10AE10007C81C8B28DF8EC10132800F23783DFF87C
:10AE20006417742210FB021494F86700002800F0E5
:10AE3000B081E168002900F0BA812069CDF818B02E
:10AE4000C346C846DDF82490036C3BAA48469847A1
:10AE500099F804008DF8DC00D9F80000C146D84606
:10AE6000DDF818B03690A5E19DF83500FFF7F8FA47
:10AE70009DF835000021DFF814470222A0479DF815
:10AE8000350003210122A0479DF838000021082247
:10AE9000A0479DF8390000210822A0479DF8340002
:10AEA00000287FF4BFAD9DF83500FFF7D9FA000602
:10AEB0003FF4B8AD00F0DDFCC0073FF4B3ADC8B25D
:10AEC0000DF1F8091328CDF818B08DF8D81000F25C
:10AED000DD82DFF8B0267423D346CDF8088010FB5E
:10AEE0000326D6F80CA0BAF1000F00F0DC819DF823
:10AEF0003900012101223469FFF724F9000600F02E
:10AF00001882039A0DF1B008D6F85F10A446F06DD0
:10AF1000C2F803104146106006F14C0090E83C0076
:10AF20003CC1644614E2BDF83000FFF7B9F801787F
:10AF3000002900F0AE8246787420132E00F2CD82F4
:10AF40007043DFF84016CDF818B0CDF808800858E7
:10AF5000C10700F0C582050CC8462846D346FFF756
:10AF60009FF804460078002800F0BE82DFF814063F
:10AF7000742116FB0106D6F80CA0BAF1000F12D00E
:10AF80002846D6F81090FFF761F8C00700F0BF829E
:10AF9000D9F8382050468DF8B0102CA990479DF86C
:10AFA000B000FEF7F5FF00212170BDF82C002C90B9
:10AFB000112840F09D829DF8340070702846317051
:10AFC000FFF716F9DFF818664146B0472846FFF745
:10AFD00021F94146B0472846FFF72EF94146B047D0
:10AFE000DA46C1462CAEDDF80880DDF818B019E568
:10AFF000BDF83000FFF754F80178002900F04982CD
:10B000004078132800F24282DFF87815742210FB92
:10B010000211C86800283FF405AD0969CA6959469C
:10B020009047FFE4BDF83410ADF8B0103146BDF8DC
:10B0300030008FDF00F05FFC7FF4F4AC00F025FC03
:10B04000DFF87C059DE0BDF830502846FFF728F872
:10B050000178002900F01D824078DFF828151328B8
:10B0600000F2148200F043FCC468002C62D0066930
:10B070009DF83400022853D001285BD100F0F9FB81
:10B08000C00757D0202050E09DF83440012C06D056
:10B09000022C40F04382DFF8C0043C3002E0DFF8CD
:10B0A000B80448304946FEF797FDBBE49DF83400EC
:10B0B000FFF78FF89DF83400FFF792F800F0D9FB06
:10B0C000C0073FF4AFACCDB28DF8B010132D00F235
:10B0D00022829DF834402046FFF77BF80646204642
:10B0E000FFF77EF80246F0B202285AD0012852D06B
:10B0F0002CAE002840F0C480100640F0C180002231
:10B10000BFE000218DF8B0102FE0FEF79BF9DFF8CB
:10B110008804FEF7FBF8FEF7BBF983E400207EE02D
:10B1200000F0A7FBC00705D02420325820469047E6
:10B130002CAE77E400210022284680DFFEF7DCFEFB
:10B140002CAE01287FF46EAC00F09FFBDFF84404C6
:10B1500017E000248DF8B0409DF8D800FEF718FFE6
:10B1600014F00101099818BF014600220023284667
:10B1700086DF00F0C0FB7FF455AC00F086FBDFF803
:10B180001004FEF7C3F800F086FBFEF781F9FFF725
:10B1900049BC00220FE0501E2CAEC0B204286FD272
:10B1A0006FE0D0B2012865D105222CAE69E036A847
:10B1B000FEF7F6FF0122089900239DF8DC00002A23
:10B1C0008DF8F82008713698086004F14C00319031
:10B1D00004F13000CDE93233CDE92F3004F1140011
:10B1E000CDE92D3333462C9018BF0A46284600215E
:10B1F0007FDF00F080FB09D100F047FBDFF89C0304
:10B20000FEF784F800F047FBFEF742F99DF8EC00EA
:10B21000FEF7BEFEFFF706BC012000E002203B90D7
:10B2200000243C9DDFE800F06B03036A7F0017F801
:10B23000510C132800F22A81D24900F058FB90F8F3
:10B240006710002940F07E810468E1070ED0C168D4
:10B2500079B30069A7F15102089D036C284698470D
:10B2600028798DF8DC002868369025E0DDF8B650A6
:10B27000002444E00722022808BF06222CAE00D09A
:10B280000122C048742115FB0101C86881F86820BB
:10B2900018B109698B6A314698479DF8B000FEF7EE
:10B2A00077FEFFF7BFBBDA462CAE6CE00DF12C0940
:10B2B00039E036A8FEF774FF059A200C9DF8DC10E3
:10B2C000ADF8B000117136991160DDE92C010A0C5E
:10B2D0008DF8B420020C42EA01412C9180B2314633
:10B2E0007EDF00F008FB1ED10D46FEF7ABF8B1483B
:10B2F000FEF70CF800F0CCFAFEF7CAF80124FEF7CE
:10B30000A1F8AD48FEF702F8AC48FDF7EDFF2CB10F
:10B310000120FDF7F2FF00F0BBFA02E00020FDF78C
:10B32000ECFFFEF7B5F817F8510CFEF731FEFFF70A
:10B3300079BB039A0DF1B008D6F86D10D6F86A0003
:10B34000C2F8031010600020CDE92C00CDE92E00DA
:10B3500096F8670000284FF0300018BF1420079AB5
:10B360003318E46AD3E905011060588A51604A46EF
:10B37000ADF8F8005046CDF8008036A9A0479DF8FA
:10B38000D810DA4646460846FEF702FE0DF12C09B3
:10B3900029E60C4605291CBF43F20100844240F017
:10B3A00087800A9940F20330AAF844009AF83C904A
:10B3B000B9F1040F56D0B9F1000F0A9105D0B9F1D7
:10B3C000030F08D06948FDF71DFFDAF83000514639
:10B3D00041F8340F4960DFF880815246614908F135
:10B3E0003400FEF74AFBDAF838600DF12C0B002030
:10B3F000CDF824A0012540F6F37A0B9058464BDF98
:10B4000000F063FA25D10B9C0B2C48D805FA04F008
:10B4100010EA0A0F16D00B2C0FD00A2C08D0092CDA
:10B42000ECD13068457008F11C00FEF74FFBE5E7F2
:10B4300030680121FEF76AF9E0E730680021FEF785
:10B4400065F9DBE7022C0CBF03200020FEF7FAFBB6
:10B45000D4E70C46052934D1DDF824A003200A994D
:10B460008AF83C00B9F1040081F0010118BF012005
:10B4700008431FBF03208AF84C008AF8480043B0F5
:10B480001CBFBDE8000FF0BDFFF726FA3C4A00F0F4
:10B49000F9F9FDF7D7FF3948FDF738FF33E0FDF73D
:10B4A000D1FF3448FDF732FF2046FEF7D9FB2AE0F2
:10B4B0000C2C0AD1FDF7C6FF2B48EDE72548FDF718
:10B4C000A1FEFDF7BFFF2A4802E0FDF7BBFF2A48B7
:10B4D000FDF71CFF00F0DFF915E0294A3046D6E7FA
:10B4E000FDF7B0FF3948D7E7FDF7ACFF3848D3E7A1
:10B4F000FDF7A8FF3848FDF709FF2CA8FEF7E8FC88
:10B500003648FEF7E5FCFDF7C3FFFDF70FFFFDF73B
:10B5100099FF3048C0E71A4A2846B8E7FDF792FF7E
:10B520002848BFE7012100200C910C490B910F9096
:10B530000E9004200A490D900BA8FDF772F80448FC
:10B54000FDF760FEFDF77EFF1948A5E7B4CA0200CB
:10B550003CCA0200DCCE0200CC8E02206CCE02007F
:10B5600074CE020080C5020057000000C4CA020069
:10B57000590000005600000058000000270000009D
:10B580005CC802003C0202204600000045A1020007
:10B590002E0000002D0000002C0000002B000000F9
:10B5A000210000002200000023000000260000000F
:10B5B00024000000250000002F00000017000000FC
:10B5C0002A000000290000002800000019000000E7
:10B5D0001A0000001B0000001C000000B8C202009E
:10B5E000D99B0200002180F82C100249083101602B
:10B5F000704700BFCC8E0220F0B503AF4DF804BDFC
:10B6000000680E46451C142D13D9A0F500510929D8
:10B6100020D943F20101411A052924D9A0F5485146
:10B62000052927D8DFE801F00370596E46905D497F
:10B630009CE053490724DFE805F00B9A4B5B3B7F06
:10B64000846090468D353F823354316F8A957D00FA
:10B650007B498CE0DFE801F00547353F285D684312
:10B660006B2A604964E0DFE801F0035D4151307B03
:10B67000524970E0B0F5805F41D041F2010188424B
:10B680004DD041F20201884234D0B0F54C5F15D064
:10B69000B0F5505F69D13C49172468E0594962E030
:10B6A0005A4964E05C4959E04A4930E0444922E0A3
:10B6B000604947E037492DE056492EE033491824C8
:10B6C00055E046492CE0564948E038490E244EE002
:10B6D0005A4911244BE0404948E0304928E03A49B2
:10B6E00044E0494934E03E491C2440E031491FE030
:10B6F00051491DE03C49122439E04B492EE03C49B8
:10B70000152434E0244913E025491EE02849132478
:10B710002DE02F491B242AE039490B2427E0334927
:10B72000222424E0244903E028491A241FE0254963
:10B7300014241CE02F4916E03D49052417E0344944
:10B7400000E03A49082412E011491F240FE02B4978
:10B7500004240CE031490D2409E032490C2406E0B0
:10B76000114903E02449092401E006491624D3685D
:10B77000304622465DF804BBBDE8F040184700BFE4
:10B78000D4CA0200E8CD0200D1CD0200B9CD02003A
:10B790009ACD02007FCD02006BCD020057CD020092
:10B7A00038CD020022CD02000CCD0200FECC0200FA
:10B7B000EBCC0200D7CC0200C3CC0200B6CC020016
:10B7C000A4CC020090CC02007ACC020060CC020033
:10B7D00045CC020032CC02001CCC0200FACB0200A5
:10B7E000DECB0200CACB0200B8CB020096CB02002F
:10B7F00081CB020078CB02006FCB0200B0C2020006
:10B8000064CB02005BCB0200ACC2020054CB02004E
:10B810003CC0020049CB02003DCB020030CB02000D
:10B8200024CB020018CB02000CCB020014C0020093
:10B8300007CB020034C00200F3CA0200E2CA0200D1
:10B84000DBCA0200D0B502AF0448054CA04705484A
:10B85000A04700202146BDE8D0400847070000006F
:10B86000E99202000C000000CDE900062846012202
:10B870002047BDF83000FEF7E9BB04900390042098
:10B88000029070471421FCF789BD0C46FDF7DABD24
:10B890002846FEF7F3B92046FEF7F0B920680130DC
:10B8A00020604046FEF77EB98DF806004FF48570A3
:10B8B000ADF80400A8B27047012100200191704743
:10B8C000BDF830502846FEF7C1BB4DF808EDFEF735
:10B8D00013FB00285DF808EB70470246D6E90030FC
:10B8E000C6E90021002B7047BDE8080FF0BD7422A7
:10B8F00010FB021070474DF808EDFEF7FDFA012825
:10B900005DF808EB704772B67047BFF34F8F704712
:10B9100000BF704700DEFEDE930641BF02F01F014C
:10B9200000FA01F100207047002A08BF704702F0BA
:10B930001F03524202F01F02994020FA02F2114303
:10B940009840704700F000B8F0B503AF2DE900074C
:10B95000102A63D3434213F0030400EB040C16D007
:10B9600003460E46357803F8015B63450FD27578C0
:10B9700003F8015B63453EBFB57803F8015B63459F
:10B9800005D2F578043603F8015B6345EAD3A2EBF0
:10B99000040E01EB04092EF003080CEB08035FEA28
:10B9A00089713ED0B8F1010F54DB182129F0030250
:10B9B00001EAC90A4FEAC90102F1080549421268C1
:10B9C00001F0180655F8041C22FA0AF201FA06F4EE
:10B9D00022434CF8042B9C453CD22A6821FA0AF1F8
:10B9E00002FA06F421434CF8041B9C453FBF6968EA
:10B9F00022FA0AF201FA06F422433CBF4CF8042B67
:10BA00009C4527D2AA6821FA0AF1103502FA06F4F9
:10BA100021434CF8041B9C45D4D31BE00346F2B9E8
:10BA200033E0B8F1010F15DB4C4621684CF8041BDC
:10BA30009C450FD261684CF8041B9C453EBFA16831
:10BA40004CF8041B9C4505D2E16810344CF8041BEB
:10BA50009C45EAD309EB08010EF00302AAB11A448F
:10BA60000E7803F8016B93420FD24E7803F8016B06
:10BA700093423EBF8E7803F8016B934205D2CE7895
:10BA8000043103F8016B9342EAD3BDE80007F0BD2F
:10BA9000042A18D3B0B502AFA2F1040E012303EBC0
:10BAA0009E0313F0030414D00B46844653F8045B42
:10BAB000012C4CF8045B10D1604619467246BEF169
:10BAC0000C0F1CD230E00B46844660461946FFF747
:10BAD0003BBFBEF10C0F12D226E04B68022C436034
